:0400000007EF00F016
:100008005C82D7ED07F0D9EF0AF00650800B0F6E2F
:1000180006500624116E05AE14EF00F016EF00F03E
:1000280017EF00F011801150D8B41DEF00F01FEF4A
:1000380000F034EF00F01128D8A425EF00F027EFE6
:1000480000F02FEF00F0000E036E000E046E000E9D
:10005800056E000E066E058E000E066E3CEF00F073
:10006800000E036E000E046E000E056E000E066E86
:100078000A50800B106E0F501018D8B446EF00F0DD
:1000880048EF00F049EF00F00F8C0A500A24106E78
:1000980009AE51EF00F053EF00F054EF00F010807C
:1000A8001050D8B45AEF00F05CEF00F071EF00F098
:1000B8001028D8A462EF00F064EF00F06CEF00F0B5
:1000C800000E076E000E086E000E096E000E0A6E16
:1000D800098E000E0A6E79EF00F0000E076E000E12
:1000E800086E000E096E000E0A6E1150105CD8B032
:1000F80080EF00F082EF00F0A9EF00F00FAC87EF7F
:1001080000F089EF00F08BEF00F0800E0F1A11C09D
:1001180012F010C011F012C010F003C012F007C0A6
:1001280003F012C007F004C012F008C004F012C0B7
:1001380008F005C012F009C005F012C009F006C0A9
:1001480012F00AC006F012C00AF0000E126E11502A
:1001580010C00BF00C6A0B5E000E0C5A0CBEBEEF02
:1001680000F00C5009E11A0E0B5CD8A0BEEF00F0AD
:10017800C0EF00F0F7EF00F0035004100510061070
:10018800D8A4C9EF00F0CCEF00F0010ECDEF00F0DD
:10019800000E126E000E036E000E046E000E056E49
:1001A800000E066E10C011F000EF01F012A0DFEF94
:1001B80000F0E1EF00F0E7EF00F0D890123001090D
:1001C800126EE9EF00F0D890123203A0EEEF00F0C3
:1001D800F0EF00F0F1EF00F0128E0634063205322F
:1001E80004320332112A1050115CD8A0FEEF00F03F
:1001F80000EF01F0DAEF00F00FBC05EF01F007EFB8
:1002080001F047EF01F01150D8A40DEF01F00FEF06
:1002180001F019EF01F0000E036E000E046E000EDF
:10022800056E000E066E68EF02F0075003260850B0
:100238000422095005220A50062206A026EF01F0E2
:1002480028EF01F0D4EF01F012A02DEF01F02FEF0D
:1002580001F035EF01F0D89012300109126E37EF36
:1002680001F0D890123203A03CEF01F03EEF01F00C
:100278003FEF01F0128E06340632053204320332A3
:10028800112AD4EF01F00750035C085004580950B4
:1002980005580650800A0B6E0A50800A0B58D8B0D1
:1002A80058EF01F05AEF01F085EF01F00350075CB9
:1002B8000B6E045008580C6E055009580D6E065008
:1002C8000A580E6EFF0E0B24036EFF0E0C20046EF0
:1002D800FF0E0D20056EFF0E0E20066E800E0F1A03
:1002E800126C1250D8A47BEF01F07DEF01F08DEF76
:1002F80001F0010E0326000E0422052206228DEFCE
:1003080001F00750035E0850045A0950055A0A5074
:10031800065A0350041005100610D8A496EF01F0F1
:1003280098EF01F0CDEF01F01250D8A49EEF01F044
:10033800A0EF01F0CDEF01F0000E036E000E046E89
:10034800000E056E000E066E68EF02F0D8900336B8
:1003580004360536063612AEB4EF01F0B6EF01F0FA
:10036800B7EF01F0038012A0BCEF01F0BEEF01F07F
:10037800C2EF01F0D8801236C4EF01F0D8901236DF
:100388001150D8B4CAEF01F0CCEF01F0CDEF01F075
:10039800110605AED2EF01F0D4EF01F0AAEF01F09B
:1003A800000E106E12AEDBEF01F0DDEF01F0F5EF9D
:1003B80001F012C00BF07F0E0B16D8B4E6EF01F077
:1003C800E8EF01F0ECEF01F0010E106EF5EF01F02F
:1003D80003A0F1EF01F0F3EF01F0F5EF01F0E8EF22
:1003E80001F01050D8B4FBEF01F0FDEF01F028EF59
:0803F80002F0010E0326000EC5
:1004000004220522062206A008EF02F00AEF02F0FD
:1004100028EF02F003C00BF004C00CF005C00DF093
:1004200006C00EF00E340E320D320C320B320BC001
:1004300003F00CC004F00DC005F00EC006F011284A
:10044000D8B425EF02F027EF02F028EF02F0112ACE
:100450001128D8B42EEF02F030EF02F038EF02F09E
:100460001150D8A436EF02F038EF02F04AEF02F054
:10047000000E036E000E046E000E056E000E066E7A
:100480001150D8A446EF02F048EF02F04AEF02F014
:10049000000E0F6E11A04FEF02F051EF02F054EF7B
:1004A00002F0058E55EF02F0059ED8901130066ED1
:1004B0000FAE5DEF02F05FEF02F060EF02F0068E2C
:1004C00003C003F004C004F005C005F006C006F048
:1004D00012001F50800B286E1F501F242E6E1EAE60
:1004E00074EF02F076EF02F077EF02F02E802E50DC
:1004F000D8B47DEF02F07FEF02F092EF02F02E28E9
:10050000D8A485EF02F087EF02F08FEF02F0000E23
:100510001C6E000E1D6E000E1E6E000E1F6E1E8ED7
:100520009AEF02F0000E1C6E000E1D6E000E1E6E85
:10053000000E1F6E2350800B281A235023242D6E8B
:1005400022AEA5EF02F0A7EF02F0A8EF02F02D8097
:100550002D50D8B4AEEF02F0B0EF02F0C3EF02F0CE
:100560002D28D8A4B6EF02F0B8EF02F0C0EF02F0E9
:10057000000E206E000E216E000E226E000E236E05
:10058000228ECBEF02F0000E206E000E216E000EC8
:10059000226E000E236E2D50D8B4D1EF02F0D3EFAF
:1005A00002F0DBEF02F02E50D8A4D9EF02F0DBEF1F
:1005B00002F0E5EF02F0000E1C6E000E1D6E000E44
:1005C0001E6E000E1F6E7DEF04F022501C02F3CF52
:1005D00033F0F4CF34F03350296E2A6A2B6A2C6A38
:1005E00034502F6E306A316A326A21501D02F3CFC7
:1005F00033F0F4CF34F033502926000E2A222B2278
:100600002C2234502F26000E30223122322220504C
:100610001E02F3CF33F0F4CF34F033502926000E0E
:100620002A222B222C2234502F26000E3022312257
:1006300032222BC02CF02AC02BF029C02AF0296AC4
:1006400020501D02F3CF33F0F4CF34F0335029267D
:1006500034502A22000E2B22000E2C2221501C0284
:10066000F3CF33F0F4CF34F03350292634502A221C
:10067000000E2B22000E2C222BC02CF02AC02BF0B7
:1006800029C02AF0296A20501C02F3CF33F0F4CF9E
:1006900034F03350292634502A22000E2B22000E2B
:1006A0002C2222501D02F3CF33F0F4CF34F033501C
:1006B0002F2634503022000E3122000E32222150DB
:1006C0001E02F3CF33F0F4CF34F033502F263450E2
:1006D0003022000E3122000E322222501E02F3CFB1
:1006E00033F0F4CF34F03350246E3450256E266A44
:1006F000276A26C027F025C026F024C025F0246AEA
:1007000024502F26255030222650312227503222C5
:1007100029C024F02AC025F02BC026F02CC027F0D9
:10072000190E98EF03F0D890273226322532243262
:10073000E82E93EF03F024502F2625503022265028
:100740003122275032222BC02CF02AC02BF029C096
:100750002AF0296A2D502EC024F0256A2426000E86
:100760002522820E2424336EFF0E2520346ECEEF18
:1007700003F0D8902F363036313632362CAEC3EFF8
:1007800003F0C5EF03F0C6EF03F02F80D8902936B1
:100790002A362B362C363306D8A0340631AED3EFAA
:1007A00003F0D5EF03F0B9EF03F0000E2D6E2CAE81
:1007B000DCEF03F0DEEF03F002EF04F0FF0E29148C
:1007C000246EFF0E2A14256EFF0E2B14266E7F0E4C
:1007D0002C14276E2450251026102710D8B4F3EFC0
:1007E00003F0F5EF03F0F9EF03F0010E2D6E02EFC9
:1007F00004F02FA0FEEF03F000EF04F002EF04F08E
:10080000F5EF03F02D50D8B408EF04F00AEF04F030
:100810002EEF04F0010E2F26000E3022312232225C
:1008200032A015EF04F017EF04F02EEF04F02FC004
:1008300024F030C025F031C026F032C027F0273434
:10084000273226322532243224C02FF025C030F042
:1008500026C031F027C032F0334A342A34BE39EF93
:1008600004F0345008E13328D8A039EF04F03BEF0E
:1008700004F045EF04F0000E2F6E000E306E800E77
:10088000316E7F0E326E73EF04F034BE52EF04F01F
:10089000345006E13304D8B050EF04F052EF04F0C6
:1008A0005EEF04F0000E2F6E000E306E000E316E03
:1008B000000E326E000E286E73EF04F033C02EF07F
:1008C000FF0E2F16FF0E30167F0E3116000E321659
:1008D0002EA06DEF04F06FEF04F070EF04F0318E96
:1008E000D8902E30326E285032122FC01CF030C0FB
:1008F0001DF031C01EF032C01FF012000650800BF8
:10090000136E065006241A6E05AE89EF04F08BEFC5
:1009100004F08CEF04F01A801A50D8B492EF04F06F
:1009200094EF04F0A9EF04F01A28D8A49AEF04F089
:100930009CEF04F0A4EF04F0000E036E000E046EB2
:10094000000E056E000E066E058E000E066EB1EFEF
:1009500004F0000E036E000E046E000E056E000E15
:10096000066E0A50800B131A0A500A241B6E09AE39
:10097000BCEF04F0BEEF04F0BFEF04F01B801B508F
:10098000D8B4C5EF04F0C7EF04F0DCEF04F01B2887
:10099000D8A4CDEF04F0CFEF04F0D7EF04F0000EB1
:1009A000076E000E086E000E096E000E0A6E098EAC
:1009B000000E0A6EE4EF04F0000E076E000E086EE3
:1009C000000E096E000E0A6E0750081009100A107A
:1009D000D8A4EDEF04F0EFEF04F007EF05F0000E00
:1009E000036E000E046E000E056E000E066E800E85
:1009F00005127F0E06121350061203C003F004C046
:100A000004F005C005F006C006F04AEF06F01A50E3
:100A1000D8A40DEF05F00FEF05F019EF05F0000E6B
:100A2000036E000E046E000E056E000E066E4AEF99
:100A300006F01B501AC00BF00C6A0B5E000E0C5A2D
:100A40007F0E0B24146E000E0C20156E03C00FF0E9
:100A500004C010F005C011F006C012F0000E036EC5
:100A6000000E046E000E056E000E066E000E166E71
:100A7000000E176E000E186E000E196E000E1B6E23
:100A80007AEF05F01B50D8B448EF05F04AEF05F0B7
:100A900061EF05F0D8900F36103611361236D89027
:100AA000033604360536063619AE59EF05F05BEF0E
:100AB00005F05CEF05F00380D8901636173618362F
:100AC000193607500F5C08501058095011580A5039
:100AD0001258D8A06EEF05F070EF05F079EF05F031
:100AE000198C07500F5E0850105A0950115A0A50BD
:100AF000125A1B2A190E1B6480EF05F082EF05F0D5
:100B000042EF05F00F50101011101210D8B48BEFF7
:100B100005F08DEF05F0A5EF05F01680A5EF05F0C7
:100B2000D890033604360536063619AE9AEF05F02E
:100B30009CEF05F09DEF05F00380D8901636173630
:100B4000183619361406D8A0150605AEAAEF05F01A
:100B5000ACEF05F090EF05F0000E1B6E19AEB3EF91
:100B600005F0B5EF05F0D9EF05F0FF0E16140B6E8A
:100B7000FF0E17140C6EFF0E18140D6E7F0E191455
:100B80000E6E0B500C100D100E10D8B4CAEF05F0FD
:100B9000CCEF05F0D0EF05F0010E1B6ED9EF05F09C
:100BA00003A0D5EF05F0D7EF05F0D9EF05F0CCEFB6
:100BB00005F01B50D8B4DFEF05F0E1EF05F005EFCD
:100BC00006F0010E0326000E04220522062206A0CE
:100BD000ECEF05F0EEEF05F005EF06F003C00BF0CB
:100BE00004C00CF005C00DF006C00EF00E340E323D
:100BF0000D320C320B320BC003F00CC004F00DC0F0
:100C000005F00EC006F0144A152A15BE10EF06F0C6
:100C1000155008E11428D8A010EF06F012EF06F0E6
:100C20001DEF06F0000E156E1468000E036E000E28
:100C3000046E000E056E000E066E15BE2AEF06F05D
:100C4000155006E11404D8B028EF06F02AEF06F09C
:100C500038EF06F0000E156E000E146E000E036ED7
:100C6000000E046E000E056E000E066E000E136E72
:100C700014C01AF01AA03FEF06F041EF06F044EF5F
:100C800006F0058E45EF06F0059ED8901A30066EE8
:100C9000FBEF04F012000B6E0B50D8B452EF06F0CD
:100CA00054EF06F076EF06F006BE5BEF06F059EF64
:100CB00006F076EF06F003C007F004C008F005C0A8
:100CC00009F006C00AF0071E081E091E0A1E072AA0
:100CD000000E082209220A2207C00DF008C00EF0FB
:100CE00009C00FF00AC010F07EEF06F003C00DF04F
:100CF00004C00EF005C00FF006C010F00350041041
:100D000005100610D8A487EF06F089EF06F093EFE0
:100D100006F0000E036E000E046E000E056E000E4F
:100D2000066E24EF07F0960E0C6E9DEF06F00C2A6F
:100D3000D89010320F320E320D32000E0D14076EA5
:100D4000000E0E14086E000E0F14096EFE0E101425
:100D50000A6E0750081009100A10D8A4B2EF06F066
:100D6000B4EF06F097EF06F0C2EF06F00C2A010E82
:100D70000D26000E0E220F221022D89010320F32B4
:100D80000E320D32000E0D14076E000E0E14086E9A
:100D9000000E0F14096EFF0E10140A6E0750081093
:100DA00009100A10D8A4D7EF06F0D9EF06F0B6EF75
:100DB00006F0E1EF06F00C06D8900D360E360F3631
:100DC00010360FBEE6EF06F0E8EF06F0F0EF06F0A3
:100DD000020E0C60EEEF06F0F0EF06F0DBEF06F02F
:100DE0000CB0F5EF06F0F7EF06F0F8EF06F00F9E07
:100DF000D8900C320CC007F0086A096A0A6A07C06A
:100E00000AF0096A086A076A07500D1208500E12A4
:100E100009500F120A5010120B50D8B412EF07F0FD
:100E200014EF07F01CEF07F006BE1BEF07F019EFF9
:100E300007F01CEF07F0108E0DC003F00EC004F099
:100E40000FC005F010C006F01200000E0101A06FE7
:100E5000000EA16F000EA26F000EA36F0F0EC16EE9
:100E6000F28EF28C000ED56EF28AF194D80ED76E07
:100E7000F00ED66ED58E949094929494949692940B
:100E8000929A929092929298000E936E9280939E74
:100E9000F4EC0AF0000E0101A56F000EA46F76ECD1
:100EA00009F0000E456E010E466ED8900101A43582
:100EB000D96EA535DA6ED890D936DA364550D926AE
:100EC0004650DA2235C0DEFF36C0DEFF37C0DEFF17
:100ED00038C0DEFFA0C103F0A1C104F0A2C105F03B
:100EE000A3C106F0000E456E010E466ED890A435E3
:100EF000D96EA535DA6ED890D936DA364550D9266E
:100F00004650DA22DECF07F0DECF08F0DECF09F060
:100F1000DECF0AF009EC00F003C0A0F104C0A1F19B
:100F200005C0A2F106C0A3F10101A44BA52BA5BFEA
:100F3000A3EF07F0A55109E1280EA45DD8A0A3EF07
:100F400007F0A5EF07F04FEF07F0A0C103F0A1C134
:100F500004F0A2C105F0A3C106F0000E076E000E5A
:100F6000086E200E096E420E0A6E7EEC04F003C07D
:100F7000A0F104C0A1F105C0A2F106C0A3F1A0C177
:100F80003FF0A1C140F0A2C141F0A3C142F001EC89
:100F900009F0640E036E000E046E000E056E000E66
:100FA000066EA4EC0AF048EF07F007EF00F0060029
:100FB000D9CF01F0DACF02F0F2A4E1EF07F0E3EFCE
:100FC00007F078EF08F04F4A502A4F505010D8B42D
:100FD000ECEF07F0EEEF07F073EF08F05150D8A4F4
:100FE000F4EF07F0F6EF07F0FAEF07F08290828255
:100FF000828482865104D8A400EF08F002EF08F042
:1010000006EF08F08280829282848286020E511856
:10101000D8A40DEF08F00FEF08F014EF08F0819E50
:101020008280828282948286030E5118D8A41BEF9C
:1010300008F01DEF08F021EF08F0828082828284A0
:1010400082965150D8A427EF08F029EF08F031EF2D
:1010500008F0520E4D24D96E000E4E20DA6EDF508D
:10106000816E5104D8A437EF08F039EF08F041EF52
:1010700008F0520E4B24D96E000E4C20DA6EDF5071
:10108000816E020E5118D8A448EF08F04AEF08F01C
:1010900053EF08F0520E4924D96E000E4A20DA6E42
:1010A000DF50816E819E030E5118D8A45AEF08F0CC
:1010B0005CEF08F064EF08F0520E4724D96E000E82
:1010C0004820DA6EDF50816E512A030E51646BEFB7
:1010D00008F06DEF08F06FEF08F0000E516E000E93
:1010E000506E000E4F6ED80ED76EF00ED66EF29484
:1010F00002C0DAFF01C0D9FF5C92110037343834E6
:101100003E6E3E50D8A487EF08F089EF08F093EFC9
:1011100008F0000E356E000E366E000E376E000EB3
:10112000386E00EF09F035C039F036C03AF037C0FC
:101130003BF038C03CF0200EA3EF08F0D8903C32D2
:101140003B323A323932E82E9EEF08F039503D6E8C
:10115000378EFF0E3516FF0E3616FF0E3716000EB1
:101160003816960E3E5E3EBEBAEF08F0B8EF08F0B5
:10117000D0EF08F03E50800A970FD8B0C2EF08F0C9
:10118000C4EF08F0C6EF08F089EF08F0D8903832C5
:101190003732363235323E3EC6EF08F0E8EF08F01F
:1011A0001F0E3E64D6EF08F0D8EF08F0E0EF08F02D
:1011B00089EF08F0D89035363636373638363E0661
:1011C0003E50D8A4E6EF08F0E8EF08F0DAEF08F0B8
:1011D0003D50D8B4EEEF08F0F0EF08F0F8EF08F06B
:1011E000381E371E361E356C000E36223722382246
:1011F00035C035F036C036F037C037F038C038F07B
:101200001200000E206E000E216EC80E226E420EDD
:10121000236E3FC01CF040C01DF041C01EF042C014
:101220001FF069EC02F01CC035F01DC036F01EC086
:1012300037F01FC038F07EEC08F035C043F036C000
:1012400044F043C003F044C004F0000E066E0A0EE2
:10125000056E4CEC0AF003C04DF004C04EF043C0E4
:1012600003F044C004F0000E066E0A0E056EEAECB0
:1012700009F003C043F004C044F043C003F044C08D
:1012800004F0000E066E0A0E056E4CEC0AF003C068
:101290004BF004C04CF043C003F044C004F0000E17
:1012A000066E0A0E056EEAEC09F003C043F004C0B6
:1012B00044F043C003F044C004F0000E066E0A0E72
:1012C000056E4CEC0AF003C049F004C04AF043C07C
:1012D00003F044C004F0000E066E0A0E056EEAEC40
:1012E00009F003C047F004C048F01200C2B27BEF1F
:1012F00009F07EEF09F0010E7FEF09F0000E036E9A
:10130000046AC2B286EF09F089EF09F0010E8AEF94
:1013100009F0000E056E066AEAEC09F003040410F9
:10132000D8B495EF09F097EF09F076EF09F0C450C3
:101330003A6E396AC3503B6E3C6A39503B263A508C
:101340003C223BC003F03CC004F0000E04BEFF0E84
:10135000056E066E010E4BEC06F003C03DF004C0B6
:101360003EF005C03FF006C040F0000E076E000ED4
:10137000086EAB0E096E430E0A6E3DC003F03EC010
:1013800004F03FC005F040C006F07EEC04F003C05E
:101390001CF004C01DF005C01EF006C01FF0000EBA
:1013A000206E000E216EA00E226E400E236E69ECA0
:1013B00002F01CC03DF01DC03EF01EC03FF01FC03B
:1013C00040F03DC035F03EC036F03FC037F040C081
:1013D00038F01200000E086E06BEF3EF09F0F1EFD0
:1013E00009F0F9EF09F0056C061ED8B0062A010EC7
:1013F000086E04BE00EF0AF0FEEF09F006EF0AF0F7
:10140000036C041ED8B0042A010E081A000E0A6EDE
:10141000000E096E05500610D8B411EF0AF013EF54
:101420000AF03BEF0AF0010E076E1BEF0AF0D890AE
:1014300005360636072A06AE20EF0AF022EF0AF03C
:1014400017EF0AF0D89009360A360550035C0650AB
:101450000458D8A02EEF0AF030EF0AF035EF0AF06A
:101460000550035E0650045A0980D89006320532B2
:10147000072E22EF0AF00850D8B441EF0AF043EFEC
:101480000AF047EF0AF0096C0A1ED8B00A2A09C010
:1014900003F00AC004F01200000E086E04BE55EFFF
:1014A0000AF053EF0AF05BEF0AF0036C041ED8B0A9
:1014B000042A010E086E06BE62EF0AF060EF0AF021
:1014C00066EF0AF0056C061ED8B0062A0550061015
:1014D000D8B46DEF0AF06FEF0AF093EF0AF0010E47
:1014E000076E77EF0AF0D89005360636072A06AE63
:1014F0007CEF0AF07EEF0AF073EF0AF00550035C10
:1015000006500458D8A087EF0AF089EF0AF08DEF53
:101510000AF00550035E0650045AD8900632053290
:10152000072E7EEF0AF00850D8B499EF0AF09BEF2F
:101530000AF09FEF0AF0036C041ED8B0042A03C01F
:1015400003F004C004F01200000E0C6E000E0B6ECF
:10155000C0EF0AF0000E0E6E000E0D6E0D4A0E2A40
:101560000EBEBCEF0AF0E80E0D5C030E0E58D8A0BC
:10157000BCEF0AF0BEEF0AF0AEEF0AF00B4A0C2AFD
:101580000BC007F00CC008F0000E08BEFF0E096E7D
:101590000A6E0350075C045008580550095806505D
:1015A0000A58D8A0D6EF0AF0D8EF0AF0AAEF0AF04E
:1015B0001200F80EF66E150EF76E000EF86E00EEC5
:1015C00052F010EE0AF00900F5CFEEFFE550E150C1
:1015D000FAE100EE47F00B0EEE6AE806FDE15C90E2
:1015E0005C92000125EF07F0030EC26E0E0EC16E75
:1015F0008A0EC06EC2801200C0F9A4B0999282F81F
:021600008090D8
:020000040020DA
:08000000FFFFFFFFFFFFFFFF00
:020000040030CA
:0E000000FF021E1EFF8181FF0FC00FE00F40A8
:020000040000FA
:00000E01F1
