:020000040000FA
:100000000A128A11FC2F00308A000408840A820731
:1000100000340E3400340E340034043400340E3412
:10002000003415340034043400340A3400340A3403
:10003000003400340034003400340A340034043412
:10004000003404340034113400340E3400340034ED
:100050000034043400340E3400341F3400341F34B0
:1000600000340E3400340E3400340A3400340A34C0
:1000700000340E34003411340034113400341F3491
:1000800000341B3400341B3400341F34003400347B
:1000900000340E34003410340034103400341F3473
:1000A00000341B3400341B3400341F34003400345B
:1000B000003400340034113400340A340034113474
:1000C0000034043400340E3400341134003400346D
:1000D000003400340034003400340A340034153461
:1000E0000034113400340E3400340434003400344D
:1000F00000341F3400341F340034153400341B34F2
:1001000000341B3400341F340034113400341F34E5
:020110000034B9
:100C260000300A128A1120260A128A1101300A128D
:100C36008A1120260A128A110800F3008312031370
:100C4600081173080A128A113A260A128A118312A7
:100C5600031388151A30F200F830F100F10B312E2B
:100C6600F20B312E00008312031388110800F000E6
:100C7600701C3E2E3F2E432E831203130816462E5B
:100C8600831203130812F01C492E4A2E4C2E881686
:100C96004D2E8812701D502E512E532E0817542E8D
:100CA6000813F01D572E582E5A2E88175B2E8813C0
:100CB6000800F7007703031D612E622E852E740847
:100CC6007F3EF5007508FA007A08F5000430031037
:100CD600F50CFF3E031D6A2E7508F6007608F8002F
:100CE6007A080F39F5007508F90078080A128A1192
:100CF60020260A128A1179080A128A1120260A1257
:100D06008A11AD2E02307706031D8A2E8B2EAD2E4C
:100D16007408BF3EF5007508FA007A08F50004303D
:100D26000310F50CFF3E031D932E7508F60076089A
:100D3600F8007A080F39F5007508F90078080A12E4
:100D46008A1120260A128A1179080A128A11202687
:100D56000A128A11080000300A128A113A260A126B
:100D66008A1103300A128A1120260A128A112130AA
:100D7600F5007630F400F40BBE2EF50BBE2E000007
:100D860003300A128A1120260A128A114830F50009
:100D96006C30F400F40BCD2EF50BCD2E0000033095
:100DA6000A128A1120260A128A1102300A128A11A0
:100DB60020260A128A1102300A128A1120260A12E5
:100DC6008A1108300A128A1120260A128A11003066
:100DD6000A128A1120260A128A110C300A128A1166
:100DE60020260A128A1100300A128A1120260A12B7
:100DF6008A1106300A128A1120260A128A11080060
:100E0600F40074080F39F1007108F2007408F03923
:100E1600F1007108F3008312031308157308F1003B
:100E260004300310F10CFF3E031D142F71080A1243
:100E36008A113A260A128A1183120313881533304F
:100E4600F5008230F6000000FF30F5070318F60AB9
:100E5600FF30F6077608803AFF0080307F02031DD8
:100E6600362F01307502031C392F3A2F262F831295
:100E76000313881172080A128A113A260A128A1175
:100E86008312031388153330F7008230F800000010
:100E9600FF30F7070318F80AFF30F8077808803A9A
:100EA600FF0080307F02031D5A2F01307702031C9A
:100EB6005D2F5E2F4A2F83120313881108008316B5
:100EC600031388010A128A11AE260A128A11043007
:100ED6000A128A1120260A128A1100300A128A1171
:100EE60020260A128A1183120313A0012008FB0090
:100EF6007B07013E84000A128A1103200A128A1116
:100F06000A128A1103270A128A110130FB007B0894
:100F160083120313A00740302002031C932F942F43
:100F2600792F00300A128A1120260A128A110230FD
:100F36000A128A1120260A128A110A128A11132607
:100F46000A128A11F401F40A01300A128A115C2687
:100F56000A128A1100300A128A1103270A128A110C
:100F660001300A128A1103270A128A1102300A1264
:100F76008A1103270A128A1103300A128A110327DB
:100F86000A128A1104300A128A1103270A128A11D8
:100F960005300A128A1103270A128A1106300A122C
:100FA6008A1103270A128A1107300A128A110327A7
:100FB6000A128A11F401F40A02300A128A115C2616
:100FC6000A128A11E0300A128A1103270A128A11BC
:100FD6001A30FD005E30FC006E30FB00FB0BF12F7B
:100FE600FC0BF12FFD0BF12F0000A02F0A128A1126
:0A0FF600002883010A128A11622FFD
:02400E00723FFF
:00000001FF
