:060000000A128A11EE2F26
:100AAE007E088A007F0882000A128A1157250A12D0
:100ABE008A118000840A04087D0603190034FF0A97
:100ACE000319FE0A5B2D3F340034063400345B34C8
:100ADE0000344F340034663400346D3400347C34CA
:100AEE000034073400347F3400346F34003470081F
:100AFE0071040319832D842DB32DF501F50A922D62
:100B0E0001300310F00DF10DFF3E031D882D013055
:100B1E00F4007408F507F11F952D962D872D710899
:100B2E007302031D9C2D70087202031C9F2DA02DB5
:100B3E00A62D7008F2027108031CF303F3020130B4
:100B4E000310F10CF00CFF3E031DA72D0130F50232
:100B5E00031DB22DB32D962D7308F1007208F0000F
:100B6E000800F501F601700871040319BF2DC02DA0
:100B7E00F72DF701F70ACE2D01300310F00DF10D10
:100B8E00FF3E031DC42D0130F4007408F707F11F5A
:100B9E00D12DD22DC32D01300310F50DF60DFF3ED4
:100BAE00031DD32D71087302031DDF2D7008720211
:100BBE00031CE22DE32DEA2D7008F2027108031CCE
:100BCE00F303F302751401300310F10CF00CFF3E29
:100BDE00031DEB2D0130F702031DF62DF72DD22D3F
:100BEE007608F1007508F0000800F601F31F002EDC
:020BFE00012EC6
:100C0000082EF209F309F20A0319F30AF601F60AAB
:100C1000F11F0B2E0C2E112EF009F109F00A031909
:100C2000F10A700871040319162E172E462EF501CD
:100C3000F50A252E01300310F00DF10DFF3E031DC6
:100C40001B2E0130F4007408F507F11F282E292E01
:100C50001A2E71087302031D2F2E70087202031CD6
:100C6000322E332E392E7008F2027108031CF30362
:100C7000F30201300310F10CF00CFF3E031D3A2E7D
:100C80000130F502031D452E462E292E7608031944
:100C90004A2E4B2E502EF209F309F20A0319F30AD9
:100CA0007308F1007208F0000800F601F11F592ED8
:100CB0005A2E612EF009F109F00A0319F10AF60122
:100CC000F60AF31F642E652E6E2EF209F309F20A5E
:100CD0000319F30A0130F4007408F606F701F8016D
:100CE000700871040319752E762EAD2EF501F50AE4
:100CF000842E01300310F00DF10DFF3E031D7A2EFE
:100D00000130F4007408F507F11F872E882E792E24
:100D100001300310F70DF80DFF3E031D892E7108F9
:100D20007302031D952E70087202031C982E992ED3
:100D3000A02E7008F2027108031CF303F30277146B
:100D400001300310F10CF00CFF3E031DA12E013009
:100D5000F502031DAC2EAD2E882E76080319B12E98
:100D6000B22EB72EF709F809F70A0319F80A78081E
:100D7000F1007708F000080083120313C401C501D5
:100D8000BC01BD01203084004630F9000408FA009F
:100D90001430FB007908840083130008FC00F90A72
:100DA0007A0884007C088000FA0AFB0BCA2E83169E
:100DB000031387018312031387018316031388012A
:100DC0008312031388010A30F0000030F100450857
:100DD000F3004408F2000A128A11FC250A128A1153
:100DE000710883120313B5007008B4000A30F000D4
:100DF0000030F1004508F3004408F2000A128A119D
:100E000055260A128A11710883120313BF00700855
:100E1000BE000A30F0000030F1003F08F3003E0849
:100E2000F2000A128A117E250A128A1171088312B1
:100E30000313B7007008B6000A30F0000030F1006C
:100E40003F08F3003E08F2000A128A11B8250A1280
:100E50008A11710883120313C1007008C0000A30A0
:100E6000F0000030F1004108F3004008F2000A12DF
:100E70008A117E250A128A11710883120313B900A0
:100E80007008B8000A30F0000030F1004108F300AB
:100E90004008F2000A128A11B8250A128A11710854
:100EA00083120313C3007008C2000A30F000003040
:100EB000F1004308F3004208F2000A128A117E256D
:100EC0000A128A11710883120313BB007008BA005A
:100ED0000A30F0000030F1004308F3004208F2004D
:100EE0000A128A11B8250A128A11831203133A08CA
:100EF000F9007907203E8400831300088800071456
:100F00002130FA007630F900F90B842FFA0B842F88
:100F100000008312031307103808F9007907203EF8
:100F2000840083130008880087142130FA0076308B
:100F3000F900F90B992FFA0B992F00008312031374
:100F400087103608F9007907203E840083130008D3
:100F5000880007152130FA007630F900F90BAE2F22
:100F6000FA0BAE2F00008312031307113408F900A7
:100F70007907203E840083130008880087152130FC
:100F8000FA007630F900F90BC32FFA0BC32F0000DB
:100F90008312031387113D08803AFF0080307F02DF
:100FA000031DD42F0A303C02031CD72FD82FE22F69
:100FB000013083120313C4070318C50A0030C507A4
:100FC000BC01BD01013083120313BC070318BD0A25
:100FD0000030BD07E32E0A128A11002883135A300D
:100FE000FD000530FE006A30FF00463084000A1222
:100FF0008A115B250A128A1183010A128A11BC2EFA
:02400E00723FFF
:00000001FF
