:020000040000FA
:060000000A128A11EE2F26
:1000FC004130831203139F00C030831603139F00FB
:10010C0008007E088A007F0882000A128A11872064
:10011C000A128A118000840A04087D06031900342F
:10012C00FF0A0319FE0A8B283F34003406340034CE
:10013C005B3400344F340034663400346D34003496
:10014C007C340034073400347F3400346F34003492
:10015C00F800F401F5017008F200F3017208F600E2
:10016C007308F700781CBB28BC28C2287608F40753
:10017C000318F50A7708F50701300310F60DF70D93
:10018C00FF3E031DC3280310F80C7808031DCF286D
:10019C00D028B8287508F1007408F0000800F400A5
:1001AC000130F2007208831203139F057408F200E9
:1001BC0002300310F20DFF3E031DDF280310720DF9
:1001CC00F30073089F040D30F300FB30F200F20BC8
:1001DC00ED28F30BED28F228831203131F151F19BA
:1001EC00F828F928F5281E08F100831603131E08B9
:1001FC00F0000800F601F31F042905290C29F20967
:10020C00F309F20A0319F30AF601F60AF11F0F2992
:10021C0010291529F009F109F00A0319F10A7008DF
:10022C00710403191A291B294A29F501F50A2929F0
:10023C0001300310F00DF10DFF3E031D1F2901309D
:10024C00F4007408F507F11F2C292D291E297108BB
:10025C007302031D332970087202031C36293729D7
:10026C003D297008F2027108031CF303F3020130FC
:10027C000310F10CF00CFF3E031D3E290130F5027A
:10028C00031D49294A292D29760803194E294F297E
:10029C005429F209F309F20A0319F30A7308F1005D
:1002AC007208F0000800F601F11F5D295E2965292E
:1002BC00F009F109F00A0319F10AF601F60AF31F25
:1002CC00682969297229F209F309F20A0319F30A58
:1002DC000130F4007408F606F701F8017008710497
:1002EC00031979297A29B129F501F50A88290130F0
:1002FC000310F00DF10DFF3E031D7E290130F400BB
:10030C007408F507F11F8B298C297D290130031006
:10031C00F70DF80DFF3E031D8D2971087302031DA7
:10032C00992970087202031C9C299D29A429700824
:10033C00F2027108031CF303F3027714013003106B
:10034C00F10CF00CFF3E031DA5290130F502031D35
:10035C00B029B1298C2976080319B529B629BB29EE
:10036C00F709F809F70A0319F80A7808F100770871
:10037C00F00008000310831203133C0D3D0DBE006A
:10038C003E08C4004408031DCC29CD29D6290030D1
:10039C00BD000030BC000030BB000030BA003B2A6E
:1003AC003A08BE003B08BF003C08C0003D08C10035
:1003BC001F300310C10CC00CBF0CBE0CFF3E031D44
:1003CC00DF293E08C2004208C300BC17FF30BA0543
:1003DC00FF30BB05FF30BC050030BD059630C402B4
:1003EC00C41FF929FA29142A4408803A973E0318A5
:1003FC00002A012A022ACD2901300310BD0CBC0CA5
:10040C00BB0CBA0CFF3E031D032A0130BE003E0894
:10041C00C407031D122A132A022A2B2A2030440255
:10042C00031C192A1A2A262ACD290130BE000310D2
:10043C00BA0DBB0DBC0DBD0DBE0B1D2A0130C40287
:10044C004408031D2A2A2B2A1B2A430803192F2A86
:10045C00302A3B2ABA09BB09BC09BD09BA0A0319DF
:10046C00BB0A0319BC0A0319BD0A0800F800780876
:10047C000319412A422A562AF31F452A462A562A8C
:10048C007009FA007109FB007209FC007309FD0088
:10049C00FA0A0319FB0A0319FC0A0319FD0A5E2A5E
:1004AC007308FD007208FC007108FB007008FA006C
:1004BC007308720471047004031D652A662A6F2A7E
:1004CC000030F3000030F2000030F1000030F0009A
:1004DC00F52A9630F4007408F900812A0130F400F2
:1004EC007408F90701300310FD0CFC0CFB0CFA0C22
:1004FC00FF3E031D792AFE307D05031D862A872ABF
:10050C00742AA32A0130F4007408F9070130FA07A1
:10051C00003003180130FB07003003180130FC07D2
:10052C00003003180130FD0701300310FD0CFC0CEA
:10053C00FB0CFA0CFF3E031D9B2AFF307D05031DAF
:10054C00A82AA92A882AB52A0130F9020130F40018
:10055C000310FA0DFB0DFC0DFD0DF40BAE2AFC1B6C
:10056C00B82AB92ABF2A023079020318BE2ABF2A38
:10057C00AA2A7918C22AC32ACB2AFF30FA05FF30DF
:10058C00FB057F30FC05FF30FD050310F90C7908E5
:10059C00F400F501F601F70118300310F40DF50D18
:1005AC00F60DF70DFF3E031DD32A7408FA047508E7
:1005BC00FB047608FC047708FD0478080319E72A85
:1005CC00E82AED2AF31FEB2AEC2AED2AFD177D0809
:1005DC00F3007C08F2007B08F1007A08F0000800B8
:1005EC0083160313C601C701BE01BF01A0308400EE
:1005FC00C83083120313C5000408C6001430C700AA
:10060C004508840083130008C800C50A4608840006
:10061C0048088000C60AC70B062B831603138701F4
:10062C0083120313870183160313880183120313A8
:10063C0088010A128A117E200A128A11831603136A
:10064C003F08803AFF0080307F02031D2F2B323091
:10065C003E02031C322B332B822B04300A128A11DC
:10066C00D5200A128A11710883160313BD00700875
:10067C00BC003C08F0003D08F1000030F11BFF30DD
:10068C00F200F30001300A128A113C220A128A117C
:10069C00730883120313A7007208A6007108A50043
:1006AC007008A4003E30A300F930A200FF30A10076
:1006BC00F830A0000A128A118D240A128A118312B2
:1006CC0003132308BD002208BC002108BB0020082E
:1006DC00BA000A128A11C0210A128A11831203135A
:1006EC003B0883160313C700831203133A088316BF
:1006FC000313C600BE01BF01013083160313BE07EE
:10070C000318BF0A0030BF070A30F0000030F100B8
:10071C004708F3004608F2000A128A1100210A1257
:10072C008A11710883160313B5007008B4000A30DF
:10073C00F0000030F1004708F3004608F2000A12FE
:10074C008A1159210A128A11710883160313C100E8
:10075C007008C0000A30F0000030F1004108F300CE
:10076C004008F2000A128A1100210A128A1171083B
:10077C0083160313B7007008B6000A30F00000307F
:10078C00F1004108F3004008F2000A128A115921C5
:10079C000A128A11710883160313C3007008C20071
:1007AC000A30F0000030F1004308F3004208F20078
:1007BC000A128A1100210A128A1171088316031376
:1007CC00B9007008B8000A30F0000030F10043089E
:1007DC00F3004208F2000A128A1159210A128A11F6
:1007EC00710883160313C5007008C4000A30F000AA
:1007FC000030F1004508F3004408F2000A128A1197
:10080C0000210A128A11710883160313BB007008A9
:10081C00BA000A30F0000030F1004508F30044083B
:10082C00F2000A128A1159210A128A118316031333
:10083C003A0883120313C5004507A03E84008313B6
:10084C00000888000714213083120313C60075308A
:10085C00C500C50B2F2CC60B2F2C342C8312031365
:10086C00071083160313380883120313C5004507BA
:10087C00A03E840083130008880088178714213059
:10088C0083120313C6007530C500C50B4B2CC60B69
:10089C004B2C502C8312031387108316031336082A
:1008AC0083120313C5004507A03E84008313000880
:1008BC0088000715213083120313C6007530C5005C
:1008CC00C50B662CC60B662C6B2C831203130711FD
:1008DC0083160313340883120313C5004507A03E87
:1008EC0084008313000888008715213083120313BA
:1008FC00C6007530C500C50B812CC60B812C862C0F
:10090C00831203138711242B0A128A1100288312D5
:10091C00031323088039A8002808AD002308A80079
:10092C002807A9002908B300A21F9D2C9E2C9F2CE0
:10093C00331433080319A32CA42CB32C330A031D32
:10094C00A82CA92CB12C0030A3000030A200003040
:10095C00A1000030A000A217BB2C0030A300003077
:10096C00A2000030A1000030A00027088039A800A8
:10097C002808AD062708A8002807A9002908B200F6
:10098C00A61FC92CCA2CCB2C321432080319CF2C1D
:10099C00D02CDF2C320A031DD42CD52CDD2C0030AE
:1009AC00A7000030A6000030A5000030A400A61758
:1009BC00E72C0030A7000030A6000030A500003066
:1009CC00A40032080319EB2CEC2CF12C3308031D7A
:1009DC00F02CF12CFA2C0030A3000030A2000030D7
:1009EC00A1000030A000ED2F2008A8002808F0007E
:1009FC0026080A128A11AE200A128A117108831273
:100A0C000313B9007008B8003808A800A901AA019E
:100A1C00AB012B08B1002A08B0002908AF00280848
:100A2C00AE003908A800A901AA01AB012B08B70038
:100A3C002A08B6002908B5002808B4002108A80027
:100A4C002808F00025080A128A11AE200A128A1111
:100A5C00710883120313B9007008B8003808A80095
:100A6C00A901AA01AB012808AE0729080311031834
:100A7C00013E0319422DAF072A0803110318013E4A
:100A8C000319492DB0072B0803110318013E031954
:100A9C00502DB1073908A800A901AA01AB012808FB
:100AAC00B407290803110318013E03195E2DB5077D
:100ABC002A0803110318013E0319652DB6072B08EC
:100ACC0003110318013E03196C2DB7072208A80067
:100ADC002808F00024080A128A11AE200A128A1182
:100AEC00710883120313B9007008B8003808A80005
:100AFC00A901AA01AB012808AE07290803110318A4
:100B0C00013E03198A2DAF072A0803110318013E71
:100B1C000319912DB0072B0803110318013E03197B
:100B2C00982DB1073908A800A901AA01AB01280822
:100B3C00B407290803110318013E0319A62DB507A4
:100B4C002A0803110318013E0319AD2DB6072B0813
:100B5C0003110318013E0319B42DB7070830A80080
:100B6C000310AE0DAF0DB00DB10DA80BB62D2108B5
:100B7C00A8002808F00024080A128A11AE200A12D4
:100B8C008A11710883120313B9007008B800380871
:100B9C00A8003908A900AA01AB012808AE0729084A
:100BAC0003110318013E0319DC2DAF072A080311AA
:100BBC000318013E0319E32DB0072B08031103188A
:100BCC00013E0319EA2DB1072008A8002808F000FF
:100BDC0025080A128A11AE200A128A117108831292
:100BEC000313B9007008B8003808A8003908A90028
:100BFC00AA01AB012808AE07290803110318013E0E
:100C0C000319092EAF072A0803110318013E031913
:100C1C00102EB0072B0803110318013E0319172ED1
:100C2C00B1070830A8000310AE0DAF0DB00DB10D1B
:100C3C00A80B192E2008A8002808F00024080A1276
:100C4C008A11AE200A128A11710883120313B9009B
:100C5C007008B8003808A8003908A900AA01AB012F
:100C6C002808AE07290803110318013E03193F2E6B
:100C7C00AF072A0803110318013E0319462EB007CB
:100C8C002B0803110318013E03194D2EB10721083F
:100C9C00A8002808F00026080A128A11AE200A12B1
:100CAC008A11710883120313B9007008B800380850
:100CBC00A8003908A900AA01AB012808B407290823
:100CCC0003110318013E03196C2EB5072A080311F2
:100CDC000318013E0319732EB6072B0803110318D2
:100CEC00013E03197A2EB7072208A8002808F00045
:100CFC0025080A128A11AE200A128A117108831271
:100D0C000313B9007008B8003808A8003908A90006
:100D1C00AA01AB012808B407290803110318013EE6
:100D2C000319992EB5072A0803110318013E03195C
:100D3C00A02EB6072B0803110318013E0319A72E8A
:100D4C00B7072208A8002808F00026080A128A1102
:100D5C00AE200A128A11710883120313B9007008AD
:100D6C00B8003808A8003908A900AA01AB0108305E
:100D7C000310A80DA90DAA0DAB0DFF3E031DBE2E31
:100D8C002808B407290803110318013E0319CF2EB4
:100D9C00B5072A0803110318013E0319D62EB6070E
:100DAC002B0803110318013E0319DD2EB7072E087B
:100DBC00A8002F08A9003008AA003108AB00183091
:100DCC000310AB0CAA0CA90CA80CFF3E031DE62EBD
:100DDC002808B407290803110318013E0319F72E3C
:100DEC00B5072A0803110318013E0319FE2EB60796
:100DFC002B0803110318013E0319052FB707083000
:100E0C00A8000310AE0DAF0DB00DB10DA80B072F40
:100E1C0033083207A800A901A90D2808823EB800A2
:100E2C0029080318013EFF3EB900392F0130A800F4
:100E3C000310B40DB50DB60DB70DA80B1E2FB11FB9
:100E4C00282F292F2A2F34140130A8000310AE0D9F
:100E5C00AF0DB00DB10DA80B2C2FFF30B807031838
:100E6C00B90AFF30B907B61F3C2F3D2F1C2FB2011A
:100E7C00B11F412F422F5E2FFF302E05A800FF30EF
:100E8C002F05A900FF303005AA007F303105AB00DB
:100E9C002B082A04290428040319552F562F592FDF
:100EAC00B201B20A5E2F341C5C2F5D2F5E2F562FC1
:100EBC0032080319622F632F942F0130B4070030CE
:100ECC0003180130B507003003180130B6070030A5
:100EDC0003180130B707371C742F752F942F340863
:100EEC00A8003508A9003608AA003708AB00013065
:100EFC00AC002B0DAB0CAA0CA90CA80CAC0B7F2FC7
:100F0C002B08B7002A08B6002908B5002808B40039
:100F1C000130B8070318B90A0030B9073908803A0C
:100F2C00FF0080307F02031D9D2FFF303802031C11
:100F3C00A02FA12FAC2F7F3083120313B70080306A
:100F4C00B6000030B5000030B400E12F831203135B
:100F5C003908803AFF0080307F02031DB72F013023
:100F6C0038020318BA2FBB2FC72F0030831203137C
:100F7C00B7000030B6000030B5000030B400AD0151
:100F8C00E12F831203133808A8002808B300FF30A0
:100F9C00B405FF30B5057F30B6050030B705331CFE
:100FAC00D82FD92FDA2FB6173308A8000310280C26
:100FBC00A9002908B7002D08A8002808B70437088D
:100FCC00A3003608A2003508A1003408A0000800D0
:100FDC008313DC30FD000030FE009A30FF00C83077
:100FEC0084000A128A118B200A128A1183010A12B8
:040FFC008A11F62A36
:02400E00723FFF
:00000001FF
