:020000040000FA
:100000000A128A11FC2FF601F11F072808280F2871
:10001000F009F109F00A0319F10AF601F60AF31FD3
:10002000122813281C28F209F309F20A0319F30A0B
:100030000130F4007408F606F701F8017008710445
:100040000319232824285B28F501F50A32280130FA
:100050000310F00DF10DFF3E031D28280130F400C0
:100060007408F507F11F35283628272801300310BA
:10007000F70DF80DFF3E031D372871087302031DAD
:10008000432870087202031C462847284E2870082F
:10009000F2027108031CF303F3027714013003101A
:1000A000F10CF00CFF3E031D4F280130F502031D3B
:1000B0005A285B283628760803195F2860286528A7
:1000C000F709F809F70A0319F80A7808F100770820
:1000D000F00008000310831203133C0D3D0DBE0019
:1000E0003E08C4004408031D762877288028003085
:1000F000BD000030BC000030BB000030BA00E52875
:100100003A08BE003B08BF003C08C0003D08C100E3
:100110001F300310C10CC00CBF0CBE0CFF3E031DF2
:1001200089283E08C2004208C300BC17FF30BA0548
:10013000FF30BB05FF30BC050030BD059630C40262
:10014000C41FA328A428BE284408803A973E031859
:10015000AA28AB28AC28772801300310BD0CBC0CB2
:10016000BB0CBA0CFF3E031DAD280130BE003E089B
:10017000C407031DBC28BD28AC28D5282030440264
:10018000031CC328C428D02877280130BE000310E0
:10019000BA0DBB0DBC0DBD0DBE0BC7280130C4028E
:1001A0004408031DD428D528C52843080319D92895
:1001B000DA28E528BA09BB09BC09BD09BA0A03193E
:1001C000BB0A0319BC0A0319BD0A0800F800780825
:1001D0000319EB28EC280029F31FEF28F028002949
:1001E0007009FA007109FB007209FC007309FD0037
:1001F000FA0A0319FB0A0319FC0A0319FD0A082964
:100200007308FD007208FC007108FB007008FA001A
:100210007308720471047004031D0F291029192931
:100220000030F3000030F2000030F1000030F00048
:100230009F299630F4007408F9002B290130F4004E
:100240007408F90701300310FD0CFC0CFB0CFA0CD0
:10025000FF3E031D2329FE307D05031D3029312972
:100260001E294D290130F4007408F9070130FA07FE
:10027000003003180130FB07003003180130FC0781
:10028000003003180130FD0701300310FD0CFC0C99
:10029000FB0CFA0CFF3E031D4529FF307D05031DB5
:1002A0005229532932295F290130F9020130F40023
:1002B0000310FA0DFB0DFC0DFD0DF40B5829FC1B72
:1002C000622963296929023079020318682969299A
:1002D000542979186C296D297529FF30FA05FF30EA
:1002E000FB057F30FC05FF30FD050310F90C790894
:1002F000F400F501F601F70118300310F40DF50DC7
:10030000F60DF70DFF3E031D7D297408FA047508EC
:10031000FB047608FC047708FD047808031991298A
:1003200092299729F31F952996299729FD177D086A
:10033000F3007C08F2007B08F1007A08F000080066
:1003400083160313880105160A128A15F9230A1267
:100350008A110A128A1514250A128A110A128A159C
:1003600002240A128A1183120313DD01DE01043014
:100370000A128A1597240A128A117108831203132C
:10038000E2007008E1006108F0006208F10000304E
:10039000F11BFF30F200F30001300A128A11E6204F
:1003A0000A128A11730883120313A7007208A600A9
:1003B0007108A5007008A4004030A3009C30A20082
:1003C0003F30A100E630A0000A128A119B240A12D5
:1003D0008A11831203132308BD002208BC002108E0
:1003E000BB002008BA000A128A116A200A128A1178
:1003F000831203133B08E4003A08E3006408803AE0
:10040000FF0089307F02031D072AC4306302031CEA
:100410000A2A0B2A4F2A8312031363083C3EF0007A
:1004200064080318013EF63EF100F201F11BF203ED
:100430007208F30001300A128A11E6200A128A11AA
:10044000730883120313A7007208A6007108A500A1
:100450007008A4004130A3009430A2000030A10035
:100460000030A0000A128A1523260A128A1183126C
:1004700003132308BD002208BC002108BB0020088C
:10048000BA000A128A116A200A128A11831203130F
:100490003A08DF070318E00A3B08E007A52A8312A1
:1004A00003136408803AFF0089307F02031D5A2A33
:1004B000C530630203185D2A5E2AA52AC430831260
:1004C0000313C5000930C60063084502F000640844
:1004D000031C640A4602F100F201F11BF2037208E8
:1004E000F30001300A128A11E6200A128A117308F9
:1004F00083120313A7007208A6007108A5007008F4
:10050000A4004130A3009430A2000030A1000030CC
:10051000A0000A128A1523260A128A1183120313D5
:100520002308BD002208BC002108BB002008BA0037
:100530000A128A116A200A128A11831203133A08D6
:10054000DF070318E00A3B08E007013083120313BA
:10055000DD070318DE0A0030DE075E08803AFF0080
:1005600080307F02031DB62A14305D02031CB92AB5
:10057000BA2AB7291430F0000030F10083120313B7
:100580006008F3005F08F2000A128A1103200A12C1
:100590008A11710883120313E0007008DF000A302B
:1005A000F9000030FA006430F0000030F10060081B
:1005B000F3005F08F2000A128A1103200A128A115E
:1005C0007108FC007008FB000A128A1569250A12DE
:1005D0008A117A0883120313D8007908D7000A30E9
:1005E000F9000030FA000A30F0000030F100600835
:1005F000F3005F08F2000A128A1103200A128A111E
:100600007108FC007008FB000A128A1569250A129D
:100610008A117A0883120313DA007908D9000A30A4
:10062000F9000030FA006008FC005F08FB000A12C5
:100630008A1569250A128A117A0883120313DC00CD
:100640007908DB00F401F40A01300A128A15C22489
:100650000A128A1101300A128A154B240A128A11D1
:10066000831203135708303E0A128A15C4250A1252
:100670008A11831203135908303E0A128A15C425C1
:100680000A128A112E300A128A15C4250A128A11FA
:10069000831203135B08303E0A128A15C4250A121E
:1006A0008A110A30F9000030FA00E830F000033017
:1006B000F100831203136208F3006108F2000A12CA
:1006C0008A1103200A128A117108FC007008FB00CD
:1006D0000A128A1569250A128A117A0883120313ED
:1006E000C8007908C7000A30F9000030FA00643009
:1006F000F0000030F1006208F3006108F2000A1215
:100700008A1103200A128A117108FC007008FB008C
:100710000A128A1569250A128A117A0883120313AC
:10072000CA007908C9000A30F9000030FA000A301E
:10073000F0000030F1006208F3006108F2000A12D4
:100740008A1103200A128A117108FC007008FB004C
:100750000A128A1569250A128A117A08831203136C
:10076000CC007908CB000A30F9000030FA006208AA
:10077000FC006108FB000A128A1569250A128A1119
:100780007A0883120313CE007908CD00F401F40A2D
:1007900002300A128A15C2240A128A110B300A1278
:1007A0008A154B240A128A11831203134708303E1C
:1007B0000A128A15C4250A128A11831203134908E2
:1007C000303E0A128A15C4250A128A1183120313B5
:1007D0004B08303E0A128A15C4250A128A11831268
:1007E00003134D08303E0A128A15C4250A128A11D5
:1007F0000A30F9000030FA00E830F0000330F10070
:10080000831203136408F3006308F2000A128A11CA
:1008100003200A128A117108FC007008FB000A12FA
:100820008A1569250A128A117A0883120313D000E7
:100830007908CF000A30F9000030FA006430F00087
:100840000030F1006408F3006308F2000A128A1114
:1008500003200A128A117108FC007008FB000A12BA
:100860008A1569250A128A117A0883120313D200A5
:100870007908D1000A30F9000030FA000A30F0009F
:100880000030F1006408F3006308F2000A128A11D4
:1008900003200A128A117108FC007008FB000A127A
:1008A0008A1569250A128A117A0883120313D40063
:1008B0007908D3000A30F9000030FA006408FC001F
:1008C0006308FB000A128A1569250A128A117A0840
:1008D00083120313D6007908D50010300A128A1546
:1008E0004B240A128A11831203134F08303E0A1256
:1008F0008A15C4250A128A11831203135108303E47
:100900000A128A15C4250A128A1183120313530886
:10091000303E0A128A15C4250A128A118312031363
:100920005508303E0A128A15C4250A128A11B329C5
:100930000A128A1100288312031323088039A800A1
:100940002808AD002308A8002807A9002908B3003B
:10095000A21FAB2CAC2CAD2C331433080319B12CD3
:10096000B22CC12C330A031DB62CB72CBF2C00307F
:10097000A3000030A2000030A1000030A000A217A8
:10098000C92C0030A3000030A2000030A1000030CC
:10099000A00027088039A8002808AD062708A8006D
:1009A0002807A9002908B200A61FD72CD82CD92CBB
:1009B000321432080319DD2CDE2CED2C320A031D13
:1009C000E22CE32CEB2C0030A7000030A600003016
:1009D000A5000030A400A617F52C0030A7000030B9
:1009E000A6000030A5000030A40032080319F92C3D
:1009F000FA2CFF2C3308031DFE2CFF2C082D003091
:100A0000A3000030A2000030A1000030A000FB2FA6
:100A10002008A8002808F00026080A128A15702469
:100A20000A128A11710883120313B9007008B80002
:100A30003808A800A901AA01AB012B08B1002A08B7
:100A4000B0002908AF002808AE003908A800A901A5
:100A5000AA01AB012B08B7002A08B6002908B50087
:100A60002808B4002108A8002808F00025080A1268
:100A70008A1570240A128A11710883120313B900AF
:100A80007008B8003808A800A901AA01AB0128081D
:100A9000AE07290803110318013E0319502DAF07B3
:100AA0002A0803110318013E0319572DB0072B081C
:100AB00003110318013E03195E2DB1073908A80080
:100AC000A901AA01AB012808B407290803110318DA
:100AD000013E03196C2DB5072A0803110318013EC6
:100AE0000319732DB6072B0803110318013E0319D0
:100AF0007A2DB7072208A8002808F00024080A1257
:100B00008A1570240A128A11710883120313B9001E
:100B10007008B8003808A800A901AA01AB0128088C
:100B2000AE07290803110318013E0319982DAF07DA
:100B30002A0803110318013E03199F2DB0072B0843
:100B400003110318013E0319A62DB1073908A800A7
:100B5000A901AA01AB012808B40729080311031849
:100B6000013E0319B42DB5072A0803110318013EED
:100B70000319BB2DB6072B0803110318013E0319F7
:100B8000C22DB7070830A8000310AE0DAF0DB00D91
:100B9000B10DA80BC42D2108A8002808F0002408D6
:100BA0000A128A1570240A128A117108831203131B
:100BB000B9007008B8003808A8003908A900AA01CF
:100BC000AB012808AE07290803110318013E0319D9
:100BD000EA2DAF072A0803110318013E0319F12D6E
:100BE000B0072B0803110318013E0319F82DB107B4
:100BF0002008A8002808F00025080A128A15702489
:100C00000A128A11710883120313B9007008B80020
:100C10003808A8003908A900AA01AB012808AE07C6
:100C2000290803110318013E0319172EAF072A08DC
:100C300003110318013E03191E2EB0072B080311E0
:100C40000318013E0319252EB1070830A800031030
:100C5000AE0DAF0DB00DB10DA80B272E2008A800CA
:100C60002808F00024080A128A1570240A128A1132
:100C7000710883120313B9007008B8003808A8007F
:100C80003908A900AA01AB012808AE0729080311F9
:100C90000318013E03194D2EAF072A08031103184C
:100CA000013E0319542EB0072B0803110318013E0F
:100CB00003195B2EB1072108A8002808F0002608B8
:100CC0000A128A1570240A128A11710883120313FA
:100CD000B9007008B8003808A8003908A900AA01AE
:100CE000AB012808B407290803110318013E0319B2
:100CF0007A2EB5072A0803110318013E0319812E25
:100D0000B6072B0803110318013E0319882EB707F5
:100D10002208A8002808F00025080A128A15702465
:100D20000A128A11710883120313B9007008B800FF
:100D30003808A8003908A900AA01AB012808B4079F
:100D4000290803110318013E0319A72EB5072A0825
:100D500003110318013E0319AE2EB6072B08031129
:100D60000318013E0319B52EB7072208A80028086A
:100D7000F00026080A128A1570240A128A117108D6
:100D800083120313B9007008B8003808A8003908A6
:100D9000A900AA01AB0108300310A80DA90DAA0DE6
:100DA000AB0DFF3E031DCC2E2808B4072908031104
:100DB0000318013E0319DD2EB5072A080311031895
:100DC000013E0319E42EB6072B0803110318013E58
:100DD0000319EB2EB7072E08A8002F08A90030082A
:100DE000AA003108AB0018300310AB0CAA0CA90CF8
:100DF000A80CFF3E031DF42E2808B4072908031190
:100E00000318013E0319052FB5072A08031103181B
:100E1000013E03190C2FB6072B0803110318013EDE
:100E20000319132FB7070830A8000310AE0DAF0D3C
:100E3000B00DB10DA80B152F33083207A800A9017A
:100E4000A90D2808823EB80029080318013EFF3E7C
:100E5000B900472F0130A8000310B40DB50DB60D31
:100E6000B70DA80B2C2FB11F362F372F382F341466
:100E70000130A8000310AE0DAF0DB00DB10DA80BE1
:100E80003A2FFF30B8070318B90AFF30B907B61F69
:100E90004A2F4B2F2A2FB201B11F4F2F502F6C2FEB
:100EA000FF302E05A800FF302F05A900FF303005C8
:100EB000AA007F303105AB002B082A04290428043E
:100EC0000319632F642F672FB201B20A6C2F341CF1
:100ED0006A2F6B2F6C2F642F32080319702F712F1C
:100EE000A22F0130B407003003180130B5070030DD
:100EF00003180130B607003003180130B707371C5C
:100F0000822F832FA22F3408A8003508A9003608A5
:100F1000AA003708AB000130AC002B0DAB0CAA0CBB
:100F2000A90CA80CAC0B8D2F2B08B7002A08B60013
:100F30002908B5002808B4000130B8070318B90A19
:100F40000030B9073908803AFF0080307F02031D66
:100F5000AB2FFF303802031CAE2FAF2FBA2F7F30DC
:100F600083120313B7008030B6000030B5000030A4
:100F7000B400EF2F831203133908803AFF0080304A
:100F80007F02031DC52F013038020318C82FC92F57
:100F9000D52F003083120313B7000030B6000030A5
:100FA000B5000030B400AD01EF2F831203133808F1
:100FB000A8002808B300FF30B405FF30B5057F3026
:100FC000B6050030B705331CE62FE72FE82FB6171C
:100FD0003308A8000310280CA9002908B7002D0821
:100FE000A8002808B7043708A3003608A20035086F
:100FF000A1003408A000080083010A128A11A02968
:1010000008308A000408840A8207003443347534A7
:101010007234723465346E3474343A3420340034AB
:101020004134443443343A340034203456343A346E
:0210300000348A
:1017F2004130831203139F00C030831603139F00EE
:10180200080000300A128A150F240A128A150130C4
:101812000A128A150F240A128A150800F30083128D
:101822000313081173080A128A1529240A128A1549
:101832008312031388151A30F200F830F100F10B0D
:10184200202CF20B202C00008312031388110800B5
:10185200F000701C2D2C2E2C322C83120313081630
:10186200352C831203130812F01C382C392C3B2C14
:1018720088163C2C8812701D3F2C402C422C0817D5
:10188200432C0813F01D462C472C492C88174A2C50
:1018920088130800FB00F901FA01622C79087B0722
:1018A20084000A128A1500200A128A150A128A1561
:1018B200C4250A128A150130F9070318FA0A003002
:1018C200FA0779087B0784000A128A1500200A1297
:1018D2008A15003A031D6E2C6F2C4F2C0800F8005D
:1018E200F401F5017008F200F3017208F6007308C2
:1018F200F700781C7D2C7E2C842C7608F4070318C4
:10190200F50A7708F50701300310F60DF70DFF3ED3
:10191200031D852C0310F80C7808031D912C922CC2
:101922007A2C7508F1007408F0000800F400013008
:10193200F2007208831203139F057408F20002304A
:101942000310F20DFF3E031DA12C0310720DF300D4
:1019520073089F040D30F300FB30F200F20BAF2C42
:10196200F30BAF2CB42C831203131F151F19BA2CBF
:10197200BB2CB72C1E08F100831603131E08F000BF
:101982000800F7007703031DC72CC82CEB2C740842
:101992007F3EF5007508FA007A08F500043003105E
:1019A200F50CFF3E031DD02C7508F6007608F800F2
:1019B2007A080F39F5007508F90078080A128A15B5
:1019C2000F240A128A1579080A128A150F240A129C
:1019D2008A15132D02307706031DF02CF12C132DDE
:1019E2007408BF3EF5007508FA007A08F500043065
:1019F2000310F50CFF3E031DF92C7508F60076085E
:101A0200F8007A080F39F5007508F90078080A120B
:101A12008A150F240A128A1579080A128A150F24C8
:101A22000A128A15080000300A128A1529240A129D
:101A32008A1503300A128A150F240A128A152130D8
:101A4200F5007630F400F40B242DF50B242D000064
:101A520003300A128A150F240A128A154830F5003B
:101A62006C30F400F40B332DF50B332D00000330F2
:101A72000A128A150F240A128A1502300A128A15CE
:101A82000F240A128A1502300A128A150F240A122A
:101A92008A1508300A128A150F240A128A15003094
:101AA2000A128A150F240A128A150C300A128A1594
:101AB2000F240A128A1500300A128A150F240A12FC
:101AC2008A1506300A128A150F240A128A1508008E
:101AD20083120313A101FC1F6F2D702D772DFB09BB
:101AE200FC09FB0A0319FC0AA101A10AFA1F7A2DBB
:101AF2007B2D802DF909FA09F90A0319FA0A7908E6
:101B02007A040319852D862DB52DA001A00A942DE6
:101B120001300310F90DFA0DFF3E031D8A2D01302D
:101B2200FD007D08A007FA1F972D982D892D7A08B0
:101B32007C02031D9E2D79087B02031CA12DA22D80
:101B4200A82D7908FB027A08031CFC03FC02013071
:101B52000310FA0CF90CFF3E031DA92D0130A0025F
:101B6200031DB42DB52D982D21080319B92DBA2DB9
:101B7200BF2DFB09FC09FB0A0319FC0A7C08FA00C9
:101B82007B08F9000800F40074080F39F1007108AD
:101B9200F2007408F039F1007108F30083120313A4
:101BA20008157308F10004300310F10CFF3E031D09
:101BB200D52D71080A128A1529240A128A15831250
:101BC200031388153330F5008230F6000000FF3031
:101BD200F5070318F60AFF30F6077608803AFF0089
:101BE20080307F02031DF72D01307502031CFA2D90
:101BF200FB2DE72D83120313881172080A128A152E
:101C020029240A128A158312031388153330F70028
:101C12008230F8000000FF30F7070318F80AFF309F
:101C2200F8077808803AFF0080307F02031D1B2EE0
:101C320001307702031C1E2E1F2E0B2E831203135C
:101C4200881108008312031327088039A800280886
:101C5200B1002708A8002807A9002908B800A61F74
:101C6200332E342E352E381438080319392E3A2ED5
:101C72004A2E380A031D3E2E3F2E472E0030A70063
:101C82000030A6000030A5000030A400A617A7016E
:101C9200522E0030A7000030A6000030A500003010
:101CA200A40023088039A8002808B1062308A80048
:101CB2002807A9002908B900A21F602E612E622EF2
:101CC200391439080319662E672E772E390A031D37
:101CD2006B2E6C2E742E0030A3000030A200003058
:101CE200A1000030A000A217A3017F2E0030A300A4
:101CF2000030A2000030A1000030A000230822041E
:101D020021042004031D862E872EA02E0030A7005A
:101D12000030A6000030A5000030A4008030A604E8
:101D22007F30A7043108A8002808A7042708A300C9
:101D32002608A2002508A1002408A000FF2F3808C9
:101D4200031DA42EA52EAE2E0030A3000030A2004B
:101D52000030A1000030A000FF2F3808A800A90120
:101D62002908AB0039082802AA00031CAB032A0881
:101D72007F3EB2002B080318013E003EB300270845
:101D8200B0002608AF002508AE002408AD000030E0
:101D9200A7000030A6000030A5000030A4000030EB
:101DA200B7000030B6000030B5000030B400B90111
:101DB200242F39080319DE2EDF2EFF2E0130A80052
:101DC2000310AD0DAE0DAF0DB00DA80BE12E01301D
:101DD200A8000310A40DA50DA60DA70DA80BEA2EB1
:101DE200B71FF42EF52EF62E24140130A80003108E
:101DF200B40DB50DB60DB70DA80BF82E23083002A1
:101E0200031D0D2F22082F02031D0D2F21082E0264
:101E1200031D0D2F20082D02031C102F112F202F20
:101E220037172008AD022108031C210FAE02220839
:101E3200031C220FAF022308031C230FB002013040
:101E4200A8002808B9071A303902031C292F2A2FA3
:101E5200DA2E30082F042E042D040319312F322FCD
:101E6200512F3414512F0130A8000310A40DA50DD9
:101E7200A60DA70DA80B362FB71F402F412F422FBB
:101E820024140130A8000310B40DB50DB60DB70D22
:101E9200A80B442FFF30B2070318B30AFF30B30771
:101EA200A61F542F552F342FB901B71F592F5A2F60
:101EB200762FFF303405A800FF303505A900FF302A
:101EC2003605AA007F303705AB002B082A04290407
:101ED200280403196D2F6E2F712FB901B90A762FBD
:101EE200241C742F752F762F6E2F390803197A2F21
:101EF2007B2FAC2F0130A407003003180130A50757
:101F0200003003180130A607003003180130A7077C
:101F1200271C8C2F8D2FAC2F2408A8002508A90080
:101F22002608AA002708AB000130AC002B0DAB0C31
:101F3200AA0CA90CA80CAC0B972F2B08A7002A08F7
:101F4200A6002908A5002808A4000130B20703183A
:101F5200B30A0030B3073308803AFF0080307F02B3
:101F6200031DB52FFF303202031CB82FB92FC72F24
:101F7200FF3083120313B2000030B3000030A70019
:101F82000030A6000030A5000030A4008312031325
:101F92003308803AFF0080307F02031DD22F0130C8
:101FA20032020318D52FD62FE32F83120313B20167
:101FB200B3010030A7000030A6000030A5000030B9
:101FC200A400B101831203133208A8002808B80044
:101FD200381CEC2FED2FEF2FA617F32F7F30A80020
:101FE2002808A6053808A8000310280CA90029080B
:0E1FF200A7003108A8002808A704972E0800B1
:02400E00723FFF
:00000001FF
