:020000040000FA
:100000000A128A11CA2F00308A000408840A820763
:100010000034013402340334043405340634023429
:100020000C34053404340634063441345434443436
:10003000393433343634343433345834583458340F
:10004000583458343B340D340A3400345334493472
:100050004D3420344434653474346534633474343A
:100060006534643420342034203420340034533454
:1000700049344D3420346E346F3474342034663453
:100080006F3475346E3464342034203420340034BA
:100090004D346F34643475346C34653420344434F6
:1000A00065347434653463347434653464342034B2
:1000B000003449346E3463346F346D3469346E34D3
:1000C00067342034433461346C346C34213421344B
:1000D0002E34003450346C346134633469346E34FB
:1000E00067342034433461346C346C342E342E3411
:1000F0002E342E3400344D346F34643475346C3403
:10010000653420346E346F347434203466346F3484
:1001100075346E3464340034433461346C346C347C
:10012000203450346C3461346334653464342E3498
:100130002E342E342E340034533449344D34393473
:10014000303430342034263420345034493443346D
:1001500000342B344334503449344E343A34203450
:1001600052344534413444345934003441345434E5
:100170002B344334503449344E343F340D340A3434
:1001800000344E344F3420344334413452345234EA
:10019000493445345234003455346E346C34693447
:1001A0006E346B3400344534523452344F3452344C
:1001B0000034413454340D340A3400345234493458
:0C01C0004E34473400344F344B340034CC
:1008F8000134DB34A134CB34D634B934C434F000F9
:10090800831203130C1E892C8A2C842C70089900DE
:10091800080000300A128A11E8240A128A110130EC
:100928000A128A11E8240A128A1108008312031392
:10093800981C9F2CA02CA22C181218168C1EA52CC3
:10094800A62CA22C1A080800AE300A128A11022519
:100958000A128A110A128A116E260A128A11023A9A
:100968000319B72CB82CBA2C0310BB2C031408009D
:10097800D1300A128A1102250A128A110A128A1122
:100988006E260A128A11013A0319CB2CCC2CCE2CD4
:100998000310CF2C031408008316031307138717BB
:1009A80081309900181518128312031398178316AB
:1009B80003139816831203131816831603131813B8
:1009C8008312031318130800F3008312031308118A
:1009D80073080A128A1121250A128A118312031335
:1009E80088151A30F200F830F100F10BF92CF20BEF
:1009F800F92C00008312031388110800F200142D4B
:100A0800720884000A128A1103200A128A110A1233
:100A18008A1183240A128A110130F1007108F20741
:100A2800720884000A128A1103200A128A11003AF5
:100A3800031D1F2D202D042D0800F000701C252DEE
:100A4800262D2A2D8312031308162D2D8312031326
:100A58000812F01C302D312D332D8816342D8812B4
:100A6800701D372D382D3A2D08173B2D0813F01D12
:100A78003E2D3F2D412D8817422D88130800FB007D
:100A8800F901FA015A2D79087B0784000A128A11A4
:100A980003200A128A110A128A110F260A128A11D1
:100AA8000130F9070318FA0A0030FA0779087B07BA
:100AB80084000A128A1103200A128A11003A031DBF
:100AC800662D672D472D0800F7007703031D6D2D50
:100AD8006E2D912D74087F3EF5007508FA007A088E
:100AE800F50004300310F50CFF3E031D762D750844
:100AF800F6007608F8007A080F39F5007508F9004D
:100B080078080A128A11E8240A128A1179080A1246
:100B18008A11E8240A128A11B92D02307706031DBA
:100B2800962D972DB92D7408BF3EF5007508FA006B
:100B38007A08F50004300310F50CFF3E031D9F2DC5
:100B48007508F6007608F8007A080F39F500750878
:100B5800F90078080A128A11E8240A128A11790819
:100B68000A128A11E8240A128A11080000300A12AF
:100B78008A1121250A128A1103300A128A11E824DF
:100B88000A128A112130F5007630F400F40BCA2DD0
:100B9800F50BCA2D000003300A128A11E8240A1244
:100BA8008A114830F5006C30F400F40BD92DF50BA0
:100BB800D92D000003300A128A11E8240A128A117A
:100BC80002300A128A11E8240A128A1102300A1223
:100BD8008A11E8240A128A1108300A128A11E824B4
:100BE8000A128A1100300A128A11E8240A128A119C
:100BF8000C300A128A11E8240A128A1100300A12EB
:100C08008A11E8240A128A1106300A128A11E82485
:100C18000A128A110800F80078080F39F1007108E3
:100C2800F2007808F039F1007108F3008312031319
:100C380008157308F10004300310F10CFF3E031D82
:100C4800202E71080A128A1121250A128A1183128C
:100C5800031388153330F4008230F5000000FF30AC
:100C6800F4070318F50AFF30F5077508803AFF0006
:100C780080307F02031D422E01307402031C452E72
:100C8800462E322E83120313881172080A128A1113
:100C980021250A128A118312031388153330F600AE
:100CA8008230F7000000FF30F6070318F70AFF301C
:100CB800F7077708803AFF0080307F02031D662E11
:100CC80001307602031C692E6A2E562E83120313F6
:100CD80088110800263084000630FF008313800145
:100CE800840AFF0B722E20308400831203133B0802
:100CF8008000840A3C088000840A3D088000840A39
:100D08003E088000840A3F088000840A400880006A
:100D1800AE01AE0AE42E0A128A119A240A128A1126
:100D2800F000700883120313AC00AF012F08263EB1
:100D3800840083130008F0002F08203E8400000878
:100D4800700784000A128A1103200A128A112C06DD
:100D5800031DAF2EB02ED62E0130F0002F08263EF0
:100D68008400700880072F08073E84000A128A1141
:100D780003200A128A11F0002F08263E840000087A
:100D88007006031DC82EC92EDA2E2F08013E8400D6
:100D98000A128A1103200A128A11F0007008AD00A5
:100DA800AE01DA2E2F08263E840080010130F000C3
:100DB8007008AF0706302F02031CE32EE42E9A2E8C
:100DC8002E08031DE82EE92E8F2E2D080800831605
:100DD800031388010A128A11BA250A128A110A1203
:100DE8008A11D0240A128A11F401F40A01300A1275
:100DF8008A1168250A128A1194300A128A11432529
:100E08000A128A11F401F40A02300A128A116825BA
:100E18000A128A1173300A128A1143250A128A119A
:100E28000A128A11BC240A128A11031C1C2F1D2FB6
:100E3800062FF401F40A02300A128A1168250A12F0
:100E48008A1140300A128A1143250A128A11273062
:100E580083120313B2000D30B1002530B000B00B7F
:100E6800332FB10B332FB20B332F3A2FF401F40A7F
:100E780002300A128A1168250A128A112F300A12C2
:100E88008A1143250A128A110A128A11A8240A1201
:100E98008A11031C502F512F3A2FF401F40A023003
:100EA8000A128A1168250A128A111E300A128A113A
:100EB80043250A128A11273083120313B2000D301A
:100EC800B1002530B000B00B672FB10B672FB20B04
:100ED800672F6E2F0A128A118D240A128A110D307B
:100EE8000A128A1102250A128A11F401F40A013041
:100EF8000A128A1168250A128A1162300A128A11A6
:100F080043250A128A110A128A116E260A128A11B8
:100F1800013A031D902F912F732FF401F40A013029
:100F28000A128A1168250A128A1184300A128A1153
:100F380043250A128A11273083120313B2000D3099
:100F4800B1002530B000B00BA72FB10BA72FB20B03
:100F5800A72FAE2F0A128A116E260A128A11043A96
:100F6800031DB72FB82FAE2FF401F40A02300A126E
:100F78008A1168250A128A1151300A128A114325EA
:100F88000A128A11AE2F0A128A1100280A128A112F
:100F98007D240A128A11BB000A128A117E240A12C1
:100FA8008A11BC000A128A117F240A128A11BD0014
:100FB8000A128A1180240A128A11BE000A128A11A2
:100FC80081240A128A11BF000A128A1182240A1285
:100FD8008A11C0000A128A117C240A128A11FC00A4
:100FE800B301B401B501B601B701B801B901BA013D
:080FF80083010A128A11EB2E9D
:02400E003A3F37
:00000001FF
