:020000040000FA
:060000000A128A11EE2F26
:10000A0000300A128A15E1240A128A1101300A12F2
:10001A008A15E1240A128A110800F601F11F16282E
:10002A0017281E28F009F109F00A0319F10AF60146
:10003A00F60AF31F212822282B28F209F309F20ACB
:10004A000319F30A0130F4007408F606F701F801FF
:10005A00700871040319322833286A28F501F50A51
:10006A00412801300310F00DF10DFF3E031D372822
:10007A000130F4007408F507F11F44284528362892
:10008A0001300310F70DF80DFF3E031D46287108D5
:10009A007302031D522870087202031C5528562841
:1000AA005D287008F2027108031CF303F302771447
:1000BA0001300310F10CF00CFF3E031D5E280130E5
:1000CA00F502031D69286A284528760803196E284F
:1000DA006F287428F709F809F70A0319F80A780843
:1000EA00F1007708F00008008312031341088039F1
:1000FA00C2004208CB004108C2004207C3004308BD
:10010A00D200C01F89288A288B2852145208031942
:10011A008F289028A028520A031D942895289D28E4
:10012A000030C1000030C0000030BF000030BE0007
:10013A00C017C101A8280030C1000030C00000303B
:10014A00BF000030BE003D088039C2004208CB061D
:10015A003D08C2004207C3004308D300BC1FB628AB
:10016A00B728B828531453080319BC28BD28CD282A
:10017A00530A031DC128C228CA280030BD00003016
:10018A00BC000030BB000030BA00BC17BD01D52846
:10019A000030BD000030BC000030BB000030BA00A7
:1001AA003D083C043B043A04031DDC28DD28F628FC
:1001BA000030C1000030C0000030BF000030BE0077
:1001CA008030C0047F30C1044B08C2004208C10419
:1001DA004108BD004008BC003F08BB003E08BA0009
:1001EA00552A5208031DFA28FB2804290030BD00AD
:1001FA000030BC000030BB000030BA00552A52085B
:10020A00C200C3014308C50053084202C400031CCC
:10021A00C50344087F3ECC0045080318013E003E52
:10022A00CD004108CA004008C9003F08C8003E087E
:10023A00C7000030C1000030C0000030BF000030ED
:10024A00BE000030D1000030D0000030CF000030B6
:10025A00CE00D3017A29530803193429352955299F
:10026A000130C2000310C70DC80DC90DCA0DC20B5B
:10027A0037290130C2000310BE0DBF0DC00DC10DDC
:10028A00C20B4029D11F4A294B294C293E1401305F
:10029A00C2000310CE0DCF0DD00DD10DC20B4E29C9
:1002AA003D084A02031D63293C084902031D6329CC
:1002BA003B084802031D63293A084702031C6629C2
:1002CA006729762951173A08C7023B08031C3B0FD6
:1002DA00C8023C08031C3C0FC9023D08031C3D0F21
:1002EA00CA020130C2004208D3071A305302031C63
:1002FA007F29802930294A084904480447040319F8
:10030A0087298829A7294E14A7290130C20003107A
:10031A00BE0DBF0DC00DC10DC20B8C29D11F962970
:10032A00972998293E140130C2000310CE0DCF0D33
:10033A00D00DD10DC20B9A29FF30CC070318CD0A74
:10034A00FF30CD07C01FAA29AB298A29D301D11FA3
:10035A00AF29B029CC29FF304E05C200FF304F0526
:10036A00C300FF305005C4007F305105C500450861
:10037A004404430442040319C329C429C729D301E5
:10038A00D30ACC293E1CCA29CB29CC29C429530813
:10039A000319D029D129022A0130BE0700300318D7
:1003AA000130BF07003003180130C00700300318BE
:1003BA000130C107411CE229E329022A3E08C20092
:1003CA003F08C3004008C4004108C5000130C60008
:1003DA00450DC50CC40CC30CC20CC60BED2945084F
:1003EA00C1004408C0004308BF004208BE000130F3
:1003FA00CC070318CD0A0030CD074D08803AFF001C
:10040A0080307F02031D0B2AFF304C02031C0E2A88
:10041A000F2A1D2AFF3083120313CC000030CD00AF
:10042A000030C1000030C0000030BF000030BE0004
:10043A00831203134D08803AFF0080307F02031DA8
:10044A00282A01304C0203182B2A2C2A392A831213
:10045A000313CC01CD010030C1000030C0000030D0
:10046A00BF000030BE00CB01831203134C08C20048
:10047A004208D200521C422A432A452AC017492A56
:10048A007F30C2004208C0055208C2000310420C65
:10049A00C3004308C1004B08C2004208C104ED284A
:1004AA0008008316031388010614861006158611A0
:1004BA0020308312031390000A128A15BB250A12F0
:1004CA008A11F401F40A01300A128A1569250A12FE
:1004DA008A1101300A128A151D250A128A11F4019D
:1004EA00F40A02300A128A1569250A128A1113308F
:1004FA000A128A151D250A128A1133308312031330
:10050A00E100BB30E000DF30DF00DF0B8A2AE00BBE
:10051A008A2AE10B8A2A0A128A1105200A128A11EA
:10052A00831203138F018E0186140F308312031373
:10053A00DF00DF0B9E2AA12A831203138610061DF1
:10054A00A72AA82AA42A10140619AC2AAD2AA92A6D
:10055A0010100F08ED000E08EC006C08F0006D0892
:10056A00F1000030F11BFF30F200F30001300A12F3
:10057A008A1546270A128A11730883120313A700E1
:10058A007208A6007108A5007008A4003C30A300F8
:10059A00DE30A200D230A1008930A0000A128A11EE
:1005AA008D240A128A11831203132308C100220818
:1005BA00C0002108BF002008BE004030BD00003046
:1005CA00BC000030BB000030BA000A128A11792040
:1005DA000A128A11831203133D08D7003C08D60079
:1005EA003B08D5003A08D4000A128A15CA260A120C
:1005FA008A11831203135508E3005408E2006C08B9
:10060A00F0006D08F1000030F11BFF30F200F3003A
:10061A0001300A128A1546270A128A1173088312B0
:10062A000313A7007208A6007108A5007008A400A9
:10063A003F30A3004C30A200CC30A100CD30A00046
:10064A000A128A118D240A128A11831203132308AB
:10065A00D7002208D6002108D5002008D4000A12A3
:10066A008A15CA260A128A11831203135508ED0045
:10067A005408EC000A30F9000030FA00E830F000C3
:10068A000330F1006D08F3006C08F2000A128A11B7
:10069A0012200A128A117108FC007008FB000A1263
:1006AA008A1510260A128A11790883120313DF00A9
:1006BA005F08EB000A30F9000030FA00E830F00079
:1006CA000330F1006D08F3006C08F2000A128A1177
:1006DA0012200A128A117108FC007008FB000A1223
:1006EA008A1510260A128A11790883120313DF0069
:1006FA005F08EA000A30F9000030FA006430F000BE
:10070A000030F1006D08F3006C08F2000A128A1139
:10071A0012200A128A117108FC007008FB000A12E2
:10072A008A1510260A128A11790883120313DF0028
:10073A005F08E9000A30F9000030FA000A30F000D8
:10074A000030F1006D08F3006C08F2000A128A11F9
:10075A0012200A128A117108FC007008FB000A12A2
:10076A008A1510260A128A11790883120313DF00E8
:10077A005F08E8000A30F9000030FA006D08FC0052
:10078A006C08FB000A128A1510260A128A117908C7
:10079A0083120313DF005F08E7000A30F900003014
:1007AA00FA006430F0000030F1006308F3006208D8
:1007BA00F2000A128A1112200A128A117108FC0028
:1007CA007008FB000A128A1510260A128A11790883
:1007DA0083120313DF005F08E6000A30F9000030D5
:1007EA00FA000A30F0000030F1006308F3006208F2
:1007FA00F2000A128A1112200A128A117108FC00E8
:10080A007008FB000A128A1510260A128A11790842
:10081A0083120313DF005F08E5000A30F900003095
:10082A00FA006308FC006208FB000A128A15102607
:10083A000A128A11790883120313DF005F08E400A1
:10084A00F401F40A01300A128A1569250A128A117A
:10085A0023300A128A151D250A128A1183120313DC
:10086A006B08303E0A128A156B260A128A11831205
:10087A0003136A08303E0A128A156B260A128A1175
:10088A00831203136908303E0A128A156B260A126C
:10089A008A11831203136808303E0A128A156B26DE
:1008AA000A128A11831203136708303E0A128A1544
:1008BA006B260A128A11F401F40A02300A128A1506
:1008CA0069250A128A112F300A128A151D250A1261
:1008DA008A11831203136608303E0A128A156B26A0
:1008EA000A128A11831203136508303E0A128A1506
:1008FA006B260A128A11831203136408303E0A1205
:10090A008A156B260A128A11952A0A128A11002858
:10091A008312031323088039A8002808AD0023088E
:10092A00A8002807A9002908B300A21F9D2C9E2C05
:10093A009F2C331433080319A32CA42CB32C330A89
:10094A00031DA82CA92CB12C0030A3000030A20052
:10095A000030A1000030A000A217BB2C0030A30079
:10096A000030A2000030A1000030A0002708803922
:10097A00A8002808AD062708A8002807A900290802
:10098A00B200A61FC92CCA2CCB2C32143208031968
:10099A00CF2CD02CDF2C320A031DD42CD52CDD2CE5
:1009AA000030A7000030A6000030A5000030A400E7
:1009BA00A617E72C0030A7000030A6000030A500DB
:1009CA000030A40032080319EB2CEC2CF12C33086C
:1009DA00031DF02CF12CFA2C0030A3000030A200E9
:1009EA000030A1000030A000ED2F2008A800280840
:1009FA00F00026080A128A1542250A128A1171087D
:100A0A0083120313B9007008B8003808A800A901B6
:100A1A00AA01AB012B08B1002A08B0002908AF00CF
:100A2A002808AE003908A800A901AA01AB012B08C1
:100A3A00B7002A08B6002908B5002808B40021081A
:100A4A00A8002808F00025080A128A1542250A1269
:100A5A008A11710883120313B9007008B8003808A4
:100A6A00A800A901AA01AB012808AE0729080311A9
:100A7A000318013E0319422DAF072A080311031870
:100A8A00013E0319492DB0072B0803110318013E33
:100A9A000319502DB1073908A800A901AA01AB0111
:100AAA002808B407290803110318013E03195E2D0B
:100ABA00B5072A0803110318013E0319652DB60765
:100ACA002B0803110318013E03196C2DB7072208DE
:100ADA00A8002808F00024080A128A1542250A12DA
:100AEA008A11710883120313B9007008B800380814
:100AFA00A800A901AA01AB012808AE072908031119
:100B0A000318013E03198A2DAF072A080311031897
:100B1A00013E0319912DB0072B0803110318013E5A
:100B2A000319982DB1073908A800A901AA01AB0138
:100B3A002808B407290803110318013E0319A62D32
:100B4A00B5072A0803110318013E0319AD2DB6078C
:100B5A002B0803110318013E0319B42DB7070830F7
:100B6A00A8000310AE0DAF0DB00DB10DA80BB62D38
:100B7A002108A8002808F00024080A128A1542252C
:100B8A000A128A11710883120313B9007008B80097
:100B9A003808A8003908A900AA01AB012808AE073D
:100BAA00290803110318013E0319DC2DAF072A088F
:100BBA0003110318013E0319E32DB0072B08031193
:100BCA000318013E0319EA2DB1072008A8002808D6
:100BDA00F00025080A128A1542250A128A1171089C
:100BEA0083120313B9007008B8003808A80039083E
:100BFA00A900AA01AB012808AE07290803110318A6
:100C0A00013E0319092EAF072A0803110318013EF2
:100C1A000319102EB0072B0803110318013E0319FC
:100C2A00172EB1070830A8000310AE0DAF0DB00D96
:100C3A00B10DA80B192E2008A8002808F0002408D6
:100C4A000A128A1542250A128A117108831203139D
:100C5A00B9007008B8003808A8003908A900AA0124
:100C6A00AB012808AE07290803110318013E03192E
:100C7A003F2EAF072A0803110318013E0319462E17
:100C8A00B0072B0803110318013E03194D2EB107B3
:100C9A002108A8002808F00026080A128A15422509
:100CAA000A128A11710883120313B9007008B80076
:100CBA003808A8003908A900AA01AB012808B40716
:100CCA00290803110318013E03196C2EB5072A08D7
:100CDA0003110318013E0319732EB6072B080311DB
:100CEA000318013E03197A2EB7072208A80028081C
:100CFA00F00025080A128A1542250A128A1171087B
:100D0A0083120313B9007008B8003808A80039081C
:100D1A00A900AA01AB012808B4072908031103187E
:100D2A00013E0319992EB5072A0803110318013E3B
:100D3A000319A02EB6072B0803110318013E031945
:100D4A00A72EB7072208A8002808F00026080A12CA
:100D5A008A1542250A128A11710883120313B900EF
:100D6A007008B8003808A8003908A900AA01AB0120
:100D7A0008300310A80DA90DAA0DAB0DFF3E031DE7
:100D8A00BE2E2808B407290803110318013E0319C7
:100D9A00CF2EB5072A0803110318013E0319D62ED0
:100DAA00B6072B0803110318013E0319DD2EB707F6
:100DBA002E08A8002F08A9003008AA003108AB00A5
:100DCA0018300310AB0CAA0CA90CA80CFF3E031D8B
:100DDA00E62E2808B407290803110318013E03194F
:100DEA00F72EB5072A0803110318013E0319FE2E30
:100DFA00B6072B0803110318013E0319052FB7077D
:100E0A000830A8000310AE0DAF0DB00DB10DA80B40
:100E1A00072F33083207A800A901A90D2808823E26
:100E2A00B80029080318013EFF3EB900392F0130E6
:100E3A00A8000310B40DB50DB60DB70DA80B1E2FE3
:100E4A00B11F282F292F2A2F34140130A80003108C
:100E5A00AE0DAF0DB00DB10DA80B2C2FFF30B8079A
:100E6A000318B90AFF30B907B61F3C2F3D2F1C2FB4
:100E7A00B201B11F412F422F5E2FFF302E05A8006D
:100E8A00FF302F05A900FF303005AA007F30310559
:100E9A00AB002B082A04290428040319552F562FBE
:100EAA00592FB201B20A5E2F341C5C2F5D2F5E2FC0
:100EBA00562F32080319622F632F942F0130B4077B
:100ECA00003003180130B507003003180130B607A7
:100EDA00003003180130B707371C742F752F942F71
:100EEA003408A8003508A9003608AA003708AB005C
:100EFA000130AC002B0DAB0CAA0CA90CA80CAC0B46
:100F0A007F2F2B08B7002A08B6002908B500280841
:100F1A00B4000130B8070318B90A0030B907390814
:100F2A00803AFF0080307F02031D9D2FFF30380278
:100F3A00031CA02FA12FAC2F7F3083120313B700FD
:100F4A008030B6000030B5000030B400E12F8312C3
:100F5A0003133908803AFF0080307F02031DB72F40
:100F6A00013038020318BA2FBB2FC72F0030831263
:100F7A000313B7000030B6000030B5000030B400EB
:100F8A00AD01E12F831203133808A8002808B30023
:100F9A00FF30B405FF30B5057F30B6050030B70520
:100FAA00331CD82FD92FDA2FB6173308A80003100D
:100FBA00280CA9002908B7002D08A8002808B7049A
:100FCA003708A3003608A2003508A1003408A0009B
:100FDA00080083120313E201E301E401E501E601DB
:100FEA00E701E801E901EA01EB01EC01ED01830106
:100FFA000A128A11562A08308A000408840A8207CB
:10100A00003455346C3474347234613473346F344C
:10101A006E34693463342034733465346E34733413
:10102A006F34723400347734693474346834203459
:10103A00503449344334313436344634383437340E
:10104A00373441340034543469346D3465345F3490
:10105A00743461346B3465346E343A340034643435
:10106A0069347334743461346E34633465343A34B5
:02107A00003440
:1019C200F30083120313081173080A128A15FB2409
:1019D2000A128A158312031388151A30F200F8309E
:1019E200F100F10BF22CF20BF22C00008312031324
:1019F20088110800F000701CFF2C002D042D8312AA
:101A020003130816072D831203130812F01C0A2D64
:101A12000B2D0D2D88160E2D8812701D112D122DD5
:101A2200142D0817152D0813F01D182D192D1B2D17
:101A320088171C2D88130800FB00F901FA01342DC8
:101A420079087B0784000A128A1500200A128A1577
:101A52000A128A156B260A128A150130F907031831
:101A6200FA0A0030FA0779087B0784000A128A15FD
:101A720000200A128A15003A031D402D412D212D06
:101A82000800F800F401F5017008F200F301720891
:101A9200F6007308F700781C4F2D502D562D76084E
:101AA200F4070318F50A7708F50701300310F60D5D
:101AB200F70DFF3E031D572D0310F80C7808031D88
:101AC200632D642D4C2D7508F1007408F000080098
:101AD200F7007703031D6E2D6F2D922D74087F3E44
:101AE200F5007508FA007A08F50004300310F50CC9
:101AF200FF3E031D772D7508F6007608F8007A0878
:101B02000F39F5007508F90078080A128A15E124E0
:101B12000A128A1579080A128A15E1240A128A150C
:101B2200BA2D02307706031D972D982DBA2D740811
:101B3200BF3EF5007508FA007A08F500043003107C
:101B4200F50CFF3E031DA02D7508F6007608F8007F
:101B52007A080F39F5007508F90078080A128A1513
:101B6200E1240A128A1579080A128A15E1240A1256
:101B72008A15080000300A128A15FB240A128A15F7
:101B820003300A128A15E1240A128A152130F5005F
:101B92007630F400F40BCB2DF50BCB2D0000033087
:101BA2000A128A15E1240A128A154830F5006C30AF
:101BB200F400F40BDA2DF50BDA2D000003300A12D3
:101BC2008A15E1240A128A1502300A128A15E124C2
:101BD2000A128A1502300A128A15E1240A128A159B
:101BE20008300A128A15E1240A128A1500300A12F4
:101BF2008A15E1240A128A150C300A128A15E12488
:101C02000A128A1500300A128A15E1240A128A156C
:101C120006300A128A15E1240A128A150800831274
:101C22000313A101FC1F162E172E1E2EFB09FC0901
:101C3200FB0A0319FC0AA101A10AFA1F212E222E76
:101C4200272EF909FA09F90A0319FA0A79087A0416
:101C520003192C2E2D2E5C2EA001A00A3B2E013042
:101C62000310F90DFA0DFF3E031D312E0130FD0068
:101C72007D08A007FA1F3E2E3F2E302E7A087C02E6
:101C8200031D452E79087B02031C482E492E4F2E38
:101C92007908FB027A08031CFC03FC0201300310E2
:101CA200FA0CF90CFF3E031D502E0130A002031D59
:101CB2005B2E5C2E3F2E21080319602E612E662EAC
:101CC200FB09FC09FB0A0319FC0A7C08FA007B08E1
:101CD200F9000800F40074080F39F1007108F200ED
:101CE2007408F039F1007108F30083120313081528
:101CF2007308F10004300310F10CFF3E031D7C2E2B
:101D020071080A128A15FB240A128A158312031318
:101D120088153330F5008230F6000000FF30F507F9
:101D22000318F60AFF30F6077608803AFF00803083
:101D32007F02031D9E2E01307502031CA12EA22ECE
:101D42008E2E83120313881172080A128A15FB243D
:101D52000A128A158312031388153330F700823072
:101D6200F8000000FF30F7070318F80AFF30F80701
:101D72007808803AFF0080307F02031DC22E0130B6
:101D82007702031CC52EC62EB22E831203138811AE
:101D92000800031083120313560D570DD80058087C
:101DA200DE005E08031DD62ED72EE02E0030D700AF
:101DB2000030D6000030D5000030D400452F540842
:101DC200D8005508D9005608DA005708DB001F3042
:101DD2000310DB0CDA0CD90CD80CFF3E031DE92EE4
:101DE2005808DC005C08DD00D617FF30D405FF3050
:101DF200D505FF30D6050030D7059630DE02DE1F4E
:101E0200032F042F1E2F5E08803A973E03180A2FD5
:101E12000B2F0C2FD72E01300310D70CD60CD50C5C
:101E2200D40CFF3E031D0D2F0130D8005808DE07E9
:101E3200031D1C2F1D2F0C2F352F20305E02031C7B
:101E4200232F242F302FD72E0130D8000310D40D8A
:101E5200D50DD60DD70DD80B272F0130DE025E0827
:101E6200031D342F352F252F5D080319392F3A2FE3
:101E7200452FD409D509D609D709D40A0319D50A99
:101E82000319D60A0319D70A0800F80078080319BB
:101E92004B2F4C2F602FF31F4F2F502F602F7009A5
:101EA200FA007109FB007209FC007309FD00FA0ACD
:101EB2000319FB0A0319FC0A0319FD0A682F7308A8
:101EC200FD007208FC007108FB007008FA0073083C
:101ED200720471047004031D6F2F702F792F00306C
:101EE200F3000030F2000030F1000030F000FF2F6C
:101EF2009630F4007408F9008B2F0130F400740856
:101F0200F90701300310FD0CFC0CFB0CFA0CFF3E30
:101F1200031D832FFE307D05031D902F912F7E2FF1
:101F2200AD2F0130F4007408F9070130FA070030D0
:101F320003180130FB07003003180130FC070030A2
:101F420003180130FD0701300310FD0CFC0CFB0CE3
:101F5200FA0CFF3E031DA52FFF307D05031DB22F96
:101F6200B32F922FBF2F0130F9020130F40003107A
:101F7200FA0DFB0DFC0DFD0DF40BB82FFC1BC22F4F
:101F8200C32FC92F023079020318C82FC92FB42FCB
:101F92007918CC2FCD2FD52FFF30FA05FF30FB0556
:101FA2007F30FC05FF30FD050310F90C7908F400C1
:101FB200F501F601F70118300310F40DF50DF60DD9
:101FC200F70DFF3E031DDD2F7408FA047508FB04AC
:101FD2007608FC047708FD0478080319F12FF22F24
:101FE200F72FF31FF52FF62FF72FFD177D08F300BC
:0E1FF2007C08F2007B08F1007A08F00008007D
:02400E00723FFF
:00000001FF
