:020000040000FA
:060000000A128A11F62F1E
:10001800831203138F018E0186140F30831203138A
:10002800DF00DF0B15281828831203138610061D1E
:100038001E281F281B2810140619232824282028C6
:1000480010100F08E6000E08E5006508F0006608C5
:10005800F1000030F11BFF30F200F30001300A120A
:100068008A11F8200A128A11730883120313A70051
:100078007208A6007108A5007008A4003C30A3000F
:10008800DE30A200D230A1008930A0000A128A1105
:1000980095240A128A11831203132308C100220827
:1000A800C0002108BF002008BE004030BD0000305D
:1000B800BC000030BB000030BA000A128A11B82216
:1000C8000A128A11831203133D08D7003C08D60090
:1000D8003B08D5003A08D4000A128A117C200A127B
:1000E8008A11831203135508E4005408E30008003A
:1000F800031083120313560D570DD8005808DE005D
:100108005E08031D8828892892280030D70000300F
:10011800D6000030D5000030D400F7285408D800A5
:100128005508D9005608DA005708DB001F300310BD
:10013800DB0CDA0CD90CD80CFF3E031D9B285808A1
:10014800DC005C08DD00D617FF30D405FF30D5058C
:10015800FF30D6050030D7059630DE02DE1FB52801
:10016800B628D0285E08803A973E0318BC28BD28D8
:10017800BE28892801300310D70CD60CD50CD40C16
:10018800FF3E031DBF280130D8005808DE07031DB5
:10019800CE28CF28BE28E72820305E02031CD528A9
:1001A800D628E22889280130D8000310D40DD50DAF
:1001B800D60DD70DD80BD9280130DE025E08031DF5
:1001C800E628E728D7285D080319EB28EC28F72844
:1001D800D409D509D609D709D40A0319D50A0319A8
:1001E800D60A0319D70A0800F80078080319FD2869
:1001F800FE281229F31F0129022912297009FA0081
:100208007109FB007209FC007309FD00FA0A031961
:10021800FB0A0319FC0A0319FD0A1A297308FD00D1
:100228007208FC007108FB007008FA007308720479
:1002380071047004031D212922292B290030F300A1
:100248000030F2000030F1000030F000B1299630A3
:10025800F4007408F9003D290130F4007408F90726
:1002680001300310FD0CFC0CFB0CFA0CFF3E031DC7
:100278003529FE307D05031D4229432930295F2990
:100288000130F4007408F9070130FA070030031848
:100298000130FB07003003180130FC070030031859
:1002A8000130FD0701300310FD0CFC0CFB0CFA0CAF
:1002B800FF3E031D5729FF307D05031D642965296D
:1002C800442971290130F9020130F4000310FA0DB4
:1002D800FB0DFC0DFD0DF40B6A29FC1B7429752917
:1002E8007B290230790203187A297B296629791833
:1002F8007E297F298729FF30FA05FF30FB057F30EB
:10030800FC05FF30FD050310F90C7908F400F50130
:10031800F601F70118300310F40DF50DF60DF70D81
:10032800FF3E031D8F297408FA047508FB0476083C
:10033800FC047708FD0478080319A329A429A9292E
:10034800F31FA729A829A929FD177D08F3007C0810
:10035800F2007B08F1007A08F00008008316031306
:100368008801861006158611081588150712871248
:100378000713871320308312031390000A128A117F
:100388000C200A128A11831203136408803AFF00B2
:1003980080307F02031DD22906306302031CD52951
:1003A800D629DC2983120313071287160717871328
:1003B8000A128A110C200A128A11831203130819CF
:1003C800E629E729122A881DEA29EB29122A640856
:1003D800803AFF0080307F02031DF4290630630253
:1003E8000318F729F829122A0A128A15C5270A12AA
:1003F8008A118312031307168716071787130D3000
:1004080083120313E200AF30E100B530E000E00BE7
:100418000B2AE10B0B2AE20B0B2A122A0A128A1169
:100428000C200A128A1183120313081D1C2A1D2A84
:10043800482A8819202A212A482A6408803AFF0075
:1004480080307F02031D2A2A0630630203182D2AF2
:100458002E2A482A0A128A15C5270A128A118312D7
:10046800031307128716071787170D308312031314
:10047800E200AF30E100B530E000E00B412AE10BCB
:10048800412AE20B412A482A0A128A110C200A1230
:100498008A11831203130819522A532A7E2A8819AB
:1004A800562A572A7E2A6408803AFF0080307F0245
:1004B800031D602A063063020318632A642A7E2A11
:1004C8000A128A15C5270A128A1183120313071202
:1004D8008716071787170D3083120313E200AF3012
:1004E800E100B530E000E00B772AE10B772AE20B58
:1004F800772A7E2A0A128A110C200A128A1183127C
:100508000313081D882A892AC229881D8C2A8D2A46
:10051800C2296408803AFF0080307F02031D962AB2
:10052800063063020318992A9A2AC2290A128A15E0
:10053800C5270A128A118312031307168712071791
:1005480087171A3083120313E2005E30E1006D3022
:10055800E000E00BAD2AE10BAD2AE20BAD2AB42A8C
:10056800C2290A128A11002883120313410880390C
:10057800C2004208CB004108C2004207C30043083A
:10058800D200C01FC82AC92ACA2A521452080319FD
:10059800CE2ACF2ADF2A520A031DD32AD42ADC2ADC
:1005A8000030C1000030C0000030BF000030BE0085
:1005B800C017C101E72A0030C1000030C000003078
:1005C800BF000030BE003D088039C2004208CB069B
:1005D8003D08C2004207C3004308D300BC1FF52AE8
:1005E800F62AF72A531453080319FB2AFC2A0C2B62
:1005F800530A031D002B012B092B0030BD000030CE
:10060800BC000030BB000030BA00BC17BD01142B81
:100618000030BD000030BC000030BB000030BA0024
:100628003D083C043B043A04031D1B2B1C2B352BB3
:100638000030C1000030C0000030BF000030BE00F4
:100648008030C0047F30C1044B08C2004208C10496
:100658004108BD004008BC003F08BB003E08BA0086
:10066800942C5208031D392B3A2B432B0030BD0024
:100678000030BC000030BB000030BA00942C520897
:10068800C200C3014308C50053084202C400031C4A
:10069800C50344087F3ECC0045080318013E003ED0
:1006A800CD004108CA004008C9003F08C8003E08FC
:1006B800C7000030C1000030C0000030BF0000306B
:1006C800BE000030D1000030D0000030CF00003034
:1006D800CE00D301B92B53080319732B742B942B19
:1006E8000130C2000310C70DC80DC90DCA0DC20BD9
:1006F800762B0130C2000310BE0DBF0DC00DC10D19
:10070800C20B7F2BD11F892B8A2B8B2B3E140130D8
:10071800C2000310CE0DCF0DD00DD10DC20B8D2B05
:100728003D084A02031DA22B3C084902031DA22BC7
:100738003B084802031DA22B3A084702031CA52BBD
:10074800A62BB52B51173A08C7023B08031C3B0FD1
:10075800C8023C08031C3C0FC9023D08031C3D0F9E
:10076800CA020130C2004208D3071A305302031CE0
:10077800BE2BBF2B6F2B4A084904480447040319B2
:10078800C62BC72BE62B4E14E62B0130C2000310F4
:10079800BE0DBF0DC00DC10DC20BCB2BD11FD52B6C
:1007A800D62BD72B3E140130C2000310CE0DCF0D2F
:1007B800D00DD10DC20BD92BFF30CC070318CD0AB1
:1007C800FF30CD07C01FE92BEA2BC92BD301D11F5E
:1007D800EE2BEF2B0B2CFF304E05C200FF304F05E0
:1007E800C300FF305005C4007F305105C5004508DF
:1007F8004404430442040319022C032C062CD3019D
:10080800D30A0B2C3E1C092C0A2C0B2C032C530846
:1008180003190F2C102C412C0130BE07003003188F
:100828000130BF07003003180130C007003003183B
:100838000130C107411C212C222C412C3E08C2004A
:100848003F08C3004008C4004108C5000130C60085
:10085800450DC50CC40CC30CC20CC60B2C2C45088A
:10086800C1004408C0004308BF004208BE00013070
:10087800CC070318CD0A0030CD074D08803AFF0099
:1008880080307F02031D4A2CFF304C02031C4D2C84
:100898004E2C5C2CFF3083120313CC000030CD00AB
:1008A8000030C1000030C0000030BF000030BE0082
:1008B800831203134D08803AFF0080307F02031D26
:1008C800672C01304C0203186A2C6B2C782C83128D
:1008D8000313CC01CD010030C1000030C00000304E
:1008E800BF000030BE00CB01831203134C08C200C6
:1008F8004208D200521C812C822C842CC017882CD0
:100908007F30C2004208C0055208C2000310420CE2
:10091800C3004308C1004B08C2004208C1042C2B85
:1009280008008312031323088039A8002808AD00A3
:100938002308A8002807A9002908B300A21FA52C8E
:10094800A62CA72C331433080319AB2CAC2CBB2CC6
:10095800330A031DB02CB12CB92C0030A300003091
:10096800A2000030A1000030A000A217C32C003064
:10097800A3000030A2000030A1000030A00027082A
:100988008039A8002808AD062708A8002807A9006C
:100998002908B200A61FD12CD22CD32C321432082D
:1009A8000319D72CD82CE72C320A031DDC2CDD2C9C
:1009B800E52C0030A7000030A6000030A50000306C
:1009C800A400A617EF2C0030A7000030A6000030C6
:1009D800A5000030A40032080319F32CF42CF92CDC
:1009E8003308031DF82CF92C022D0030A300003029
:1009F800A2000030A1000030A000F52F2008A800B8
:100A08002808F00026080A128A15D9270A128A111E
:100A1800710883120313B9007008B8003808A800D9
:100A2800A901AA01AB012B08B1002A08B0002908C6
:100A3800AF002808AE003908A800A901AA01AB0137
:100A48002B08B7002A08B6002908B5002808B40002
:100A58002108A8002808F00025080A128A15D927B5
:100A68000A128A11710883120313B9007008B800BA
:100A78003808A800A901AA01AB012808AE0729086F
:100A880003110318013E03194A2DAF072A08031161
:100A98000318013E0319512DB0072B080311031841
:100AA800013E0319582DB1073908A800A901AA0168
:100AB800AB012808B407290803110318013E0319DC
:100AC800662DB5072A0803110318013E03196D2D79
:100AD800B6072B0803110318013E0319742DB70735
:100AE8002208A8002808F00024080A128A15D92725
:100AF8000A128A11710883120313B9007008B8002A
:100B08003808A800A901AA01AB012808AE072908DE
:100B180003110318013E0319922DAF072A08031188
:100B28000318013E0319992DB0072B080311031868
:100B3800013E0319A02DB1073908A800A901AA018F
:100B4800AB012808B407290803110318013E03194B
:100B5800AE2DB5072A0803110318013E0319B52D58
:100B6800B6072B0803110318013E0319BC2DB7075C
:100B78000830A8000310AE0DAF0DB00DB10DA80BD5
:100B8800BE2D2108A8002808F00024080A128A159A
:100B9800D9270A128A11710883120313B900700841
:100BA800B8003808A8003908A900AA01AB0128082C
:100BB800AE07290803110318013E0319E42DAF07F6
:100BC8002A0803110318013E0319EB2DB0072B085F
:100BD80003110318013E0319F22DB1072008A800DC
:100BE8002808F00025080A128A15D9270A128A113E
:100BF800710883120313B9007008B8003808A800F8
:100C08003908A900AA01AB012808AE072908031171
:100C18000318013E0319112EAF072A080311031800
:100C2800013E0319182EB0072B0803110318013EC3
:100C380003191F2EB1070830A8000310AE0DAF0D21
:100C4800B00DB10DA80B212E2008A8002808F0002F
:100C580024080A128A15D9270A128A1171088312E0
:100C68000313B9007008B8003808A8003908A900AB
:100C7800AA01AB012808AE07290803110318013E91
:100C88000319472EAF072A0803110318013E031959
:100C98004E2EB0072B0803110318013E0319552ED9
:100CA800B1072108A8002808F00026080A128A15AA
:100CB800D9270A128A11710883120313B900700820
:100CC800B8003808A8003908A900AA01AB0128080B
:100CD800B407290803110318013E0319742EB50738
:100CE8002A0803110318013E03197B2EB6072B08A7
:100CF80003110318013E0319822EB7072208A80022
:100D08002808F00025080A128A15D9270A128A111C
:100D1800710883120313B9007008B8003808A800D6
:100D28003908A900AA01AB012808B407290803114A
:100D38000318013E0319A12EB5072A080311031849
:100D4800013E0319A82EB6072B0803110318013E0C
:100D58000319AF2EB7072208A8002808F0002608B4
:100D68000A128A15D9270A128A11710883120313E5
:100D7800B9007008B8003808A8003908A900AA0105
:100D8800AB0108300310A80DA90DAA0DAB0DFF3E4D
:100D9800031DC62E2808B407290803110318013EAD
:100DA8000319D72EB5072A0803110318013E0319A2
:100DB800DE2EB6072B0803110318013E0319E52E92
:100DC800B7072E08A8002F08A9003008AA00310884
:100DD800AB0018300310AB0CAA0CA90CA80CFF3EF2
:100DE800031DEE2E2808B407290803110318013E35
:100DF8000319FF2EB5072A0803110318013E03192A
:100E0800062FB6072B0803110318013E03190D2FEF
:100E1800B7070830A8000310AE0DAF0DB00DB10D27
:100E2800A80B0F2F33083207A800A901A90D28081D
:100E3800823EB80029080318013EFF3EB900412F41
:100E48000130A8000310B40DB50DB60DB70DA80BF1
:100E5800262FB11F302F312F322F34140130A80024
:100E68000310AE0DAF0DB00DB10DA80B342FFF3030
:100E7800B8070318B90AFF30B907B61F442F452F22
:100E8800242FB201B11F492F4A2F662FFF302E059C
:100E9800A800FF302F05A900FF303005AA007F30D9
:100EA8003105AB002B082A042904280403195D2FF7
:100EB8005E2F612FB201B20A662F341C642F652F92
:100EC800662F5E2F320803196A2F6B2F9C2F013073
:100ED800B407003003180130B5070030031801309B
:100EE800B607003003180130B707371C7C2F7D2F59
:100EF8009C2F3408A8003508A9003608AA0037082E
:100F0800AB000130AC002B0DAB0CAA0CA90CA80C43
:100F1800AC0B872F2B08B7002A08B6002908B500A4
:100F28002808B4000130B8070318B90A0030B90717
:100F38003908803AFF0080307F02031DA52FFF305B
:100F48003802031CA82FA92FB42F7F308312031354
:100F5800B7008030B6000030B5000030B400E92F8B
:100F6800831203133908803AFF0080307F02031D83
:100F7800BF2F013038020318C22FC32FCF2F0030E4
:100F880083120313B7000030B6000030B5000030FC
:100F9800B400AD01E92F831203133808A80028080C
:100FA800B300FF30B405FF30B5057F30B60500301B
:100FB800B705331CE02FE12FE22FB6173308A8003E
:100FC8000310280CA9002908B7002D08A800280834
:100FD800B7043708A3003608A2003508A100340872
:100FE800A000080083120313E301E401E501E60110
:080FF80083010A128A11B229DB
:101F8A008312031307168712071387171A30F200F2
:101F9A005E30F1006E30F000F00BD12FF10BD12F33
:101FAA00F20BD12F00000800F800F401F5017008C7
:101FBA00F200F3017208F6007308F700781CE62FA6
:101FCA00E72FED2F7608F4070318F50A7708F507C7
:101FDA0001300310F60DF70DFF3E031DEE2F03101F
:101FEA00F80C7808031DFA2FFB2FE32F7508F10070
:061FFA007408F00008006D
:02400E00723FFF
:00000001FF
