:020000040000FA
:060000000A128A11FC2F18
:100F8800831603130815881507128712071387138A
:100F98008312081DD02FD12FDA2F881DD42FD52FDB
:100FA800DA2F0712871607178713CC2F0819DD2F9A
:100FB800DE2FE72F881DE12FE22FE72F0716871670
:100FC80007178713CC2F081DEA2FEB2FF42F88194A
:100FD800EE2FEF2FF42F0712871607178717CC2F3E
:100FE8000716871607178717CC2F0A128A110028A9
:080FF80083010A128A11C42FC3
:02400E00723FFF
:00000001FF
