:020000040000FA
:060000000A128A11E52F2F
:10000A00F800831203136C14061478080A128A156E
:10001A0017220A128A1108002C30F0000130F10070
:10002A000A168A11EA270A128A1130300A168A1128
:10003A00D5270A128A112C30F0000130F1000A1675
:10004A008A11EA270A128A1130300A168A11D5272C
:10005A000A128A112C30F0000130F1000A168A11B6
:10006A00EA270A128A1130300A168A11D5270A128B
:10007A008A112C30F0000130F1000A168A11EA27A1
:10008A000A128A1120300A168A11D5270A128A11F1
:10009A002C30F0000130F1000A168A11EA270A1200
:1000AA008A110C300A128A1517220A128A112C3068
:1000BA00F0000130F1000A168A11EA270A128A11A1
:1000CA0004300A128A1517220A128A112C30F000FB
:1000DA000130F1000A168A11EA270A128A118530BC
:1000EA000A128A1517220A128A112C30F0000130DE
:1000FA00F1000A168A11EA270A128A1106300A1230
:10010A008A1517220A128A112C30F0000130F100E8
:10011A000A168A11EA270A128A1101300A128A1566
:10012A0017220A128A112C30F0000130F1000A1647
:10013A008A11EA270A128A11080083120313230874
:10014A008039A8002808AD002308A8002807A900BC
:10015A002908B300A21FB228B328B42833143308DD
:10016A000319B828B928C828330A031DBD28BE2890
:10017A00C6280030A3000030A2000030A1000030E1
:10018A00A000A217D0280030A3000030A20000303F
:10019A00A1000030A00027088039A8002808AD0671
:1001AA002708A8002807A9002908B200A61FDE28E8
:1001BA00DF28E028321432080319E428E528F42855
:1001CA00320A031DE928EA28F2280030A700003085
:1001DA00A6000030A5000030A400A617FC280030B5
:1001EA00A7000030A6000030A5000030A4003208A5
:1001FA0003190029012906293308031D052906299F
:10020A000F290030A3000030A2000030A100003006
:10021A00A000022C2008A8002808F00026080A12CC
:10022A008A15CA200A128A11710883120313B900A7
:10023A007008B8003808A800A901AA01AB012B0868
:10024A00B1002A08B0002908AF002808AE00390812
:10025A00A800A901AA01AB012B08B7002A08B60019
:10026A002908B5002808B4002108A8002808F000C9
:10027A0025080A128A15CA200A128A1171088312DD
:10028A000313B9007008B8003808A800A901AA0128
:10029A00AB012808AE07290803110318013E031908
:1002AA005729AF072A0803110318013E03195E29CB
:1002BA00B0072B0803110318013E03196529B1077A
:1002CA003908A800A901AA01AB012808B40729081E
:1002DA0003110318013E03197329B5072A080311EC
:1002EA000318013E03197A29B6072B0803110318CC
:1002FA00013E03198129B7072208A8002808F0003F
:10030A0024080A128A15CA200A128A11710883124D
:10031A000313B9007008B8003808A800A901AA0197
:10032A00AB012808AE07290803110318013E031977
:10033A009F29AF072A0803110318013E0319A629AA
:10034A00B0072B0803110318013E0319AD29B107A1
:10035A003908A800A901AA01AB012808B40729088D
:10036A0003110318013E0319BB29B5072A08031113
:10037A000318013E0319C229B6072B0803110318F3
:10038A00013E0319C929B7070830A8000310AE0DAA
:10039A00AF0DB00DB10DA80BCB292108A800280874
:1003AA00F00024080A128A15CA200A128A11710852
:1003BA0083120313B9007008B8003808A800390876
:1003CA00A900AA01AB012808AE07290803110318DE
:1003DA00013E0319F129AF072A0803110318013E48
:1003EA000319F829B0072B0803110318013E031952
:1003FA00FF29B1072008A8002808F00025080A12DA
:10040A008A15CA200A128A11710883120313B900C5
:10041A007008B8003808A8003908A900AA01AB0179
:10042A002808AE07290803110318013E03191E2ADA
:10043A00AF072A0803110318013E0319252AB0073A
:10044A002B0803110318013E03192C2AB10708309F
:10045A00A8000310AE0DAF0DB00DB10DA80B2E2ADA
:10046A002008A8002808F00024080A128A15CA20C1
:10047A000A128A11710883120313B9007008B800AE
:10048A003808A8003908A900AA01AB012808AE0754
:10049A00290803110318013E0319542AAF072A0831
:1004AA0003110318013E03195B2AB0072B08031135
:1004BA000318013E0319622AB1072108A800280877
:1004CA00F00026080A128A15CA200A128A1171082F
:1004DA0083120313B9007008B8003808A800390855
:1004EA00A900AA01AB012808B407290803110318B7
:1004FA00013E0319812AB5072A0803110318013E90
:10050A000319882AB6072B0803110318013E031999
:10051A008F2AB7072208A8002808F00025080A121F
:10052A008A15CA200A128A11710883120313B900A4
:10053A007008B8003808A8003908A900AA01AB0158
:10054A002808B407290803110318013E0319AE2A23
:10055A00B5072A0803110318013E0319B52AB6077D
:10056A002B0803110318013E0319BC2AB7072208F6
:10057A00A8002808F00026080A128A15CA200A12BA
:10058A008A11710883120313B9007008B800380879
:10059A00A8003908A900AA01AB0108300310A80D68
:1005AA00A90DAA0DAB0DFF3E031DD32A2808B407D7
:1005BA00290803110318013E0319E42AB5072A087A
:1005CA0003110318013E0319EB2AB6072B0803117E
:1005DA000318013E0319F22AB7072E08A8002F08AC
:1005EA00A9003008AA003108AB0018300310AB0C80
:1005FA00AA0CA90CA80CFF3E031DFB2A2808B40765
:10060A00290803110318013E03190C2BB5072A0800
:10061A0003110318013E0319132BB6072B08031104
:10062A000318013E03191A2BB7070830A800031054
:10063A00AE0DAF0DB00DB10DA80B1C2B3308320750
:10064A00A800A901A90D2808823EB80029080318A4
:10065A00013EFF3EB9004E2B0130A8000310B40D35
:10066A00B50DB60DB70DA80B332BB11F3D2B3E2B85
:10067A003F2B34140130A8000310AE0DAF0DB00D9E
:10068A00B10DA80B412BFF30B8070318B90AFF3088
:10069A00B907B61F512B522B312BB201B11F562B62
:1006AA00572B732BFF302E05A800FF302F05A9000A
:1006BA00FF303005AA007F303105AB002B082A0431
:1006CA002904280403196A2B6B2B6E2BB201B20A78
:1006DA00732B341C712B722B732B6B2B320803195F
:1006EA00772B782BA92B0130B4070030031801307F
:1006FA00B507003003180130B6070030031801307F
:10070A00B707371C892B8A2BA92B3408A800350870
:10071A00A9003608AA003708AB000130AC002B0D3F
:10072A00AB0CAA0CA90CA80CAC0B942B2B08B70089
:10073A002A08B6002908B5002808B4000130B8070D
:10074A000318B90A0030B9073908803AFF00803027
:10075A007F02031DB22BFF303802031CB52BB62BC8
:10076A00C12B7F3083120313B7008030B6000030EC
:10077A00B5000030B400F62B831203133908803A0F
:10078A00FF0080307F02031DCC2B01303802031892
:10079A00CF2BD02BDC2B003083120313B700003091
:1007AA00B6000030B5000030B400AD01F62B83125C
:1007BA0003133808A8002808B300FF30B405FF3037
:1007CA00B5057F30B6050030B705331CED2BEE2B8F
:1007DA00EF2BB6173308A8000310280CA900290824
:1007EA00B7002D08A8002808B7043708A300360860
:1007FA00A2003508A1003408A0000800FF308316C3
:10080A000313880085018601003083120313DB007D
:10081A000030DA000030D9000030D8000A128A11FC
:10082A0011200A128A11312C80300A128A151722D5
:10083A000A128A1101300A128A15A5200A128A118F
:10084A00C0300A128A1517220A128A1124300A1293
:10085A008A15A5200A128A110A128A15F1200A128B
:10086A008A11003A031D3A2C3B2C192C13300A1218
:10087A008A15A5200A128A110A128A15F1200A126B
:10088A008A114E300A128A1594210A128A110030EE
:10089A000A128A1594210A128A1100300A128A153C
:1008AA0094210A128A117F300A128A1594210A1297
:1008BA008A110A128A15F1200A128A11CC300A12F8
:1008CA008A1594210A128A1144300A128A1594212F
:1008DA000A128A110A128A1524210A128A11FF3A67
:1008EA000319782C792C6F2C0D3083120313D30043
:1008FA00AF30D200B530D100D10B812CD20B812C74
:10090A00D30B812C882C0A128A15F1200A128A111B
:10091A00CC300A128A1594210A128A11BE300A12A0
:10092A008A1594210A128A110A128A1524210A1296
:10093A008A1183120313D100D2015108DC00520834
:10094A00DD000A128A1524210A128A11831203135E
:10095A00D100D2015108DE005208DF00DE1FB62C9A
:10096A00B72C822E5F08E3005E08E200083003100D
:10097A00E20DE30DFF3E031DBC2C5C086204E2009D
:10098A005D086304E3006208FF3EE200630803189F
:10099A00013EFF3EE300E209E30904300310E30CE1
:1009AA00E20CFF3E031DD32C6308F1006208F0003D
:1009BA006430F2000030F3000A128A1580200A120D
:1009CA008A11710883120313E3007008E2005D08BC
:1009DA00E1005C08E0006008FF3EE00061080318DF
:1009EA00013EFF3EE100E009E1090F306005E00049
:1009FA0000306105E1006008F0006108F100F201D1
:100A0A00F30100300A128A1584230A128A11730824
:100A1A0083120313A7007208A6007108A5007008C4
:100A2A00A4004030A300C830A2000030A10000306A
:100A3A00A0000A128A11A2200A128A118312031331
:100A4A002308BD002208BC002108BB002008BA0008
:100A5A000A128A1566220A128A11831203133B08A4
:100A6A00E1003A08E00060086207F0006108031834
:100A7A00610A6307F100F201F30100300A128A15D4
:100A8A0084230A128A11730883120313E700720877
:100A9A00E6007108E5007008E400831603132D08C8
:100AAA0083120313EB00831603132C088312031318
:100ABA00EA00831603132B0883120313E900831633
:100ACA0003132A0883120313E8006708AB006608B9
:100ADA00AA006508A9006408A8006B08AF006A08A4
:100AEA00AE006908AD006808AC000A128A155C20DD
:100AFA000A128A11831203132B08D7002A08D60078
:100B0A002908D5002808D4006B08AB006A08AA0097
:100B1A006908A9006808A8006708AF006608AE005F
:100B2A006508AD006408AC000A128A155C200A1236
:100B3A008A11831203132B08DB002A08DA0029081A
:100B4A00D9002808D8004130F300A030F200003064
:100B5A00F1000030F0005708F7005608F600550873
:100B6A00F5005408F4000A128A15E2220A128A11C0
:100B7A00031CC02DC12DDC2D4130F300A030F20042
:100B8A000030F1000030F000831203135B08F70015
:100B9A005A08F6005908F5005808F4000A128A158E
:100BAA00E2220A128A110318DB2DDC2D422E83124F
:100BBA000313670883160313AD0083120313660831
:100BCA0083160313AC0083120313650883160313F9
:100BDA00AB0083120313640883160313AA00803040
:100BEA000A128A1517220A128A1135300A128A1530
:100BFA00A5200A128A11C0300A128A1517220A126F
:100C0A008A114A300A128A15A5200A128A118316F5
:100C1A0003132D0883120313BD00831603132C0834
:100C2A0083120313BC00831603132B0883120313C6
:100C3A00BB00831603132A0883120313BA000A128D
:100C4A008A1566220A128A11831203133B08C60008
:100C5A003A08C50005300A128A153E240A128A117A
:100C6A00DF300A128A1105200A128A1144300A1248
:100C7A008A15A5200A128A11182C80300A128A15A0
:100C8A0017220A128A1135300A128A15A5200A1269
:100C9A008A11C0300A128A1517220A128A114A309A
:100CAA000A128A15A5200A128A11831203136B08E5
:100CBA00BD006A08BC006908BB006808BA000A12CD
:100CCA008A1566220A128A11831203133B08C60088
:100CDA003A08C50005300A128A153E240A128A11FA
:100CEA00DF300A128A1105200A128A1144300A12C8
:100CFA008A15A5200A128A11182C5E08D200D10181
:100D0A005C085107F0005D0803185D0A5207F100FC
:100D1A00F201F30100300A128A1584230A128A1199
:100D2A00730883120313E7007208E6007108E500EE
:100D3A007008E4004030A300C830A2000030A100CF
:100D4A000030A0006708A7006608A6006508A5008D
:100D5A006408A4000A128A11A2200A128A118312B4
:100D6A0003132308E7002208E6002108E50020080B
:100D7A00E400831603132D0883120313EB00831672
:100D8A0003132C0883120313EA00831603132B0898
:100D9A0083120313E900831603132A088312031329
:100DAA00E8006708AB006608AA006508A90064089D
:100DBA00A8006B08AF006A08AE006908AD006808B1
:100DCA00AC000A128A155C200A128A1183120313D4
:100DDA002B08D7002A08D6002908D5002808D400ED
:100DEA006B08AB006A08AA006908A9006808A8008D
:100DFA006708AF006608AE006508AD006408AC007D
:100E0A000A128A155C200A128A11831203132B080C
:100E1A00DB002A08DA002908D9002808D80041305E
:100E2A00F300A030F2000030F1000030F000570863
:100E3A00F7005608F6005508F5005408F4000A129F
:100E4A008A15E2220A128A11031C2C2F2D2F482FF1
:100E5A004130F300A030F2000030F1000030F00021
:100E6A00831203135B08F7005A08F6005908F500C5
:100E7A005808F4000A128A15E2220A128A11031883
:100E8A00472F482FA82F83120313670883160313CB
:100E9A00AD0083120313660883160313AC00831292
:100EAA000313650883160313AB0083120313640844
:100EBA0083160313AA0080300A128A1517220A120F
:100ECA008A1135300A128A15A5200A128A11C030F1
:100EDA000A128A1517220A128A11831603132D0879
:100EEA0083120313BD00831603132C088312031302
:100EFA00BC00831603132B0883120313BB0083164B
:100F0A0003132A0883120313BA000A128A156622E7
:100F1A000A128A11831203133B08C6003A08C50055
:100F2A0005300A128A153E240A128A11DF300A1283
:100F3A008A1105200A128A1144300A128A15A5203C
:100F4A000A128A11182C80300A128A1517220A12DC
:100F5A008A1135300A128A15A5200A128A11C03060
:100F6A000A128A1517220A128A11831203136B08AE
:100F7A00BD006A08BC006908BB006808BA000A120A
:100F8A008A1566220A128A11831203133B08C600C5
:100F9A003A08C50005300A128A153E240A128A1137
:100FAA00DF300A128A1105200A128A1144300A1205
:100FBA008A15A5200A128A11182C0A128A110028E9
:100FCA0083120313EC01E801E901EA01EB0183163C
:100FDA000313A001A101A201A301A401A501A60175
:100FEA00A701A801A901AA01AB01AC01AD018301C6
:100FFA000A128A11032C08308A000408840A82071C
:10100A00003450346C3465346134733465342034BC
:10101A0043346F346E346E3465346334743420343C
:10102A002034203400342034203420342034203436
:10103A002034203420342034203420342034203406
:10104A002034203420340034543465346D34703400
:10105A002D34533465346E3473346534203450344B
:10106A0072346F3462346534003443346934723410
:10107A0063347534693474342034443469346734DD
:10108A0065347334743400344334203420342034C7
:08109A00203400342D34003431
:1010B800803083120313AB062F08F3002E08F200CA
:1010C8002D08F1002C08F0002B08F7002A08F6007C
:1010D8002908F5002808F4000A128A1568250A125A
:1010E8008A15730883120313AB007208AA007108EB
:1010F800A9007008A8000800F401F501701C8528F3
:1011080086288C287208F4070318F50A7308F5076F
:1011180001300310F20DF30DFF3E031D8D28013041
:101128000310F10CF00CFF3E031D942870087104A5
:10113800031D9F28A02882287508F1007408F00074
:101148000800FB00F901FA01BC2879087B07840034
:101158000A128A1500200A128A150A128A11052015
:101168000A128A150130F9070318FA0A0030FA073B
:1011780079087B0784000A128A1500200A128A154A
:10118800003A031DC828C928A9280800F800F40156
:10119800F5017008F200F3017208F6007308F70011
:1011A800781CD728D828DE287608F4070318F50A0B
:1011B8007708F50701300310F60DF70DFF3E031D04
:1011C800DF280310F80C7808031DEB28EC28D42836
:1011D8007508F1007408F00008008316031308135B
:1011E8008312031308130430F1001C30F000F00BD5
:1011F800FB28F10BFB280000831603130817633044
:10120800F000F00B0529082983120313081B0D2988
:101218000E2919290430F1001C30F000F00B1229B6
:10122800F10B12290000003023290430F1001C3092
:10123800F000F00B1D29F10B1D29000001300800FA
:10124800F201831603130817F30183160313081317
:101258008312031308130330F000F00B31298316AF
:101268000313081783120313081F3B293C29492934
:101278000130F000730A42290310F00DFF3E031DF0
:1012880040297008F1007108F2046330F000F00B97
:101298004B294E290130F0007008F307083073021B
:1012A800031C572958292929720808007008710455
:1012B80003195F2960298F29F501F50A6E29013084
:1012C8000310F00DF10DFF3E031D64290130F400F9
:1012D8007408F507F11F71297229632971087302CF
:1012E800031D782970087202031C7B297C29822936
:1012F8007008F2027108031CF303F30201300310B3
:10130800F10CF00CFF3E031D83290130F502031D8B
:101318008E298F2972297308F1007208F0000800DD
:10132800F100831603130817F2010130F000720A66
:101338009F290310F00DFF3E031D9D2970087105BC
:101348000319A729A829BA29831603130813831296
:1013580003130813AF29B0290000831603130817D5
:101368006330F000F00BB629B929C8298316031396
:1013780008138312031308136330F000F00BC2291B
:10138800C5298316031308170130F0007008F20707
:1013980008307202031CD129D22999290800F501C5
:1013A800F601700871040319DA29DB29122AF701FA
:1013B800F70AE92901300310F00DF10DFF3E031D76
:1013C800DF290130F4007408F707F11FEC29ED2933
:1013D800DE2901300310F50DF60DFF3E031DEE2941
:1013E80071087302031DFA2970087202031CFD2993
:1013F800FE29052A7008F2027108031CF303F302A0
:10140800751401300310F10CF00CFF3E031D062A81
:101418000130F702031D112A122AED297608F1007E
:101428007508F0000800F600831203136C1C1D2ACF
:101438001E2A202A6C10212A061086107608F4002D
:101448007408F700F030F4007408F7050F30F40062
:10145800740886057708F4007408860406152C308D
:10146800F0000130F1000A168A11EA270A128A15DB
:101478008312031306117608F40003300310F40DE9
:10148800FF3E031D422A0310740DF5007508F7008E
:10149800F030F4007408F7050F30F400740886057E
:1014A8007708F4007408860406152C30F000013023
:1014B800F1000A168A11EA270A128A158312031301
:1014C800061108000310831203133C0D3D0DBE00E6
:1014D8003E08C4004408031D722A732A7C2A00307F
:1014E800BD000030BC000030BB000030BA00E12A6B
:1014F8003A08BE003B08BF003C08C0003D08C100D8
:101508001F300310C10CC00CBF0CBE0CFF3E031DE6
:10151800852A3E08C2004208C300BC17FF30BA053E
:10152800FF30BB05FF30BC050030BD059630C40256
:10153800C41F9F2AA02ABA2A4408803A973E031853
:10154800A62AA72AA82A732A01300310BD0CBC0CAE
:10155800BB0CBA0CFF3E031DA92A0130BE003E0891
:10156800C407031DB82AB92AA82AD12A2030440260
:10157800031CBF2AC02ACC2A732A0130BE000310DC
:10158800BA0DBB0DBC0DBD0DBE0BC32A0130C40284
:101598004408031DD02AD12AC12A43080319D52A91
:1015A800D62AE12ABA09BB09BC09BD09BA0A031936
:1015B800BB0A0319BC0A0319BD0A080000307005EC
:1015C800F80000307105F90080307205FA007F30AC
:1015D8007305FB007B087A0479047804031DF52A57
:1015E800F62AFE2A0030F3000030F2000030F10045
:1015F8000030F00000307405F80000307505F9007F
:1016080080307605FA007F307705FB007B087A0486
:1016180079047804031D112B122B1A2B0030F700C4
:101628000030F6000030F5000030F400F31F1D2BE9
:101638001E2B422B0030F8000030F9000030FA0071
:101648008030FB007008F8027108031C710F2D2B05
:101658002E2BF9027208031C720F332B342BFA025B
:101668007308031C730F392B3A2BFB027B08F3001A
:101678007A08F2007908F1007808F000F71F452B86
:10168800462B6A2B0030F8000030F9000030FA00D1
:101698008030FB007408F8027508031C750F552B81
:1016A800562BF9027608031C760F5B2B5C2BFA028B
:1016B8007708031C770F612B622BFB027B08F7006E
:1016C8007A08F6007908F5007808F4008030F30607
:1016D8008030F70677087302031D7C2B76087202A8
:1016E800031D7C2B75087102031D7C2B7408700286
:1016F80003187F2B802B822B0310832B03140800E5
:10170800F80078080319892B8A2B9E2BF31F8D2B41
:101718008E2B9E2B7009FA007109FB007209FC00E0
:101728007309FD00FA0A0319FB0A0319FC0A0319D5
:10173800FD0AA62B7308FD007208FC007108FB0067
:101748007008FA007308720471047004031DAD2B4D
:10175800AE2BB72B0030F3000030F2000030F10060
:101768000030F0003D2C9630F4007408F900C92BC5
:101778000130F4007408F90701300310FD0CFC0C6B
:10178800FB0CFA0CFF3E031DC12BFE307D05031D2B
:10179800CE2BCF2BBC2BEB2B0130F4007408F907B0
:1017A8000130FA07003003180130FB070030031836
:1017B8000130FC07003003180130FD070130031029
:1017C800FD0CFC0CFB0CFA0CFF3E031DE32BFF3059
:1017D8007D05031DF02BF12BD02BFD2B0130F902D9
:1017E8000130F4000310FA0DFB0DFC0DFD0DF40B98
:1017F800F62BFC1B002C012C072C02307902031855
:10180800062C072CF22B79180A2C0B2C132CFF30E2
:10181800FA05FF30FB057F30FC05FF30FD0503109E
:10182800F90C7908F400F501F601F70118300310F6
:10183800F40DF50DF60DF70DFF3E031D1B2C740876
:10184800FA047508FB047608FC047708FD04780898
:1018580003192F2C302C352CF31F332C342C352C1A
:10186800FD177D08F3007C08F2007B08F1007A0878
:10187800F0000800473084000A30FF00831380011D
:10188800840AFF0B422C1030F0002730F10083123D
:1018980003134608F3004508F2000A128A15D321FB
:1018A8000A128A15710883120313D0007008CF003A
:1018B8001030F0002730F1004608F3004508F20028
:1018C8000A128A155A210A128A15710883120313FB
:1018D800CE007008CD00E830F0000330F1004E086B
:1018E800F3004D08F2000A128A155A210A128A15C5
:1018F800710883120313CC007008CB00E830F000A5
:101908000330F1004E08F3004D08F2000A128A1560
:10191800D3210A128A15710883120313CE007008A6
:10192800CD006430F0000030F1004C08F3004B08A3
:10193800F2000A128A155A210A128A1571088312AE
:101948000313CA007008C9006430F0000030F100C9
:101958004C08F3004B08F2000A128A15D3210A1228
:101968008A15710883120313CC007008CB000A3063
:10197800F0000030F1004A08F3004908F2000A12AA
:101988008A155A210A128A15710883120313C8008E
:101998007008C7000A30F0000030F1004A08F30070
:1019A8004908F2000A128A15D3210A128A15710809
:1019B80083120313CA007008C9004F085004031D9E
:1019C800E62CE72C362D4D084E04031DEC2CED2C8F
:1019D8000D2D4B08303E0A128A1105200A128A156D
:1019E8002E300A128A1105200A128A15831203134F
:1019F8004908303E0A128A1105200A128A158312F4
:101A080003134708303E0A128A1105200A128A1564
:101A1800672D4D08303E0A128A1105200A128A15D0
:101A2800831203134B08303E0A128A1105200A124A
:101A38008A152E300A128A1105200A128A15831275
:101A480003134908303E0A128A1105200A128A1522
:101A5800831203134708303E0A128A1105200A121E
:101A68008A15672D4F08303E0A128A1105200A127E
:101A78008A15831203134D08303E0A128A11052075
:101A88000A128A15831203134B08303E0A128A1170
:101A980005200A128A152E300A128A1105200A1208
:101AA8008A15831203134908303E0A128A11052049
:101AB8000A128A15831203134708303E0A128A1144
:101AC80005200A128A150800730880398312031347
:101AD800A0002008F8007308A0002007A100210832
:101AE800FA00F21F782D792D7A2D7A147A080319C5
:101AF8007E2D7F2D8F2D7A0A031D832D842D8C2D0D
:101B08000030F3000030F2000030F1000030F00047
:101B1800F217F301972D0030F3000030F200003087
:101B2800F1000030F00077088039A0002008F900A3
:101B3800790878060319A12DA22DA32D7817770807
:101B4800A0002007A1002108F900F61FAC2DAD2D3B
:101B5800AE2D791479080319B22DB32DC32D790A46
:101B6800031DB72DB82DC02D0030F7000030F6004A
:101B78000030F5000030F400F617F701CB2D0030E7
:101B8800F7000030F6000030F5000030F4007A0865
:101B980079020318D02DD12D152E781FD42DD52DCF
:101BA800D92D8030A0002008F8067A08A000200867
:101BB800FB007908A0002008FA007B08A000200894
:101BC800F9007008A0002008FB007408A000200895
:101BD800F0007B08A0002008F4007108A00020088D
:101BE800FB007508A0002008F1007B08A000200871
:101BF800F5007208A0002008FB007608A000200865
:101C0800F2007B08A0002008F6007308A000200856
:101C1800FB007708A0002008F3007B08A00020083C
:101C2800F700FB017908A000A1012108A3007A08A8
:101C38002002A200031CA3032308803AFF0080307F
:101C48007F02031D292E1A302202031C2C2E2D2E52
:101C58006E2E7308720471047004031D342E362E20
:101C68000130372E003083120313A0002008FB0038
:101C78000030F3000030F2000030F1000030F000D6
:101C88007908A0002008FA00742E7B1C4C2E4D2EDB
:101C9800582E7B0883120313A0000310200C013870
:101CA800A1002108FB005A2E0310FB0C701C5D2EAE
:101CB8005E2E5F2EFB17013083120313A000730DF5
:101CC800F30CF20CF10CF00CA00B632E0130A00009
:101CD8002008FA0779087A02031C732E742E492EFD
:101CE800781B772E782EC72E7A08031D7C2E7D2E22
:101CF800862E0030F3000030F2000030F100003092
:101D0800F000FF2F7408F007750803110318013E4F
:101D180003198F2EF107760803110318013E0319E2
:101D2800962EF207770803110318013E03199D2E1A
:101D3800F307731CA02EA12E7F2F7B1CA42EA52E8B
:101D4800B02E7B0883120313A0000310200C013867
:101D5800A1002108FB00B22E0310FB0C701CB52E4D
:101D6800B62EB72EFB17013083120313A000730D94
:101D7800F30CF20CF10CF00CA00BBB2E0130A00000
:101D88002008FA077F2F7308803AFF007708803A07
:101D98007F02031DD92E76087202031DD92E7508FD
:101DA8007102031DD92E740870020318DC2EDD2E73
:101DB800372FFF3083120313A000FF30A100FF303C
:101DC800A200FF30A3007408A4007508A5007608D7
:101DD800A6007708A7007008A4027108031C710FF9
:101DE800F62EF72EA5027208031C720FFC2EFD2E8C
:101DF800A6027308031C730F022F032FA7022408DF
:101E0800A00725080318250F0A2F0B2FA10726085E
:101E18000318260F102F112FA20727080318270AC7
:101E2800A3072308F3002208F2002108F100200884
:101E3800F0008030A0002008F806FB09FB0A7B08A8
:101E4800031D272F282F452F0130F00700300318D6
:101E58000130F107003003180130F2070030031891
:101E68000130F307452F7408F0027508031C750F3D
:101E7800F1027608031C760FF2027708031C770F2D
:101E8800F3027308720471047004031D4C2F4D2F64
:101E98007B2F7B08031D512F522F7B2F0030F3001F
:101EA8000030F2000030F1000030F000FF2F013068
:101EB80083120313A0000310F00DF10DF20DF30DC2
:101EC800A00B5F2FFB1F692F6A2F6B2F70147B1CD1
:101ED8006E2F6F2F722F0314FB0D742F0310FB0D41
:101EE8007A080319782F792F7B2F0130FA02F21F15
:101EF8007E2F7F2F5B2FF901FB1F832F842F922FBB
:101F08007B087F390319892F8A2F8D2FF901F90A48
:101F1800922F701C902F912F922F8A2F79080319D6
:101F2800962F972FCD2F0130F0070030031801307E
:101F3800F107003003180130F207003003180130B0
:101F4800F307731CA82FA92FCD2F70088312031332
:101F5800A0007108A1007208A2007308A300013054
:101F6800A400230DA30CA20CA10CA00CA40BB52F4C
:101F78002308F3002208F2002108F1002008F000ED
:101F88007A0A0319C82FC92FCD2F0130A0002008C5
:101F9800FA077A0A0319D12FD22FD72F7A08031DEF
:101FA800D62FD72FE52F0030F3000030F200003095
:101FB800F1000030F0007A08031DE32FE42FE52F2D
:101FC800F8017A1CE82FE92FEB2FF217F12F7F3059
:101FD80083120313A0002008F2057A088312031362
:101FE800A0000310200CA1002108F300F81FFD2F0A
:081FF800FE2FFF2FF317080074
:102FAA00F4008312031306108610740886000615AF
:102FBA002C30F0000130F1000A168A11EA270A16AD
:102FCA008A118312031306110800F201F301F201B8
:102FDA00F301F52F0130F2070318F30A0030F30763
:102FEA0071087302031DFB2F70087202031CFE2F67
:062FFA00FF2FEF2F08007D
:02400E007A3FF7
:00000001FF
