:020000040000FA
:100000000A128A11F82FFF1B0D2883137F188317FC
:100010000008840A0319FF0A080000308A00040857
:10002000840A82070034433469347234633475348B
:100030006934743420344434693467346534733437
:0E00400074340034493444343A3420340034EB
:100C6A00831203138C1E3A2E3B2E352E1A080800C7
:100C7A008316031386010A128A1167270A128A1138
:100C8A000A128A115A260A128A110800F80001303B
:100C9A0083120313AE000030AF00061478080A125C
:100CAA008A1115270A128A11080080308316031345
:100CBA0087002030980090308312031398001F3069
:100CCA008316031399008312031318160800F400FD
:100CDA0083120313061086107408860006152C303A
:100CEA00F0000130F1000A128A1181260A128A11D3
:100CFA008312031306110800F201F301F201F30152
:100D0A008C2E0130F2070318F30A0030F30771083A
:100D1A007302031D922E70087202031C952E962EE2
:100D2A00862E0800FB01FC01B12E7B08790784009E
:100D3A007A0803187A0AFF000A128A1103200A1293
:100D4A008A110A128A114B260A128A110130FB07EC
:100D5A000318FC0A0030FC077B08790784007A082C
:100D6A0003187A0A83120313FF000A128A11032056
:100D7A000A128A11003A031DC32EC42E9A2E0800A5
:100D8A000A128A113D260A128A1180300A128A1121
:100D9A0015270A128A110130F9008030FA000A1266
:100DAA008A1197260A128A1183120313AD012D089C
:100DBA00203E8400831380010A128A1135260A1202
:100DCA008A11FD00831203132D08203E84007D083A
:100DDA00831380000130FD007D08AD070C302D0221
:100DEA00031CF82EF92EDC2EA8300A128A111527B8
:100DFA000A128A111030F9008030FA000A128A1198
:100E0A0097260A128A112030F9000030FA000A12D5
:100E1A008A1197260A128A11D92E0A128A110028D3
:100E2A00F600831203132E082F0403191D2F1E2FF9
:100E3A00212FAE01AF01222F061086107608F4008A
:100E4A007408F700F030F4007408F7050F30F40066
:100E5A00740886057708F4007408860406152C3091
:100E6A00F0000130F1000A128A1181260A128A1151
:100E7A008312031306117608F40003300310F40DED
:100E8A00FF3E031D432F0310740DF5007508F7008C
:100E9A00F030F4007408F7050F30F4007408860582
:100EAA007708F4007408860406152C30F000013027
:100EBA00F1000A128A1181260A128A118312031377
:100ECA00061108002C30F0000130F1000A128A11D4
:100EDA0081260A128A1130300A128A116C260A12E5
:100EEA008A112C30F0000130F1000A128A11812691
:100EFA000A128A1130300A128A116C260A128A11D1
:100F0A002C30F0000130F1000A128A1181260A12EF
:100F1A008A1130300A128A116C260A128A112C3070
:100F2A00F0000130F1000A128A1181260A128A1190
:100F3A0020300A128A116C260A128A112C30F0000B
:100F4A000130F1000A128A1181260A128A110C3024
:100F5A000A128A1115270A128A112C30F000013060
:100F6A00F1000A128A1181260A128A1104300A1221
:100F7A008A1115270A128A112C30F0000130F1006B
:100F8A000A128A1181260A128A1185300A128A11D6
:100F9A0015270A128A112C30F0000130F1000A12CA
:100FAA008A1181260A128A1106300A128A11152715
:100FBA000A128A112C30F0000130F1000A128A114B
:100FCA0081260A128A1101300A128A1115270A1279
:100FDA008A112C30F0000130F1000A128A118126A0
:100FEA000A128A11080083120313AE01AF018301AA
:060FFA000A128A11C52E47
:02400E007A3FF7
:00000001FF
