:020000040000FA
:060000000A128A110E280D
:10000800FE00030EF1000408F2000A08F3000A12C9
:100018008A15F22C0A128A1111288313E730FD0081
:100028000C30FE007730FF00C83084000A128A11B5
:10003800EF220A128A116830FD000C30FE004A30A7
:10004800FF005F3084000A128A11EF220A128A1117
:10005800A0308400C8300A128A1542240A128A1174
:10006800513084005F300A128A1542240A128A111C
:10007800F501F601F701F80183010A128A11952C9E
:10008800FF0000308A007F08820749280A128A1177
:10009800B92D0A128A11CC2F0A128A1156280A126F
:1000A8008A114A2A83120313A00101300A128A1501
:1000B80026250A128A111C3083120313A4008430E7
:1000C800A5000A128A1596240A128A112F30831263
:1000D8000313CA00C130C900B330C800C80B722866
:1000E800C90B7228CA0B722883120313A0010130AE
:1000F8000A128A1526250A128A115130831203130F
:10010800A4008430A5000A128A1596240A128A11BE
:1001180083120313A001C0300A128A1526250A1279
:100128008A11183083120313CA006130C90057308E
:10013800C800C80B9D28C90B9D28CA0B9D28A42858
:10014800633083120313A2008330A3000C30A40091
:100158000030A5000A128A1510270A128A11831284
:10016800031322082304031DBA28BB28322A4A3065
:10017800A2008330A3000D30A4000030A5000A12AD
:100188008A1510270A128A118312031322082304DE
:10019800031DCF28D0283B2AB330A4008330A50004
:1001A8000A128A1596240A128A1118308312031328
:1001B800CA006130C9005730C800C80BE128C90B14
:1001C800E128CA0BE128E82883120313A0010130B3
:1001D8000A128A1526250A128A115130831203132E
:1001E800A4008430A5000A128A1596240A128A11DE
:1001F80083120313A001C0300A128A1526250A1299
:100208008A112A3083120313A4008430A5000A122D
:100218008A1596240A128A112F3083120313CA00F2
:10022800C130C900B330C800C80B1829C90B182938
:10023800CA0B1829633083120313A2008330A3006A
:100248000C30A4000030A5000A128A1510270A12E3
:100258008A118312031322082304031D3429352924
:10026800282A3D30A2008330A3000D30A4000030BE
:10027800A5000A128A1510270A128A11831203137D
:1002880022082304031D49294A291E2AA0010130F6
:100298000A128A1526250A128A11B330831203130B
:1002A800A4008330A5000A128A1596240A128A111E
:1002B800183083120313CA006130C9005730C800D0
:1002C800C80B6429C90B6429CA0B64296B295730E8
:1002D80083120313A2008330A3000C30A400003063
:1002E800A5000A128A1510270A128A11831203130D
:1002F80022082304031D81298229142A0A128A1537
:100308008D260A128A11831203134008E5003F085C
:10031800E4006508C800480883160313E300831245
:1003280003136408C800480883160313E400831203
:10033800031364080E3EC800480883160313E6003A
:10034800D83083120313A2000030A3000F30A4009A
:100358000030A5000A128A1510270A128A11831282
:10036800031322082304031DBA29BB29012AA0016B
:1003780001300A128A1526250A128A110E308312B4
:100388000313A4008430A5000A128A1596240A12C1
:100398008A11893083120313AE008430AF006508D8
:1003A800B1006408B000B4300A128A11CE260A12CD
:1003B8008A1183120313A001C0300A128A15262558
:1003C8000A128A11B43083120313A4000030A50066
:1003D8000A128A1596240A128A11183083120313F6
:1003E800CA006130C9005730C800C80BF929C90BC9
:1003F800F929CA0BF929002A3B2AA00101300A125F
:100408008A1526250A128A116F3083120313A40055
:100418008330A5000A128A1596240A128A113B2AEB
:100428008F30A4008430A5000A128A1596240A1277
:100438008A113B2A8F30A4008430A5000A128A153D
:1004480096240A128A113B2A7630A4008430A5002B
:100458000A128A1596240A128A113B2A7630A400B9
:100468008430A5000A128A1596240A128A112F30A0
:1004780083120313CA00C130C900B330C800C80BC7
:10048800432AC90B432ACA0B432A08000A128A15B1
:100498008D260A128A11831203134008E5003F08CB
:1004A800E4006508C800480883160313D2008312C5
:1004B80003136408C800480883160313D300831283
:1004C80003136408153EC80065080318013E003E82
:1004D800C9004908CA004A0883160313D6008312C4
:1004E80003136408153EC800480883160313D70091
:1004F800C83083120313A2000030A3001030A400F8
:100508000030A5000A128A1510270A128A118312D0
:10051800031322082304031D922A932ACA2AA0013E
:1005280001300A128A1526250A128A110030831210
:100538000313AE008430AF006508B1006408B00052
:10054800B4300A128A11CE260A128A11B4308312E4
:100558000313A4000030A5000A128A1596240A1273
:100568008A1183120313A001C0300A128A152625A6
:100578000A128A11D33083120313A4008330A50012
:100588000A128A1596240A128A11DC2AA00101305F
:100598000A128A1526250A128A118F30831203132C
:1005A800A4008430A5000A128A1596240A128A111A
:1005B8002F3083120313CA00C130C900B330C800FA
:1005C800C80BE42AC90BE42ACA0BE42A08007E08EF
:1005D8008A007F0882000A128A11EB220A128A1105
:1005E8008000840A04087D0603190034FF0A0319F1
:0405F800FE0AEF2ADE
:10060000FF1B0A2B83137F1883170008840A031922
:10061000FF0A08007F087F398A000408840A03194A
:10062000FF0A8200013400340A3400346434003498
:10063000E834033410342734EF340134FF34FF340A
:10064000FF34FF340134003408341B3401340034E7
:1006500000340034A3340034C834EF340134FF34A0
:10066000FF34FF34FF3401340034073413340034D2
:1006700000340034003400341B34EF340134FF34D0
:10068000FF34FF34FF3401340034043402340234C4
:1006900000340934EF340134FF34FF34FF34FF34C5
:1006A0000134003404340234013400340834EF34AB
:1006B0000134FF34FF34FF34FF3401340034033499
:1006C000053400340934EF340134FF34FF34FF348F
:1006D000FF3401340034033401340034053446342B
:1006E00069346E3467346534723420344E346F3478
:1006F00074342034533474346F3472346534643455
:1007000000345534733469346E34673420345034D3
:10071000493443343134363446343834373437345A
:100720004134003431342D344D3461347434633405
:100730006834203432342D3445346E3472346F349E
:100740006C346C340034493464343A3425346434C1
:1007500020342034533463346F34723465343A3483
:10076000253464340034463469346E346734653477
:1007700072342034443465347434653463347434EE
:1007800065346434003433342D34643465346C346B
:100790006534743465342034463469346E346734D7
:1007A000653472340034443465346C3465347434E4
:1007B00065346434203453347534633463346534BD
:1007C00073347334003443346934723463347534AD
:1007D0006934743420344434693467346534733490
:1007E0007434003445346E347434653472342034D7
:1007F000493464343A3425346434203420340034A9
:10080000463469346E346734653472342034493484
:10081000443420342534643420340034463469347C
:100820006E346734653472342034533474346F3426
:10083000723465346434003445346E3472346F3449
:100840006C346C342034463469346E346734653427
:10085000723400342034203420342034413467345E
:10086000613469346E34203420342034003446340A
:1008700069346E34673465347234203446346F34EE
:1008800075346E34643400344634503420344E347D
:100890006F347434203446346F3475346E346434B9
:1008A000003450346C34613463346534203446345D
:1008B00069346E34673465347234003449346E34CC
:1008C00074346534723466346134633469346E343C
:1008D00067340034463469346E34673465347234B6
:1008E0007034723469346E34743400344E346F347E
:1008F0002034463469346E346734653472340034DD
:1009000046345034203446346F3475346E34643495
:100910000034493464343A34253464340034453482
:10092000723472346F347234003406308316031319
:100930009F008711F03088000F3083120313880066
:100940000030AE00E130AF000A128A159C250A1271
:100950008A1183160313850189010A128A15C0249E
:100960000A128A116A3083120313A4008430A5008E
:100970000A128A1596240A128A1183120313A001FF
:10098000C0300A128A1526250A128A115E30831297
:100990000313A4008430A5000A128A1596240A12B3
:1009A0008A112F3083120313CD00C130CC00B33035
:1009B000CB00CB0BD92CCC0BD92CCD0BD92C831243
:1009C0000313A00101300A128A1526250A128A1182
:1009D000813083120313A4008330A5000A128A1504
:1009E00096240A128A1183120313A001C0300A123E
:1009F0008A1526250A128A11E33083120313A400F4
:100A00008330A5000A128A1596240A128A112F3003
:100A100083120313CD00C130CC00B330CB00CB0B1D
:100A20000F2DCC0B0F2DCD0B0F2DF701F8012B2D1A
:100A3000A00101300A128A1526250A128A114430B3
:100A400083120313A4008430A5000A128A15962489
:100A50000A128A11072D2D3083120313A20083304E
:100A6000A3001030A4000030A5000A128A15102738
:100A70000A128A118312031322082304031D412D35
:100A8000422D182DA00101300A128A1526250A12BE
:100A90008A11803083120313A4008430A5000A1247
:100AA0008A1596240A128A11183083120313CD0076
:100AB0006130CC005730CB00CB0B5C2DCC0B5C2DC8
:100AC000CD0B5C2D632D0A128A11CC270A128A11D4
:100AD000003083120313081A0130CB000030881A4B
:100AE0000130CC004B084C02031C772D782DAB2D28
:100AF0000030881B0130CB000030081A0130CC00D8
:100B00004B084C02031C852D862DA22D0030081A9F
:100B10000130CB000030881B0130CC004B084C0268
:100B2000031C932D942D992D0430CB004B08D0003D
:100B30009D2D0A30CB004B08D0005008CB004B084D
:100B4000CF00A62D0730CB004B08CF004F08CB00BD
:100B50004B08CE00AF2D0130CB004B08CE004E0825
:100B60000A128A1144200A128A11682D0A128A1167
:100B70000E2883120313A00101300A128A152625BC
:100B80000A128A11513083120313A4008430A50085
:100B90000A128A1596240A128A1183120313A001DD
:100BA000C0300A128A1526250A128A112F308312A4
:100BB0000313C100C130C000B330BF00BF0BDE2D36
:100BC000C00BDE2DC10BDE2D633083120313A20098
:100BD0008330A3000C30A4000030A5000A128A154F
:100BE00010270A128A118312031322082304031DFB
:100BF000FA2DFB2DB62E4A30A2008330A3000D3013
:100C0000A4000030A5000A128A1510270A128A11C2
:100C10008312031322082304031D0F2E102EBF2E50
:100C20001C30A2008330A3001130A4000030A500C6
:100C30000A128A1510270A128A1183120313220836
:100C40002304031D242E252EA32EA00101300A12F9
:100C50008A1526250A128A11373083120313A4003D
:100C60008430A5000A128A1596240A128A1183126A
:100C700003135108BF00C0013F08C2004008C30071
:100C800008300310C20DC30DFF3E031D412E520854
:100C9000BF00C0013F08C2070318C30A4008C307CA
:100CA0005308BF00C0013F08C4004008C500083019
:100CB0000310C40DC50DFF3E031D582E5408BF0080
:100CC000C0013F08C4070318C50A4008C507A33080
:100CD000AE008330AF004308B1004208B0004508C1
:100CE000B3004408B200B4300A128A11CE260A12A8
:100CF0008A1183120313A001C0300A128A15262517
:100D00000A128A11B43083120313A4000030A50024
:100D10000A128A1596240A128A1183120313871560
:100D2000183083120313C1006130C0005730BF0078
:100D3000BF0B982EC00B982EC10B982E9F2E83129E
:100D400003138711BF2EA00101300A128A15262530
:100D50000A128A11473083120313A4008430A500BD
:100D60000A128A1596240A128A11BF2E7630A40020
:100D70008430A5000A128A1596240A128A112F308F
:100D800083120313C100C130C000B330BF00BF0BDA
:100D9000C72EC00BC72EC10BC72E0800831203132A
:100DA000BD003030B4003408B800AF2F25303E0607
:100DB0000319DB2EDC2EE82E3E08B4003D0884002B
:100DC0003408831380000130B4003408BD07AF2F0E
:100DD000B9012F08B5002E08B400AE0A0319AF0AF6
:100DE0003508FF00340884000A128A1100230A1211
:100DF0008A11BE00B600B7013708003A0319012F67
:100E0000AF2F3608003A0319C72F643A03190C2F85
:100E10000D3A03190C2FAF2F3808840083130008F4
:100E2000BB00840A0008BC000230B4003408B807D4
:100E3000BC1F1B2F1C2F252F0330B4003408B9040E
:100E4000BB09BC09BB0A0319BC0ABE01BE0A3E08A5
:100E5000B4003407123E840083300318013EFF00C3
:100E60000A128A1100230A128A11B5000A128A1185
:100E700000230A128A11B60036083C02031D422FD5
:100E800035083B020318452F462F472F512F0130BD
:100E9000B4003408BE0705303E06031D502F512F05
:100EA000272F390803390319562F572F622F2D305A
:100EB000B4003D0884003408831380000130B4007E
:100EC0003408BD073E08B4003408BA00A62F0A3023
:100ED000A8000030A9003A08B4003407123E84008C
:100EE00083300318013EFF000A128A1100230A1200
:100EF0008A11A0000A128A1100230A128A11A10085
:100F00003C08A3003B08A2000A128A15DF250A123A
:100F10008A11831203132108AB002008AA000A12C9
:100F20008A1560250A128A11831203132808303E9D
:100F3000B5003508BE003E08B4003D088400340802
:100F4000831380000130B4003408BD07FF30B400C3
:100F50003408BA073A0A031DAE2FAF2F672F2F08A8
:100F6000B5002E08B400AE0A0319AF0A3508FF0019
:100F7000340884000A128A1100230A128A11B6006A
:100F80003608BE003E08031DC62FC72FD62E3D08CB
:100F9000840083138001080083120313A0018030B2
:100FA0000A128A1526250A128A1192308312031317
:100FB000A4008330A5000A128A1596240A128A1109
:100FC00083120313A001C0300A128A1526250A12C3
:100FD0008A11C33083120313A4008330A5000A12C0
:100FE0008A1596240A128A113C3083120313A70033
:100FF000D630A600A60BFA2FA70BFA2F0000080088
:1018840064008001840A0406031900340406432C0E
:10189400023428340E340634013401340034013463
:1018A400003483120313A0000C1E592C5A2C562CFE
:1018B4000C1220089900080083120313A001A1014F
:1018C4002008A03E8400831380010130A007031880
:1018D400A10A0030A10700302102143003192002AC
:1018E400031C752C762C622C0800EF340134FF3471
:1018F400FF34FF34FF340134003407340C34003433
:1019040000340034013400341534EF340134FF342E
:10191400FF34FF34FF340134003406340634013418
:101924000034013400340E34AF2CA001A00A250881
:10193400FF00240884000A128A1100230A128A155F
:101944000A128A1526250A128A15013083120313F6
:10195400A4070318A50A0030A5078312031325085A
:10196400FF00240884000A128A1100230A128A152F
:10197400003A031DBE2CBF2C972C08002430840091
:10198400831203135F0883138000840A60088000B5
:10199400840A61088000840A62088000840A63085B
:1019A4008000A901AA01A0012908243E8400831310
:1019B40000080A128A1526250A128A150130831294
:1019C4000313A9070318AA0A0030AA0700302A0241
:1019D400053003192902031CF02CF12CD52C080026
:1019E400831203138C1EF72CF82C1D2D831603135E
:1019F4008C1EFD2CFE2C1D2D831203131A08F000DF
:101A04007008F4007408F0007708A03E84007008A1
:101A1400831380000130F7070318F80A0030F80731
:101A2400770878040319172D182D1C2D0130DD00BB
:101A34000030DE008C1273088A0072088400710E74
:101A44008300FE0E7E0E090083120313A3002308F5
:101A5400A10004300310A10CFF3E031D2C2D21080E
:101A64000F3985002018372D3B2D83120313891459
:101A74003E2D83120313891009141E30831203139D
:101A8400A200EA30A100A10B452DA20B452D0000B8
:101A940083120313091023080F39850009141E301B
:101AA40083120313A200EA30A100A10B572DA20B4D
:101AB400572D000083120313091008008312031327
:101AC400280829040319672D682D972DAD01AD0A47
:101AD400762D01300310A80DA90DFF3E031D6C2DBA
:101AE4000130AC002C08AD07A91F792D7A2D6B2D80
:101AF40029082B02031D802D28082A02031C832D8C
:101B0400842D8A2D2808AA022908031CAB03AB02E2
:101B140001300310A90CA80CFF3E031D8B2D0130CE
:101B2400AD02031D962D972D7A2D2B08A9002A08A6
:101B3400A8000800831203132E08B0002F08B10078
:101B4400B201B30106300310B00DB10DB20DB30DE7
:101B5400FF3E031DA52D3308A3003208A20031085F
:101B6400A1003008A0000130A7001930A6004030C1
:101B7400A5000030A4000A128A1525260A128A1527
:101B8400831203132008FF3E8316031399001812CF
:101B940083120313981783160313871707138312EB
:101BA400031318168316031398168B170B178C162A
:101BB4000C12831203138C12080083120313A60160
:101BC400A701200821040319E82DE92D202EA501E1
:101BD400A50AF72D01300310A00DA10DFF3E031D32
:101BE400ED2D0130A4002408A507A11FFA2DFB2D1B
:101BF400EC2D01300310A60DA70DFF3E031DFC2D97
:101C040021082302031D082E20082202031C0B2E88
:101C14000C2E132E2008A2022108031CA303A302E6
:101C2400261401300310A10CA00CFF3E031D142E3A
:101C34000130A502031D1F2E202EFB2D2708A10015
:101C44002608A0000800003083120313AC00003003
:101C5400AB000030AA000030A900230822042104AC
:101C640020040319362E372E842EAD01AD0A472EDB
:101C74000130A8000310A00DA10DA20DA30DA80B07
:101C84003C2E0130A8002808AD07A31F4A2E4B2E76
:101C94003A2E0130A8000310A90DAA0DAB0DAC0D0E
:101CA400A80B4D2E23082702031D622E22082602AC
:101CB400031D622E21082502031D622E2008240222
:101CC400031C652E662E752E2008A4022108031C11
:101CD400210FA5022208031C220FA6022308031CBD
:101CE400230FA702291401300310A30CA20CA10C8A
:101CF400A00CFF3E031D762E0130AD02031D832E82
:101D0400842E4B2E2C08A3002B08A2002A08A10025
:101D14002908A000080083120313C601C701A0010B
:101D240001300A128A1526250A128A158312031312
:101D3400A00180300A128A1526250A128A1500305D
:101D440083120313081A0130C1000030881A0130CD
:101D5400C20041084202031CB02EB12ED32E003023
:101D6400881A0130C1000030081A0130C20041084D
:101D74004202031CBE2EBF2EC42E4708C5004608CF
:101D8400C400CE2E0130C6020030031CC703C702B4
:101D94004708C5004608C4004508C7004408C600F3
:101DA400DD2E0130C6070318C70A0030C7074708ED
:101DB400C7004608C600F230AE008330AF004708C3
:101DC400B1004608B000B4300A128A11CE260A12B5
:101DD4008A15B43083120313A4000030A5000A123C
:101DE4008A1596240A128A15053083120313C30038
:101DF400AD30C200DC30C100C10BFE2EC20BFE2E82
:101E0400C30BFE2E000083120313081B0A2F0B2F93
:101E1400982E4708C0004608BF000800013083120E
:101E24000313A9000030AA000A128A155E240A12BC
:101E34008A15F701F801033083120313A800573001
:101E4400A7006C30A600A60B252FA70B252FA80BE7
:101E5400252F000083120313AB01AC01572F83120B
:101E640003132B082207A7002308A6000318A60AB9
:101E7400AB1F3D2FA603831203132608A8002808CE
:101E8400FF00270884000A128A1100230A128A1507
:101E94000A128A1553240A128A1501308312031375
:101EA400AB070318AC0A0030AC072C08803AA60034
:101EB4002508803A2602031D612F24082B02031CE7
:101EC400642F652F312F183083120313A80061305B
:101ED400A7005730A600A60B6D2FA70B6D2FA80BDC
:101EE4006D2F742F831203135D035E04031D7B2F78
:101EF4007C2FFF2FEF30831603132006031D832F3F
:101F0400842FF62F2103031D882F892FF62F0730E6
:101F14002606031D8E2F8F2FF62F2908031D932FBE
:101F2400942FF02F270883120313A600A701260875
:101F3400AF002708B00008300310AF0DB00DFF3E0E
:101F4400031D9E2F83160313280883120313A60070
:101F5400A7012608AF042708B004AD01AE01BD2FC8
:101F64002D08513E8400831380010130AD0703180E
:101F7400AE0A0030AE0730082E02031DC32F2F080F
:101F84002D02031CC62FC72FB22FB101B201DB2FC4
:101F94003108AA3E840083130008A6003108513E8C
:101FA4008400260880000130B1070318B20A00300B
:101FB400B2072F08FE3EA60030080318013EFF3E7C
:101FC400A70027083202031DE92F26083102031C4B
:101FD400EC2FED2FCA2FA901AA01F62F013083128D
:101FE4000313A9000030AA00F701F8018312DD01F0
:0C1FF400DE012A08A3002908A200080052
:02400E007A3FF7
:00000001FF
