:020000040000FA
:060000000A128A110C280F
:10000800FE00030EF0000A08F1000A128A11982E69
:100018000A128A110F2883136B30FD000630FE0088
:10002800E730FF00603084000A128A11B0260A12F5
:100038008A11A0308400B4300A128A11F2260A12FA
:100048008A11203084004A300A128A11F2260A12D4
:100058008A11F901FA01FB0183010A128A11772B2F
:10006800831203135308C1005208C0000230B807B6
:10007800003003180130B907003003180130BA07FF
:10008800003003180130BB0734083802DC0035089B
:10009800031C350A3902DD004108803AD40065089E
:1000A800803A5402031D5A286408400203185D2848
:1000B8005E28A2280530F2000030F30083120313F3
:1000C8006308F5006208F4000A128A1101240A1272
:1000D8008A11730883120313CF007208CE0003300D
:1000E800D0000030D1000A128A11F4250A128A11B0
:1000F800831203134F08803AD4005D08803A5402F3
:10010800031D88285C084E0203188B288C28A22817
:10011800831203134108803AD4006708803A5402D6
:10012800031D98286608400203189B289C28A228CB
:10013800831203134108E7004008E6008312031303
:100148006508803AD4004108803A5402031DAE285D
:10015800400864020318B128B228C8288312031380
:100168006908803AD4004108803A5402031DBE2829
:10017800400868020318C128C228C828831203133C
:100188004108E9004008E800831203135D08803A3B
:10019800FF0080307F02031DD328FB305C02031C64
:1001A800D628D728DF29831203136508803AD4009C
:1001B8004108803A5402031DE328400864020318EA
:1001C800E628E728DF29831203134808031DED28D2
:1001D800EE28DF290530F2000030F3006308F5004F
:1001E8006208F4000A128A1101240A128A1173089B
:1001F80083120313CF007208CE000330D000003002
:10020800D1000A128A11F4250A128A1183120313E3
:100218004F08803AD4005D08803A5402031D16291D
:100228005C084E02031819291A29DF2901308312A4
:100238000313D4005408C80034083802E200350813
:10024800031C350A3902E3003B08B7003A08B60038
:100258003908B5003808B400490803193429352984
:100268005829C901DA01DB01831203135A08D400A3
:100278005407203E8400620883138000840A6308C0
:1002880080000130DA070318DB0A0030DB075B085F
:10029800803AFF0080307F02031D54290A305A0239
:1002A800031C572958293829831203136A0803198C
:1002B8005E295F296529EA010130D4005408C90084
:1002C800482AD801D901DE01DF01831203135E0831
:1002D800D4005407223E840083130008D500840A02
:1002E8000008D6005E08D7005707203E840055084E
:1002F8008000840A560880005E08D4005407203E17
:1003080084000008D500840A0008D6005508D807DC
:100318000318D90A5608D9070130DE070318DF0A7F
:100328000030DF075F08803AFF0080307F02031D3E
:100338009F2909305E02031CA229A3296929831277
:1003480003136308B3006208B2003208D807031821
:10035800D90A3308D9070A30F2000030F3005908E7
:10036800F5005808F4000A128A1121250A128A1188
:10037800730883120313D9007208D8005808CA00FA
:100388005908CB00CC01CD010030D1000030D0009D
:10039800EA30CF006030CE000A128A1149220A12D0
:1003A8008A11831203134B08C3004A08C2000130A4
:1003B800D4005408C700831203134108803AD400BC
:1003C8006508803A5402031DEB29640840020318AB
:1003D800EE29EF291E2A831203134803031DF5296A
:1003E800F6291E2AC80166086802C4006708031CAB
:1003F800670A6902C5000230F2000030F3004508C0
:10040800F5004408F4000A128A1101240A128A111C
:100418008312031366087207E40067080318670A63
:100428007307E5006508E9006408E8006508E70067
:100438006408E600831203135D08803AFF008930E0
:100448007F02031D292AC5305C02031C2C2A2D2A91
:10045800482A123083120313E4000230E50000300A
:10046800E8000230E9000030E6000230E7003B080F
:10047800B7003A08B6003908B5003808B4000130AA
:10048800D4005408EA00C9010800F40183120313D8
:10049800CD1F4F2A502A5D2ACA09CB09CC09CD099C
:1004A800CA0A0319CB0A0319CC0A0319CD0AF401A5
:1004B800F40AD11F602A612A702ACE09CF09D0090F
:1004C800D109CE0A0319CF0A0319D00A0319D10A90
:1004D8000130F2007208F4060030F8000030F7002E
:1004E8000030F6000030F5004D084C044B044A0477
:1004F80003197F2A802ACD2AF301F30A902A0130B2
:10050800F2000310CA0DCB0DCC0DCD0DF20B852AD0
:100518000130F2007208F307CD1F932A942A832A28
:100528000130F2000310F50DF60DF70DF80DF20B82
:10053800962A4D085102031DAB2A4C085002031D90
:10054800AB2A4B084F02031DAB2A4A084E02031C74
:10055800AE2AAF2ABE2A4A08CE024B08031C4B0F0C
:10056800CF024C08031C4C0FD0024D08031C4D0F42
:10057800D102751401300310CD0CCC0CCB0CCA0C75
:10058800FF3E031DBF2A0130F302031DCC2ACD2AEA
:10059800942A74080319D12AD22ADD2AF509F60902
:1005A800F709F809F50A0319F60A0319F70A0319EE
:1005B800F80A7808CD007708CC007608CB007508D3
:1005C800CA0008002C30F2000130F3000A128A1128
:1005D8006D260A128A1130300A128A1183260A12ED
:1005E8008A112C30F2000130F3000A128A116D26AC
:1005F8000A128A1130300A128A1183260A128A11C5
:100608002C30F2000130F3000A128A116D260A120A
:100618008A1130300A128A1183260A128A112C3064
:10062800F2000130F3000A128A116D260A128A11AB
:1006380020300A128A1183260A128A112C30F200FD
:100648000130F3000A128A116D260A128A110C3041
:100658000A128A11D2240A128A112C30F2000130AF
:10066800F3000A128A116D260A128A1104300A123E
:100678008A11D2240A128A112C30F2000130F300B8
:100688000A128A116D260A128A1185300A128A11F5
:10069800D2240A128A112C30F2000130F3000A1217
:1006A8008A116D260A128A1106300A128A11D2247A
:1006B8000A128A112C30F2000130F3000A128A1152
:1006C8006D260A128A1101300A128A11D2240A12DE
:1006D8008A112C30F2000130F3000A128A116D26BB
:1006E8000A128A1108000A128A1153260A128A115C
:1006F800013083120313E0000030E100EB2B0030DF
:10070800F400F5000A128A11A1250A128A11750847
:1007180083120313BF007408BE000230E0000030EB
:10072800E100EB2B3F08D3003E08D2000A128A11E1
:1007380034200A128A11033083120313E0000030B8
:10074800E100EB2B4703031DAA2BAB2BE62BC701BC
:1007580080300A128A11D2240A128A1102300A122F
:100768008A11CB250A128A11831203134308CE007B
:100778004208CD000A128A116A240A128A110B3023
:100788000A128A11CB250A128A11A8300A128A1174
:10079800D2240A128A110D300A128A11CB250A12A4
:1007A8008A11831203136308CE006208CD000A126F
:1007B8008A116A240A128A110B300A128A11CB256F
:1007C8000A128A1183120313E001E101EB2B61087D
:1007D800003A0319F02BEB2B6008003A0319EB2BB6
:1007E800013A0319832B033A0319962B013A03198B
:1007F800A62BEB2B0A128A110C2883120313CB01A8
:10080800F31F072C082C0F2CF209F309F20A03191D
:10081800F30ACB01CB0AF51F122C132C1C2CF4095C
:10082800F509F40A0319F50A0130F6007608CB0633
:10083800CC01CD01720873040319232C242C5B2CE2
:10084800CA01CA0A322C01300310F20DF30DFF3E23
:10085800031D282C0130F6007608CA07F31F352C33
:10086800362C272C01300310CC0DCD0DFF3E031D77
:10087800372C73087502031D432C72087402031C7D
:10088800462C472C4E2C7208F4027308031CF503FF
:10089800F5024C1401300310F30CF20CFF3E031D5B
:1008A8004F2C0130CA02031D5A2C5B2C362C4B08E6
:1008B80003195F2C602C652CCC09CD09CC0A0319CF
:1008C800CD0A4D08F3004C08F20008008312031308
:1008D800D101D201A22C0A30F2000030F3004E08F8
:1008E800F5004D08F4000A128A1167250A128A11C8
:1008F800831203135108CF004F07A03E84007208EB
:1009080083138000840A730880000A30F2000030E4
:10091800F3004E08F5004D08F4000A128A1121254B
:100928000A128A11730883120313CE007208CD00CD
:100938000130D1070318D20A0030D2074D084E04FF
:10094800031DA72CA82C6F2CFF30D1070318D20A3F
:10095800FF30D2075208D4005108D300D41FB52C59
:10096800B62CB72CD12C5308CF004F07A03E8400DB
:1009780083130008303ED0005008C60046080A120B
:100988008A11DB260A128A11FF3083120313D30758
:100998000318D40AFF30D407B22C080083120313BB
:1009A800CA007B1CD82CD92CDB2C7B10DC2C061025
:1009B80086104A08F6007608CB00F030F600760874
:1009C800CB050F30F600760886054B08F60076084A
:1009D800860406152C30F2000130F3000A128A1141
:1009E8006D260A128A118312031306114A08F600AB
:1009F80003300310F60DFF3E031DFD2C0310760D8A
:100A0800F7007708CB00F030F6007608CB050F30FA
:100A1800F600760886054B08F60076088604061563
:100A28002C30F2000130F3000A128A116D260A12E6
:100A38008A11831203130611080083120313CB01D2
:100A4800CC017208730403192A2D2B2D622DCA01BB
:100A5800CA0A392D01300310F20DF30DFF3E031DB4
:100A68002F2D0130F6007608CA07F31F3C2D3D2DC7
:100A78002E2D01300310CB0DCC0DFF3E031D3E2D56
:100A880073087502031D4A2D72087402031C4D2D4C
:100A98004E2D552D7208F4027308031CF503F50258
:100AA8004B1401300310F30CF20CFF3E031D562DBE
:100AB8000130CA02031D612D622D3D2D4C08F30043
:100AC8004B08F20008007208730403196C2D6D2D91
:100AD8009C2DF701F70A7B2D01300310F20DF30D61
:100AE800FF3E031D712D0130F6007608F707F31F4E
:100AF8007E2D7F2D702D73087502031D852D7208BC
:100B08007402031C882D892D8F2D7208F402730836
:100B1800031CF503F50201300310F30CF20CFF3E41
:100B2800031D902D0130F702031D9B2D9C2D7F2D59
:100B38007508F3007408F20008007508803AFF0091
:100B480080307F02031DAA2D03307402031CAD2DD3
:100B5800AF2D0130B02D00300138831203139F00F0
:100B6800E830F2000330F3000A128A11BF260A1295
:100B78008A11831203131F151F19C32DC42DC02DED
:100B88001E08F500831603131E08F40008008312DC
:100B98000313CE00CC01CD01E62D4C084E0784008E
:100BA8000A128A111B260A128A110A128A11DB26D6
:100BB8000A128A11013083120313CC070318CD0AD5
:100BC8000030CD074C084E0784000A128A111B26F4
:100BD8000A128A11003A031DF22DF32DD12D0800B7
:100BE800F701F801831203134E1CFB2DFC2D022E76
:100BF8005008F7070318F80A5108F80701300310DE
:100C0800D00DD10DFF3E031D032E01300310CF0C74
:100C1800CE0CFF3E031D0A2E4E084F04031D152E51
:100C2800162EF62D7808CF007708CE00080006307B
:100C38008A000408840A82070034FF34423450349E
:100C48004D343A342D3420342034203420342034A8
:100C5800003449342E3442342E3449343A342D3455
:100C680020342034203400348B120B117A30831254
:100C7800031381000130F9070318FA0A0030FA0754
:100C880079087A040319492E4A2E512E0A128A111C
:100C980002270A128A11F901FA018B160800831635
:100CA800031386010A128A11E6220A128A110A120D
:100CB8008A11CE260A128A110A128A1109270A12E3
:100CC8008A118B170B170A128A11FA260A128A112F
:100CD8000800F401F501F401F501782E0130F4075C
:100CE8000318F50A0030F50773087502031D7E2EF8
:100CF80072087402031C812E822E722E0800F600E0
:100D080083120313061086107608860006152C3009
:100D1800F2000130F3000A128A116D260A128A11B4
:100D280083120313061108008B1E9B2E9C2EA52EE2
:100D38000B1D9F2EA02EA52E0A128A1138260A12E4
:100D48008A1171088A00700E8300FE0E7E0E09005B
:100D58007E088A007F0882000A128A11AC260A12CD
:100D68008A118000840A04087D0603190034FF0AEA
:100D78000319FE0AB02EFF30F2070318F30AFF30FA
:100D8800F307720A031DCC2E730A031DCC2ECD2E39
:100D9800BF2E080083160313811201168111073034
:100DA80081047A308312031381000B110800F800C4
:100DB8007B1483120313061478080A128A11D224AA
:100DC8000A128A110800FF34FF34583402341234EE
:100DD80002340034023400340234013464008001E7
:100DE800840A0406031900340406F32E831203133D
:100DF8009F018030831603139F000800013083127F
:0E0E08000313E0000030E10008008B16080024
:02400E007A3FF7
:00000001FF
