:020000040000FA
:060000000A128A110E280D
:10000800FE00030EF1000408F2000A08F3000A12C9
:100018008A15CF2C0A128A11112883136630FD0025
:100028000930FE006730FF005F3084000A128A152D
:1000380090210A128A110A128A11FA270A128A11C1
:10004800F800831790308400D6300A128A156E2182
:100058000A128A11103084006F300A128A156E2134
:100068000A128A118313A0308400C8300A128A1534
:100078006E210A128A11523084005F300A128A15E2
:100088006E210A128A11F501F601F70183010A129D
:100098008A111F2E83120313CD01CE01C430A00094
:1000A8008330A1000A128A15D5210A128A118312F7
:1000B80003132108C6002008C500BD30A000833006
:1000C800A1000A128A15D5210A128A118312031374
:1000D8002108C8002008C700B230A0008330A10062
:1000E8000A128A15D5210A128A11831203132108CC
:1000F800CA002008C9004930A0008330A1000A12B4
:100108008A15D5210A128A11831203132108CC00FB
:100118002008CB0047084507BD0048080318480ACF
:100128004607BE0049083D07BF004A0803184A0AA7
:100138003E07C0004B083F07C1004C0803184C0A93
:100148004007C20041080C3ED20042080318013E95
:10015800003ED3008312031352087F39BD003D08C7
:10016800DC008030A0000030A1005308A300520832
:10017800A2000A128A1566240A128A11831203132E
:100188002108D3002008D2005308803AFF008030AD
:100198007F02031DD12801305202031CD428D52820
:1001A800D82883120313DC17831203135308803AE9
:1001B800FF0080307F02031DE3280130520203183C
:1001C800E628E728AE28103083120313BD004D0837
:1001D800903E84003D08831780000130CD07031846
:1001E800CE0A0030CE075C08BD004D08903E840062
:1001F8003D0880000130CD070318CE0A0030CE0735
:100208004D08903E840080010130CD070318CE0AC6
:100218000030CE074508BD004D08903E84003D08DB
:1002280080000130CD070318CE0A0030CE07C43055
:10023800A0008330A1004608A3004508A2004D088D
:10024800903E0A128A1589220A128A118312031310
:100258004508CD070318CE0A4608CE070330BD006F
:100268004D08903E84003D08831780000130CD077B
:100278000318CE0A0030CE07C230BD004D08903EAC
:1002880084003D0880000130CD070318CE0A0030F5
:10029800CE074D08903E840080010130CD07031839
:1002A800CE0A0030CE073C30BD004D08903E840099
:1002B8003D0880000130CD070318CE0A0030CE0774
:1002C8004D08903E840080010130CD070318CE0A06
:1002D8000030CE074708BD004D08903E84003D0819
:1002E80080000130CD070318CE0A0030CE07BD309C
:1002F800A0008330A1004808A3004708A2004D08C9
:10030800903E0A128A1589220A128A11831203134F
:100318004708CD070318CE0A4808CE074D08903E77
:100328008400831780010130CD070318CE0A0030FE
:10033800CE074908BD004D08903E84003D08800066
:100348000130CD070318CE0A0030CE07B230A00026
:100358008330A1004A08A3004908A2004D08903E36
:100368000A128A1589220A128A118312031349086C
:10037800CD070318CE0A4A08CE074D08903E8400E0
:10038800831780010130CD070318CE0A0030CE074D
:100398004B08BD004D08903E84003D0880000130A8
:1003A800CD070318CE0A0030CE074930A0008330AD
:1003B800A1004C08A3004B08A2004D08903E0A1269
:1003C8008A1589220A128A11831203134B08CD0752
:1003D8000318CE0A4C08CE070A128A15B5210A124C
:1003E8008A11683083120313AE008430AF004E08C0
:1003F800B1004D08B000B9300A128A1502270A1256
:100408008A11B93083120313A3000030A4000A1222
:100418008A1555220A128A11183083120313BF0055
:100428006130BE005730BD00BD0B182ABE0B182A1C
:10043800BF0B182A1F2A0A128A15B5210A128A1117
:1004480083120313C301C4013D2A83120313430813
:10045800903E8400831700080A128A159F210A1209
:100468008A11013083120313C3070318C40A00302A
:10047800C4074408803ABD004E08803A3D02031D77
:10048800472A4D084302031C4A2A4B2A292A1A30B4
:100498000A128A159F210A128A112F308312031318
:1004A800BF00C130BE00B330BD00BD0B592ABE0B22
:1004B800592ABF0B592A080083120313DA01DB01FA
:1004C800831203135E08031D6A2A6B2A702A0A1214
:1004D8008A15B5210A128A11831203133108A30061
:1004E8003208A4000A128A1555220A128A118312A8
:1004F80003135D08B700B801B901BA013A08C6008C
:100508003908C5003808C4003708C300AA2A3308C8
:10051800AB003408AC0010300A128A1515240A12F0
:100528008A11003A0319992A9A2A9B2AFD2A183017
:1005380083120313B9006130B8005730B700B70B06
:10054800A32AB80BA32AB90BA32AAA2A8312031336
:100558004308B7004408B8004508B9004608BA007F
:100568003508BB003608BC000030BC1BFF30BD009E
:10057800BE003B08B7073C0803183C0FC42AC52A2D
:10058800B8073D0803183D0FCA2ACB2AB9073E0809
:1005980003183E0ABA075D08BF00C001C101C201C5
:1005A8004208803AFF003A08803A7F02031DE62A93
:1005B80039084102031DE62A38084002031DE62ACD
:1005C80037083F02031CE92AEA2A8B2A0130DA0796
:1005D8000318DB0A0030DB075B08803AFF00803035
:1005E8007F02031DF92A04305A02031CFC2AFD2A43
:0405F800642A080069
:10060000FF1B0A2B83137F1883170008840A031922
:10061000FF0A08007F087F398A000408840A03194A
:10062000FF0A8200733461346434643461346D349D
:1006300034343234303431342F34663465346534F4
:10064000643473342F344C3469346734683474340C
:100650003434003469346F342E346134643461349A
:10066000663472347534693474342E3463346F34C0
:100670006D340034013400340A34003464340034FE
:10068000E8340334103427343134383438343334D4
:100690000034783478347834783478347834783472
:1006A00078347834783478347834783478347834EA
:1006B00078347834783478347834783478347834DA
:1006C00078347834783478347834783478347834CA
:1006D00078340034733461346434643461346D3498
:1006E00034343234303431342F3466346534653444
:1006F000643473342F344C3469346734683474345C
:1007000033340034733461346434643461346D34AC
:1007100034343234303431342F3466346534653413
:10072000643473342F344C3469346734683474342B
:1007300032340034733461346434643461346D347D
:1007400034343234303431342F34663465346534E3
:10075000643473342F344C346934673468347434FB
:1007600031340034733461346434643461346D344E
:10077000343432343034313400344134423443344C
:1007800044344534463400344D34513454345434B4
:1007900000343C34003401340034C2340334413476
:1007A00054342B3443344934503453345434413466
:1007B000523454343D34223454344334503422348B
:1007C0002C34223469346F342E346134643461340F
:1007D000663472347534693474342E3463346F344F
:1007E0006D3422342C3431343834383433340034DA
:1007F000413454342B34433457344A344134503424
:100800003D34223477346934663469345F346E346D
:1008100061346D34653422342C34223470346134C4
:100820007334733477346F34723464342234003464
:1008300048346F346D346534203441347534743445
:100840006F346D346134743469346F346E342034F1
:1008500000345534733469346E3467342034503482
:100860004934433431343634463438343734373409
:1008700041340034453453345034203449346E34D8
:100880006934743469346C3469347A3469346E345C
:100890006734003450346C346534613473346534F7
:1008A000203457346134693474342E342E342E3469
:1008B00000344C34313420342034203420344C344F
:1008C000323420342034203420344C343334003457
:1008D000413454342B344334493450345334453444
:1008E0004E3444343D34253464340034413454347B
:1008F0002B34433457344D344F34443445343D3431
:10090000333400344C3469346734683474343134EB
:100910004F344634463400344C34693467346834D8
:10092000743432344F344634463400344C346934F1
:1009300067346834743433344F34463446340034C6
:100940004C34693467346834743434344F34463446
:10095000463400344C346934673468347434313488
:100960004F344E3400344C34693467346834743452
:1009700032344F344E3400344C3469346734683484
:10098000743433344F344E3400344C346934673467
:100990006834743434344F344E3400344134543475
:1009A0002B344334573451344134503400344134BF
:1009B00054342B34433449344634533452340034A1
:1009C00043344F344E344E3445344334543400347D
:1009D000413454342B34523453345434003441347D
:1009E00054344534313400344F344E3420340034E0
:1009F0004F344B34003441345434003483120313E5
:100A00003F08053ED20040080318013E003ED300D7
:100A10008312031352087F39C1004108DC00803083
:100A2000A0000030A1005308A3005208A2000A123F
:100A30008A1566240A128A11831203132108D3002F
:100A40002008D2005308803AFF0080307F02031D47
:100A50002B2D01305202031C2E2D2F2D322D8312EF
:100A60000313DC17831203135308803AFF0080300E
:100A70007F02031D3D2D013052020318402D412DF0
:100A8000082D83120313C601C7018230C10041083B
:100A9000831603179000013083120313C60703184F
:100AA000C70A0030C7075C08C1004608903E8400B2
:100AB0004108831780000130C6070318C70A0030B9
:100AC000C7074608903E840080010130C60703181E
:100AD000C70A0030C7074608903E84008001800A9C
:100AE0000130C6070318C70A0030C7074608903E02
:100AF000840080010130C6070318C70A0030C70709
:100B00003F08C1004608903E840041088000013043
:100B1000C6070318C70A0030C7073D08A0003E08F3
:100B2000A1004008A3003F08A2004608903E0A1218
:100B30008A1589220A128A11831203133F08C607F5
:100B40000318C70A4008C7074608903E8400831769
:100B500080010130C6070318C70A0030C7070A1210
:100B60008A15B5210A128A11683083120313AE0068
:100B70008430AF004708B1004608B000B9300A120F
:100B80008A1502270A128A11B93083120313A300AF
:100B90000030A4000A128A1555220A128A11183050
:100BA00083120313C3006130C2005730C100C10B70
:100BB000D72DC20BD72DC30BD72DDE2D0A128A15C8
:100BC000B5210A128A1183120313C401C501FC2D39
:100BD000831203134408903E8400831700080A120E
:100BE0008A159F210A128A11013083120313C40748
:100BF0000318C50A0030C5074508803AC1004708F8
:100C0000803A4102031D062E46084402031C092EA9
:100C10000A2EE82D1A300A128A159F210A128A110B
:100C20002F3083120313C300C130C200B330C100A0
:100C3000C10B182EC20B182EC30B182E080006303D
:100C4000831603139F0007120710871007118711DF
:100C50008501890108100A128A1523220A128A11B5
:100C6000183083120313A4008430A5000A128A15D9
:100C7000F9210A128A1183120313A001C0300A124B
:100C80008A15C1220A128A11293083120313A40083
:100C90008430A5000A128A15F9210A128A112F3010
:100CA00083120313D100C130D000B330CF00CF0B7B
:100CB000572ED00B572ED10B572EF7010030831231
:100CC0000313B2000130B100C230B0000030AF00F9
:100CD0000A128A157D230A128A110A128A158021A6
:100CE0000A128A11E83083120313A0000330A10016
:100CF0000A128A1576210A128A1183120313A0019F
:100D000001300A128A15C1220A128A114A3083124E
:100D10000313A4008430A5000A128A15F9210A12CF
:100D20008A118312031387110A128A1540250A12A9
:100D30008A11831203135E03031D9F2EA02EA82E7B
:100D40000A128A1133270A128A1183120313DE0151
:100D5000A00180300A128A15C1220A128A11593064
:100D600083120313A4008430A5000A128A15F92106
:100D70000A128A1183120313A001C0300A128A15C5
:100D8000C1220A128A1183120313071CC82EC92E0E
:100D9000D32E8830A4008430A5000A128A15F921C8
:100DA0000A128A11DC2EF430A4008430A5000A1245
:100DB0008A15F9210A128A1183120313A001C63081
:100DC0000A128A15C1220A128A1183120313871C80
:100DD000EA2EEB2EF52E8830A4008430A5000A12EE
:100DE0008A15F9210A128A11FE2EF430A4008430EB
:100DF000A5000A128A15F9210A128A118312031317
:100E0000A001CC300A128A15C1220A128A1183125B
:100E10000313071D0C2F0D2F172F8830A4008430CB
:100E2000A5000A128A15F9210A128A11202FF4301E
:100E3000A4008430A5000A128A15F9210A128A1129
:100E4000183083120313D1006130D0005730CF0027
:100E5000CF0B282FD00B282FD10B282F2F2F992ED7
:100E60000A128A110E28AA3083120313AB008430B1
:100E7000AC0010300A128A1515240A128A11003AA1
:100E80000319432F442F482F831203130710DB2F1E
:100E9000823083120313AB008430AC0010300A128E
:100EA0008A1515240A128A11003A0319582F592F4E
:100EB0005D2F831203130714DB2FB3308312031348
:100EC000AB008430AC0010300A128A1515240A12C7
:100ED0008A11003A03196D2F6E2F722F831203139C
:100EE0008710DB2F8C3083120313AB008430AC00EF
:100EF00010300A128A1515240A128A11003A0319B1
:100F0000822F832F872F831203138714DB2FBC308C
:100F100083120313AB008430AC0010300A128A1520
:100F200015240A128A11003A0319972F982F9C2F23
:100F3000831203130711DB2F963083120313AB00C8
:100F40008430AC0010300A128A1515240A128A1156
:100F5000003A0319AC2FAD2FB12F831203130715DD
:100F6000DB2FC53083120313AB008430AC0010308C
:100F70000A128A1515240A128A11003A0319C12F80
:100F8000C22FC62F831203130712DB2FA030831248
:100F90000313AB008430AC0010300A128A151524FC
:100FA0000A128A11003A0319D62FD72FDB2F83128A
:100FB00003130716DB2F0A128A15B5210A128A11AC
:100FC000080083120313A20022088400831700087C
:100FD0002006031DEC2FED2FEF2F2208F92F2208FA
:100FE00084000130A2070008031DF72FF82FE42F1B
:060FF0000030080001348E
:1012CE00023428340E340634013401340034640000
:1012DE008001840A04060319003404066F29831260
:1012EE0003132108F6002008F500633081000B1768
:1012FE000800043083160313810064308312031335
:10130E0081008B168B170B1708007E088A007F084A
:10131E0082000A128A158C210A128A158000840A0C
:10132E0004087D0603190034FF0A0319FE0A9029EA
:10133E0083120313A2000C1EA529A629A229220896
:10134E0099000C12063083120313A100FA30A0008C
:10135E00A00BAF29A10BAF290000080083120313C5
:10136E00A001A101831203132008103E84008317ED
:10137E0080010130A0070318A10A0030A10721083F
:10138E00803AFF0080307F02031DCF295F3020029C
:10139E00031CD229D329B929F7010800831203139C
:1013AE002008A2002108A300E2290130A207031899
:1013BE00A30A0030A3072308FF00220884000A12A4
:1013CE008A1100230A128A15003A031DEF29F0290B
:1013DE00DC2920082202A0002108031C210A230276
:1013EE00A1000800122AA001A00A2508FF00240867
:1013FE0084000A128A1100230A128A150A128A150B
:10140E00C1220A128A15013083120313A40703188E
:10141E00A50A0030A507831203132508FF00240830
:10142E0084000A128A1100230A128A15003A031D3B
:10143E00212A222AFA290800243084008312031359
:10144E005F0883138000840A60088000840A6108A4
:10145E008000840A62088000840A63088000A90163
:10146E00AA01A0012908243E8400831300080A1251
:10147E008A15C1220A128A15013083120313A90795
:10148E000318AA0A0030AA0700302A0205300319F1
:10149E002902031C532A542A382A08006C2A2408CD
:1014AE00FF00230884000A128A1100230A128A15EB
:1014BE000A128A159F210A128A150130831203130C
:1014CE00A3070318A40A0030A407831203132408E9
:1014DE00FF00230884000A128A1100230A128A15BB
:1014EE00003A031D7B2A7C2A562A0D300A128A15D1
:1014FE009F210A128A150A300A128A159F210A1292
:10150E008A15080083120313A9002008A6002108DB
:10151E00A7002908A4002408A800B22A2708FF0063
:10152E00260884000A128A1100230A128A15A400C2
:10153E002408A5000130A6070318A70A0030A70744
:10154E002508A40028088400240883178000013091
:10155E00A4002408A8070130A2020030031CA30334
:10156E00A302220A031DBF2A230A031DBF2AC02A73
:10157E00952A080083120313A3002308A100043048
:10158E000310A10CFF3E031DC72A21080F39850049
:10159E002018D22AD62A831203138914D92A831229
:1015AE000313891009141E3083120313A200EA30AC
:1015BE00A100A10BE02AA20BE02A00008312031364
:1015CE00091023080F39850009141E3083120313E6
:1015DE00A200EA30A100A10BF22AA20BF22A00000F
:1015EE008312031309100800831203132808290419
:1015FE000319022B032B322BAD01AD0A112B013037
:10160E000310A80DA90DFF3E031D072B0130AC00E2
:10161E002C08AD07A91F142B152B062B29082B02FE
:10162E00031D1B2B28082A02031C1E2B1F2B252BE8
:10163E002808AA022908031CAB03AB0201300310D1
:10164E00A90CA80CFF3E031D262B0130AD02031D75
:10165E00312B322B152B2B08A9002A08A8000800C5
:10166E0083120313A601A701200821040319402B9E
:10167E00412B782BA501A50A4F2B01300310A00D8D
:10168E00A10DFF3E031D452B0130A4002408A50724
:10169E00A11F522B532B442B01300310A60DA70D67
:1016AE00FF3E031D542B21082302031D602B20082F
:1016BE002202031C632B642B6B2B2008A202210831
:1016CE00031CA303A302261401300310A10CA00CCB
:1016DE00FF3E031D6C2B0130A502031D772B782BCB
:1016EE00532B2708A1002608A00008008316031319
:1016FE001815831203132F08B3003008B4003108F5
:10170E00B5003208B60004300310B30DB40DB50D9C
:10171E00B60DFF3E031D8B2B3608A3003508A20025
:10172E003408A1003308A0000130A7001930A6002C
:10173E004030A5000030A4000A128A15B8250A12FE
:10174E008A15831203132008FF3E83160313990094
:10175E001812831203139817831603138717071390
:10176E008312031318168316031398168B170B1771
:10177E008C160C12831203138C120800831203139F
:10178E00AA00042C2A088400831700080319D02B02
:10179E00D12BE42B2508FF00240884000A128A119D
:1017AE0000230A128A15A8002A088400831700084D
:1017BE0028060319E32BE42BFA2B2508FF00240837
:1017CE0084000A128A1100230A128A15A8002A0818
:1017DE00840083170008A90028082902A400A50187
:1017EE00031CA503142C0130A8002808AA070130F9
:1017FE00A4070318A50A0030A5070130A602003081
:10180E00031CA703A702260A031D112C270A031D7A
:10181E00112C122CC92BA401A5010800831203134D
:10182E00B000572C2B08A4002C08A5002B08A000F4
:10183E002C08A1000A128A15D5210A128A158312C4
:10184E0003132108A7002008A60030080A128A15E3
:10185E00C5230A128A158312031324082504031DB7
:10186E00392C3A2C3C2C3008652C2C08FF002B0808
:10187E0084000A128A1100230A128A15AD00AE01E5
:10188E002D08A0002E08A1003008013E0A128A1170
:10189E00E1270A128A1583120313AF002F08B00036
:1018AE00300803195B2C5C2C642C300884008317E1
:1018BE000008031D632C642C192C003008008312C1
:1018CE000313A601A11F6C2C6D2C742CA009A10969
:1018DE00A00A0319A10AA601A60AA31F772C782C29
:1018EE00812CA209A309A20A0319A30A0130A4009C
:1018FE002408A606A701A801200821040319882C94
:10190E00892CC02CA501A50A972C01300310A00D1F
:10191E00A10DFF3E031D8D2C0130A4002408A50748
:10192E00A11F9A2C9B2C8C2C01300310A70DA80DF7
:10193E00FF3E031D9C2C21082302031DA82C20080A
:10194E002202031CAB2CAC2CB32C2008A2022108C3
:10195E00031CA303A302271401300310A10CA00C37
:10196E00FF3E031DB42C0130A502031DBF2CC02C5D
:10197E009B2C26080319C42CC52CCA2CA709A80910
:10198E00A70A0319A80A2808A1002708A000080022
:10199E00831203138C1ED42CD52C042D8316031303
:1019AE008C1EDA2CDB2C042D831203131A08F00084
:1019BE007008F40074080319E52CE62C032D740846
:1019CE00F0007708103E84007008831780001E30E8
:1019DE007702031CF32CF42CF82C0130F000700865
:1019EE00DE000130F0007008F7075F307702031C4D
:1019FE00012D022D032DF7018C128B1E072D082DA4
:101A0E00372D0B1D0B2D0C2D372D0B117030831216
:101A1E0081000130D6070318D70A0030D7075708C0
:101A2E00803AF0007608803A7002031D202D75086A
:101A3E005602031C232D242D372D0130F000700883
:101A4E0083120313DD073C305D02031C2F2D302D56
:101A5E00352D0130F0007008F800DD01D601D701F8
:101A6E0073088A0072088400710E8300FE0E7E0ECB
:101A7E0009000A128A1555260A128A15CF308312CA
:101A8E000313B1008330B200E030B3008430B400F1
:101A9E000530B5000030B6000A128A1160220A1213
:101AAE008A150A128A114E200A128A159A3083124A
:101ABE000313BD008330BE009A30A0008330A10016
:101ACE000A128A15D5210A128A15831203132108C8
:101ADE00C0002008BF000A128A11FE240A128A15BD
:101AEE00823083120313BD008330BE008230A0000B
:101AFE008330A1000A128A15D5210A128A15831283
:101B0E0003132108C0002008BF000A128A11FE2408
:101B1E000A128A156A3083120313BD008330BE0089
:101B2E006A30A0008330A1000A128A15D5210A124C
:101B3E008A15831203132108C0002008BF000A1261
:101B4E008A11FE240A128A1583120313A001013092
:101B5E000A128A15C1220A128A15831203138715D7
:101B6E00080083120313AA01A31FBE2DBF2DCC2D77
:101B7E00A009A109A209A309A00A0319A10A031920
:101B8E00A20A0319A30AAA01AA0AA71FCF2DD02DB4
:101B9E00DF2DA409A509A609A709A40A0319A50AF8
:101BAE000319A60A0319A70A0130A8002808AA06D5
:101BBE000030AE000030AD000030AC000030AB00A5
:101BCE0023082204210420040319EE2DEF2D3C2EB0
:101BDE00A901A90AFF2D0130A8000310A00DA10D27
:101BEE00A20DA30DA80BF42D0130A8002808A907FB
:101BFE00A31F022E032EF22D0130A8000310AB0DF1
:101C0E00AC0DAD0DAE0DA80B052E23082702031D3E
:101C1E001A2E22082602031D1A2E21082502031D44
:101C2E001A2E20082402031C1D2E1E2E2D2E2008D7
:101C3E00A4022108031C210FA5022208031C220F57
:101C4E00A6022308031C230FA7022B140130031036
:101C5E00A30CA20CA10CA00CFF3E031D2E2E0130D6
:101C6E00A902031D3B2E3C2E032E2A080319402EDB
:101C7E00412E4C2EAB09AC09AD09AE09AB0A0319C6
:101C8E00AC0A0319AD0A0319AE0A2E08A3002D08DB
:101C9E00A2002C08A1002B08A00008008312031339
:101CAE00A00101300A128A15C1220A128A153A3091
:101CBE0083120313A4008430A5000A128A15F92199
:101CCE000A128A15E83083120313A3008430A4008D
:101CDE000A128A1555220A128A15753083120313B9
:101CEE00C900E230C800C330C700C70B7C2EC80B3A
:101CFE007C2EC90B7C2E832EFB3083120313B10076
:101D0E008430B200F830B3008430B4000230B50035
:101D1E000030B6000A128A1160220A128A15EF30BC
:101D2E0083120313B1008430B200F830B300843054
:101D3E00B4000230B5000030B6000A128A116022DB
:101D4E000A128A15763083120313B1008430B20062
:101D5E00F830B3008430B4000230B5000030B60065
:101D6E000A128A1160220A128A15CE3083120313C8
:101D7E00B1008430B200F830B3008430B4000230C9
:101D8E00B5000030B6000A128A1160220A128A15B6
:101D9E00F83083120313B1008330B200F830B30071
:101DAE008430B4000330B5000030B6000A128A1138
:101DBE0060220A128A15D73083120313A3008430CF
:101DCE00A4000A128A1555220A128A150A128A15B9
:101DDE00B5210A128A150C3083120313C900B130D3
:101DEE00C8002A30C700C70BFA2EC80BFA2EC90B33
:101DFE00FA2E0000080083120313BB003030B2002D
:101E0E003208B600E32F25303C0603190F2F102F92
:101E1E001C2F3C08B2003B0884003208831380005C
:101E2E000130B2003208BB07E32FB7012F08B30011
:101E3E002E08B200AE0A0319AF0A3308FF003208AB
:101E4E0084000A128A1100230A128A15BC00B400FB
:101E5E00B5013508003A0319352FE32F3408003A3F
:101E6E000319FB2F643A0319402F0D3A0319402F23
:101E7E00E32F3608840083130008B900840A000893
:101E8E00BA000230B2003208B607BA1F4F2F502FD9
:101E9E00592F0330B2003208B704B909BA09B90A8A
:101EAE000319BA0ABC01BC0A3C08B20032073A3E1A
:101EBE00840083300318013EFF000A128A110023AA
:101ECE000A128A15B3000A128A1100230A128A1501
:101EDE00B40034083A02031D762F33083902031872
:101EEE00792F7A2F7B2F852F0130B2003208BC0755
:101EFE0005303C06031D842F852F5B2F37080339D1
:101F0E0003198A2F8B2F962F2D30B2003B08840099
:101F1E003208831380000130B2003208BB073C0840
:101F2E00B2003208B800DA2F0A30A8000030A9003B
:101F3E003808B20032073A3E840083300318013E5F
:101F4E00FF000A128A1100230A128A15A0000A1233
:101F5E008A1100230A128A15A1003A08A300390833
:101F6E00A2000A128A1537230A128A158312031346
:101F7E002108AB002008AA000A128A15FB220A12B9
:101F8E008A15831203132808303EB3003308BC00B1
:101F9E003C08B2003B0884003208831380000130F5
:101FAE00B2003208BB07FF30B2003208B807380A59
:101FBE00031DE22FE32F9B2F2F08B3002E08B20034
:101FCE00AE0A0319AF0A3308FF00320884000A1262
:101FDE008A1100230A128A15B4003408BC003C088A
:101FEE00031DFA2FFB2F0A2F3B0884008313800159
:021FFE000800D9
:02400E007A3FF7
:00000001FF
