:020000040000FA
:100000000A128A11F22F00308A000408840A82073B
:100010000034203420342034203420342034203460
:100020002034203420342034203420342034203430
:10003000203400347334773469347434633468346E
:1000400020347034723465347334733465346434FA
:10005000003443346934723463347534693474342D
:100060002034443469346734653473347434003470
:10082E0064008001840A0406031900340406182C9F
:10083E00F8007C1483120313061478080A128A1126
:10084E0038250A128A110800F400831203130610C9
:10085E0086107408860006152C30F0000130F10069
:10086E000A128A1140240A128A11831203130611E6
:10087E000800F201F301F201F3014B2C0130F207F3
:10088E000318F30A0030F30771087302031D512C8D
:10089E0070087202031C542C552C452C080083162C
:1008AE00031386010815881507160A128A11892561
:1008BE000A128A1183120313070E0139F800F90187
:1008CE007808B8007908B9000800FB00F901FA01B0
:1008DE00832C79087B0784000A128A1103200A12DE
:1008EE008A110A128A111F240A128A110130F9077D
:1008FE000318FA0A0030FA0779087B0784000A12F7
:10090E008A1103200A128A11003A031D8F2C902C93
:10091E00702C0800F201F301AF2CF401F501013047
:10092E00F4070318F50A0030F5077508803AFF0042
:10093E0084307F02031DA52CFC307402031CA82CEE
:10094E00A92C962C0130F2070318F30A0030F30796
:10095E0071087302031DB52C70087202031CB82CAB
:10096E00B92C942C0800700871040319BF2CC02CEC
:10097E00EF2CF501F50ACE2C01300310F00DF10D20
:10098E00FF3E031DC42C0130F4007408F507F11F5F
:10099E00D12CD22CC32C71087302031DD82C7008D5
:1009AE007202031CDB2CDC2CE22C7008F2027108A4
:1009BE00031CF303F30201300310F10CF00CFF3EA5
:1009CE00031DE32C0130F502031DEE2CEF2CD22C6F
:1009DE007308F1007208F0000800F501F6017008C6
:1009EE0071040319FB2CFC2C332DF701F70A0A2D89
:1009FE0001300310F00DF10DFF3E031D002D0130EF
:100A0E00F4007408F707F11F0D2D0E2DFF2C013089
:100A1E000310F50DF60DFF3E031D0F2D7108730229
:100A2E00031D1B2D70087202031C1E2D1F2D262D5B
:100A3E007008F2027108031CF303F30275140130FF
:100A4E000310F10CF00CFF3E031D272D0130F702B1
:100A5E00031D322D332D0E2D7608F1007508F00092
:100A6E000800F6007C1C3C2D3D2D3F2D7C10422DA8
:100A7E008312031306108312031386107608F400F4
:100A8E007408F700F030F4007408F7050F30F40026
:100A9E00740886057708F4007408860406152C3051
:100AAE00F0000130F1000A128A1140240A128A1154
:100ABE008312031306117608F40003300310F40DAD
:100ACE00FF3E031D652D0310740DF5007508F7002C
:100ADE00F030F4007408F7050F30F4007408860542
:100AEE007708F4007408860406152C30F0000130E7
:100AFE00F1000A128A1140240A128A11831203137A
:100B0E00061108002C30F0000130F1000A128A1193
:100B1E0040240A128A1130300A128A112B240A122A
:100B2E008A112C30F0000130F1000A128A11402493
:100B3E000A128A1130300A128A112B240A128A11D3
:100B4E002C30F0000130F1000A128A1140240A12F2
:100B5E008A1130300A128A112B240A128A112C3073
:100B6E00F0000130F1000A128A1140240A128A1193
:100B7E0020300A128A112B240A128A112C30F0000E
:100B8E000130F1000A128A1140240A128A110C3027
:100B9E000A128A1138250A128A112C30F0000130FF
:100BAE00F1000A128A1140240A128A1104300A1224
:100BBE008A1138250A128A112C30F0000130F1000A
:100BCE000A128A1140240A128A1185300A128A11D9
:100BDE0038250A128A112C30F0000130F1000A1269
:100BEE008A1140240A128A1106300A128A113825F7
:100BFE000A128A112C30F0000130F1000A128A110B
:100C0E0040240A128A1101300A128A1138250A125A
:100C1E008A112C30F0000130F1000A128A114024A2
:100C2E000A128A1108000A128A1156240A128A110F
:100C3E0021300A128A116C240A128A11A8300A1263
:100C4E008A1138250A128A1183120313BA01BB01C5
:100C5E00A8300A128A1138250A128A118312031338
:100C6E0008193A2E3B2E502E1430F0000030F100B1
:100C7E000A128A1191240A128A1183120313081977
:100C8E00492E4A2E502E12300A128A116C240A1244
:100C9E008A1183120313070E0139C600C7013908E2
:100CAE004706031D5C2E3808460603195F2E602E7C
:100CBE00BC2E080CC600C60C460C0139C700C80174
:100CCE0039084806031D6D2E380847060319702E85
:100CDE00712E962E0130BA070318BB0A0030BB07DF
:100CEE00A8300A128A1138250A128A1101300A1206
:100CFE008A116C240A128A11A8300A128A11382518
:100D0E000A128A11831203133B08FA003A08F900FB
:100D1E0001300A128A11CA260A128A11BC2EA83074
:100D2E000A128A1138250A128A11FF308312031310
:100D3E00BA070318BB0AFF30BB0701300A128A112B
:100D4E006C240A128A11A8300A128A1138250A1246
:100D5E008A11831203133B08FA003A08F900013096
:100D6E000A128A11CA260A128A1183120313070E57
:100D7E000139C600C7014608B8004708B9002F2E32
:100D8E000A128A1100283C3084000A30FF008313B7
:100D9E008001840AFF0BCE2E1030F0002730F100B8
:100DAE007A08F3007908F2000A128A11F4240A1262
:100DBE008A11710883120313C5007008C400103025
:100DCE00F0002730F1007A08F3007908F2000A12D9
:100DDE008A11BA240A128A11710883120313C300EE
:100DEE007008C200E830F0000330F1004308F30051
:100DFE004208F2000A128A11BA240A128A117108E4
:100E0E0083120313C1007008C000E830F0000330F5
:100E1E00F1004308F3004208F2000A128A11F4248A
:100E2E000A128A11710883120313C3007008C200DC
:100E3E006430F0000030F1004108F3004008F20089
:100E4E000A128A11BA240A128A1171088312031324
:100E5E00BF007008BE006430F0000030F1004108A1
:100E6E00F3004008F2000A128A11F4240A128A11C1
:100E7E00710883120313C1007008C0000A30F0001D
:100E8E000030F1003F08F3003E08F2000A128A110A
:100E9E00BA240A128A11710883120313BD00700856
:100EAE00BC000A30F0000030F1003F08F3003E08AD
:100EBE00F2000A128A11F4240A128A11710883129E
:100ECE000313BF007008BE0044084504031D702FB5
:100EDE00712FC02F42084304031D762F772F972FB3
:100EEE004008303E0A128A111F240A128A112E302F
:100EFE000A128A111F240A128A11831203133E0842
:100F0E00303E0A128A111F240A128A118312031309
:100F1E003C08303E0A128A111F240A128A11F12F40
:100F2E004208303E0A128A111F240A128A118312B5
:100F3E0003134008303E0A128A111F240A128A1126
:100F4E002E300A128A111F240A128A1183120313D9
:100F5E003E08303E0A128A111F240A128A11831289
:100F6E0003133C08303E0A128A111F240A128A11FA
:100F7E00F12F4408303E0A128A111F240A128A11D8
:100F8E00831203134208303E0A128A111F240A12DA
:100F9E008A11831203134008303E0A128A111F244D
:100FAE000A128A112E300A128A111F240A128A116D
:100FBE00831203133E08303E0A128A111F240A12AE
:100FCE008A11831203133C08303E0A128A111F2421
:100FDE000A128A110800FC018313203084003C3071
:100FEE000A128A1117240A128A1183010A128A110F
:020FFE001A2EA9
:02400E007A3FF7
:00000001FF
