:020000040000FA
:100000000A128A11EF2F00308A000408840A82073E
:100010000034203420342034203420342034203460
:100020002034203420342034203420342034203430
:10003000203400344F34753474347034753474346F
:100040003A342D34203420342034203420342034E9
:10005000003463346934723463347534693474340D
:100060002034443469346734653473347434003470
:1000700044344134543441342034533465346E3480
:1000800074343A342D34203400346D346334703495
:10009000343439343234313420347734693474347C
:1000A00068340034503449344334313436344634BF
:1000B00038343734373441340034573465346C3491
:1000C00063346F346D346534203474346F340034E9
:0400D000563400346E
:10046600F00070088312031393000800F80083124B
:1004760003135614061478080A128A11F7220A1270
:100486008A11080083160313871294012030831201
:1004960003139400831603138711080083160313AE
:1004A600860107100A128A1115240A128A110A12E5
:1004B6008A1145220A128A110800F40083120313D6
:1004C600061086107408860006152C30F0000130E0
:1004D600F1000A128A1175220A128A118312031375
:1004E60006110800F201F301F201F301802A01303E
:1004F600F2070318F30A0030F30771087302031DAD
:10050600862A70087202031C892A8A2A7A2A080017
:1005160080300A128A11F7220A128A1101300A1251
:100526008A11A4220A128A11A8300A128A11F72205
:100536000A128A1101300A128A11A4220A128A1199
:100546000800FB00F901FA01BB2A79087B07840041
:100556000A128A1103200A128A110A128A113922F2
:100566000A128A110130F9070318FA0A0030FA074D
:1005760079087B0784000A128A1103200A128A115D
:10058600003A031DC72AC82AA82A08007208F800DC
:100596007108F7007808F4007708F3007408F30090
:1005A600F4017308F9007408FA0030307904F90090
:1005B60000307A04FA00FF307705F5000030780540
:1005C600F60083120313071079080A128A113322E0
:1005D6000A128A1175080A128A1133220A128A111E
:1005E6008312031307140800F60083120313561C24
:1005F600FD2AFE2A002B5610012B061086107608BF
:10060600F4007408F700F030F4007408F7050F30B2
:10061600F400740886057708F40074088604061545
:100626002C30F0000130F1000A128A1175220A12EC
:100636008A118312031306117608F400033003109F
:10064600F40DFF3E031D222B0310740DF5007508F3
:10065600F700F030F4007408F7050F30F400740862
:1006660086057708F4007408860406152C30F00019
:100676000130F1000A128A1175220A128A118312B8
:1006860003130611080080300A128A11F7220A1293
:100696008A1155300A128A11A4220A128A11A83028
:1006A6000A128A11F7220A128A1121300A128A11B5
:1006B600A4220A128A117F3083120313A200D430B7
:1006C600A1003130A000A00B662BA10B662BA20B5C
:1006D600662B0A128A118B220A128A1180300A129C
:1006E6008A11F7220A128A113D300A128A11A422AF
:1006F6000A128A11A8300A128A11F7220A128A11DE
:100706004A300A128A11A4220A128A115930831217
:100716000313A200C830A1000730A000A00B912B44
:10072600A10B912BA20B912B982B0800031083127F
:1007360003133C0D3D0DBE003E08C4004408031DD6
:10074600A52BA62BAF2B0030BD000030BC0000301F
:10075600BB000030BA00142C3A08BE003B08BF00AC
:100766003C08C0003D08C1001F300310C10CC00C7E
:10077600BF0CBE0CFF3E031DB82B3E08C20042084C
:10078600C300BC17FF30BA05FF30BB05FF30BC0500
:100796000030BD059630C402C41FD22BD32BED2BDF
:1007A6004408803A973E0318D92BDA2BDB2BA62B6D
:1007B60001300310BD0CBC0CBB0CBA0CFF3E031D74
:1007C600DC2B0130BE003E08C407031DEB2BEC2BCF
:1007D600DB2B042C20304402031CF22BF32BFF2BC3
:1007E600A62B0130BE000310BA0DBB0DBC0DBD0D0E
:1007F600BE0BF62B0130C4024408031D032C042C47
:10080600F42B43080319082C092C142CBA09BB092C
:10081600BC09BD09BA0A0319BB0A0319BC0A0319A4
:10082600BD0A08002C30F0000130F1000A128A11CE
:1008360075220A128A1130300A128A1160220A12AF
:100846008A112C30F0000130F1000A128A1175224B
:100856000A128A1130300A128A1160220A128A118B
:100866002C30F0000130F1000A128A1175220A12AA
:100876008A1130300A128A1160220A128A112C302B
:10088600F0000130F1000A128A1175220A128A114B
:1008960020300A128A1160220A128A112C30F000C6
:1008A6000130F1000A128A1175220A128A110C30DF
:1008B6000A128A11F7220A128A112C30F00001302E
:1008C600F1000A128A1175220A128A1104300A12DC
:1008D6008A11F7220A128A112C30F0000130F10039
:1008E6000A128A1175220A128A1185300A128A1191
:1008F600F7220A128A112C30F0000130F1000A1298
:100906008A1175220A128A1106300A128A11F722F2
:100916000A128A112C30F0000130F1000A128A11F5
:1009260075220A128A1101300A128A11F7220A1256
:100936008A112C30F0000130F1000A128A1175225A
:100946000A128A1108000A128A1151220A128A1101
:100956000A128A1146230A128A11013083120313DE
:10096600CA000030CB00831203134A08F0004B087C
:10097600F1000030F11BFF30F200F30001300A12E3
:100986008A1158250A128A11730883120313A700C5
:100996007208A6007108A5007008A4003A30A300EA
:1009A600A030A2000A30A1000130A0000A128A116C
:1009B60012260A128A11831203132308BD00220885
:1009C600BC002108BB002008BA000A128A1199232C
:1009D6000A128A11831203133B08C9003A08C80099
:1009E6000A128A118B220A128A1180300A128A117F
:1009F600F7220A128A1130300A128A11A4220A1228
:100A06008A118312031348080A128A1139220A121C
:100A16008A11A8300A128A11F7220A128A11123094
:100A26000A128A11A4220A128A11831203134A088F
:100A36000A128A1139220A128A1160300A128A11A0
:100A4600A4220A128A11831203134908F2004808E5
:100A5600F1000A128A11C9220A128A114D30831234
:100A66000313C7001930C6004F30C500C50B392D1A
:100A7600C60B392DC70B392D013083120313CA0754
:100A86000318CB0A0030CB074B08803AFF008030B2
:100A96007F02031D502D06304A02031C532D542D90
:100AA600B62CB02C0A128A110028F800780803190F
:100AB6005D2D5E2D722DF31F612D622D722D700935
:100AC600FA007109FB007209FC007309FD00FA0ABD
:100AD6000319FB0A0319FC0A0319FD0A7A2D730888
:100AE600FD007208FC007108FB007008FA0073082C
:100AF600720471047004031D812D822D8B2D00302C
:100B0600F3000030F2000030F1000030F000112E4A
:100B16009630F4007408F9009D2D0130F400740835
:100B2600F90701300310FD0CFC0CFB0CFA0CFF3E20
:100B3600031D952DFE307D05031DA22DA32D902DA1
:100B4600BF2D0130F4007408F9070130FA070030B0
:100B560003180130FB07003003180130FC07003092
:100B660003180130FD0701300310FD0CFC0CFB0CD3
:100B7600FA0CFF3E031DB72DFF307D05031DC42D66
:100B8600C52DA42DD12D0130F9020130F40003103A
:100B9600FA0DFB0DFC0DFD0DF40BCA2DFC1BD42D1F
:100BA600D52DDB2D023079020318DA2DDB2DC62D6B
:100BB6007918DE2DDF2DE72DFF30FA05FF30FB0516
:100BC6007F30FC05FF30FD050310F90C7908F400B1
:100BD600F501F601F70118300310F40DF50DF60DC9
:100BE600F70DFF3E031DEF2D7408FA047508FB048C
:100BF6007608FC047708FD0478080319032E042EF2
:100C0600092EF31F072E082E092EFD177D08F30067
:100C16007C08F2007B08F1007A08F00008008312D5
:100C2600031327088039A8002808B1002708A80060
:100C36002807A9002908B800A61F222E232E242E35
:100C4600381438080319282E292E392E380A031D80
:100C56002D2E2E2E362E0030A7000030A600003096
:100C6600A5000030A400A617A701412E0030A7005A
:100C76000030A6000030A5000030A400230880390B
:100C8600A8002808B1062308A8002807A9002908F3
:100C9600B900A21F4F2E502E512E391439080319B0
:100CA600552E562E662E390A031D5A2E5B2E632E9E
:100CB6000030A3000030A2000030A1000030A000E8
:100CC600A217A3016E2E0030A3000030A200003050
:100CD600A1000030A0002308220421042004031DE3
:100CE600752E762E8F2E0030A7000030A60000301D
:100CF600A5000030A4008030A6047F30A704310888
:100D0600A8002808A7042708A3002608A20025088B
:100D1600A1002408A000EE2F3808031D932E942E60
:100D26009D2E0030A3000030A2000030A10000304C
:100D3600A000EE2F3808A800A9012908AB00390841
:100D46002802AA00031CAB032A087F3EB2002B0828
:100D56000318013E003EB3002708B0002608AF0086
:100D66002508AE002408AD000030A7000030A6001C
:100D76000030A5000030A4000030B7000030B600F7
:100D86000030B5000030B400B901132F390803193B
:100D9600CD2ECE2EEE2E0130A8000310AD0DAE0DD9
:100DA600AF0DB00DA80BD02E0130A8000310A40D76
:100DB600A50DA60DA70DA80BD92EB71FE32EE42E61
:100DC600E52E24140130A8000310B40DB50DB60DA0
:100DD600B70DA80BE72E23083002031DFC2E2208B0
:100DE6002F02031DFC2E21082E02031DFC2E2008B7
:100DF6002D02031CFF2E002F0F2F37172008AD02E0
:100E06002108031C210FAE022208031C220FAF0289
:100E16002308031C230FB0020130A8002808B907D5
:100E26001A303902031C182F192FC92E30082F0427
:100E36002E042D040319202F212F402F3414402F68
:100E46000130A8000310A40DA50DA60DA70DA80B33
:100E5600252FB71F2F2F302F312F24140130A80034
:100E66000310B40DB50DB60DB70DA80B332FFF301B
:100E7600B2070318B30AFF30B307A61F432F442F48
:100E8600232FB901B71F482F492F652FFF3034058F
:100E9600A800FF303505A900FF303605AA007F30CF
:100EA6003705AB002B082A042904280403195C2FF4
:100EB6005D2F602FB901B90A652F241C632F642F9B
:100EC600652F5D2F39080319692F6A2F9B2F013073
:100ED600A407003003180130A507003003180130BD
:100EE600A607003003180130A707271C7B2F7C2F8D
:100EF6009B2F2408A8002508A9002608AA00270871
:100F0600AB000130AC002B0DAB0CAA0CA90CA80C45
:100F1600AC0B862F2B08A7002A08A6002908A500D7
:100F26002808A4000130B2070318B30A0030B3073B
:100F36003308803AFF0080307F02031DA42FFF3064
:100F46003202031CA72FA82FB62FFF3083120313DC
:100F5600B2000030B3000030A7000030A600003019
:100F6600A5000030A400831203133308803AFF0063
:100F760080307F02031DC12F013032020318C42FB7
:100F8600C52FD22F83120313B201B3010030A7007D
:100F96000030A6000030A5000030A400B101831285
:100FA60003133208A8002808B800381CDB2FDC2FF2
:100FB600DE2FA617E22F7F30A8002808A6053808DE
:100FC600A8000310280CA9002908A7003108A800CA
:100FD6002808A704862E080083120313D601CC0125
:100FE600CD01CE01CF01D001D101D201D301D4016F
:0A0FF600D50183010A128A11A62C0E
:02400E007A3FF7
:00000001FF
