:020000040000FA
:100000000A128A11F32F00308A000408840A82073A
:100010000034203420342034203420342034203460
:100020002034203420342034203420342034203430
:1000300020340034773469347434683420345034D4
:100040004934433431343634463438343734373431
:100050004134003443346834653463346B342034C1
:10006000733475346D3420346534723472346F34C3
:1000700072340034633469347234633475346934EF
:1000800074342034443469346734653473347434DC
:1000900000344E346F342034523465347334703449
:1000A0006F346E34733465342E3400344434483441
:1000B0005434313431342034533465346E34733431
:1000C0006F3472340034483475346D3469346434B8
:1000D0006934743479343A34203400345734653414
:1000E0006C3463346F346D346534203474346F345D
:1000F00000344534723472346F3472342134213414
:1001000021340034543465346D3470343A3420343E
:100110000034433420342034203400342534203457
:040120002034003453
:1006BE0064008001840A0406031900340406602BCA
:1006CE008316031386010A128A11FB250A128A1158
:1006DE000A128A117C250A128A110800F8000130CC
:1006EE0083120313AA000030AB00061478080A1216
:1006FE008A1168240A128A110800F4008312031367
:10070E00061086107408860006152C30F000013095
:10071E00F1000A128A1199230A128A118312031305
:10072E0006110800F201F301F201F301A42B0130CE
:10073E00F2070318F30A0030F30771087302031D62
:10074E00AA2B70087202031CAD2BAE2B9E2B080039
:10075E0080300A128A1168240A128A1101300A1294
:10076E008A1101240A128A11A8300A128A116824E9
:10077E000A128A1101300A128A1101240A128A11F0
:10078E000800831603138812831203138812753020
:10079E00F100E130F000F00BD22BF10BD22B8312D3
:1007AE00031388163130F000F00BDB2BDE2B831693
:1007BE0003138816080083120313B3014230F000AE
:1007CE00F00BE72B000083120313881AEF2BF02B8C
:1007DE00002C8530F000F00BF22B83120313881ED1
:1007EE00F92BFA2BFC2BB301B30A5330F000F00BAC
:1007FE00FE2B0800FB00F901FA01182C79087B0783
:10080E0084000A128A1103200A128A110A128A110E
:10081E0075230A128A110130F9070318FA0A0030FB
:10082E00FA0779087B0784000A128A1103200A123C
:10083E008A11003A031D242C252C052C0800F301E7
:10084E0083120313881E2C2C2D2C272C3130F000F4
:10085E00F00B2F2C322C83120313881A372C382CC2
:10086E00492C0130F0007308073C013E402C031068
:10087E00F00DFF3E031D3E2C7008FF3AF10071088B
:10088E00F2055C2C0130F0007308073C013E512C40
:10089E000310F00DFF3E031D4F2C7008F100710880
:1008AE00F204881A5B2C5C2C582C0130F000700876
:1008BE00F30708307302031C652C662C272C720874
:1008CE000800F600831203132A082B040319702C58
:1008DE00712C742CAA01AB01752C061086107608AB
:1008EE00F4007408F700F030F4007408F7050F30C8
:1008FE00F400740886057708F4007408860406155B
:10090E002C30F0000130F1000A128A1199230A12DC
:10091E008A118312031306117608F40003300310B4
:10092E00F40DFF3E031D962C0310740DF500750893
:10093E00F700F030F4007408F7050F30F400740877
:10094E0086057708F4007408860406152C30F0002E
:10095E000130F1000A128A1199230A128A118312A8
:10096E0003130611080083120313B501FC1FC02CDC
:10097E00C12CC82CFB09FC09FB0A0319FC0AB501A2
:10098E00B50AFA1FCB2CCC2CD12CF909FA09F90A8D
:10099E000319FA0A79087A040319D62CD72C062DD6
:1009AE00B401B40AE52C01300310F90DFA0DFF3E27
:1009BE00031DDB2C0130FD007D08B407FA1FE82C67
:1009CE00E92CDA2C7A087C02031DEF2C79087B02C5
:1009DE00031CF22CF32CF92C7908FB027A08031C69
:1009EE00FC03FC0201300310FA0CF90CFF3E031D50
:1009FE00FA2C0130B402031D052D062DE92C350805
:100A0E0003190A2D0B2D102DFB09FC09FB0A0319E6
:100A1E00FC0A7C08FA007B08F9000800F601F11FB9
:100A2E00192D1A2D212DF009F109F00A0319F10AD9
:100A3E00F601F60AF31F242D252D2E2DF209F309AA
:100A4E00F20A0319F30A0130F4007408F606F701EE
:100A5E00F801700871040319352D362D6D2DF50131
:100A6E00F50A442D01300310F00DF10DFF3E031D6C
:100A7E003A2D0130F4007408F507F11F472D482D6B
:100A8E00392D01300310F70DF80DFF3E031D492DD2
:100A9E0071087302031D552D70087202031C582D28
:100AAE00592D602D7008F2027108031CF303F30236
:100ABE00771401300310F10CF00CFF3E031D612D75
:100ACE000130F502031D6C2D6D2D482D760803198E
:100ADE00712D722D772DF709F809F70A0319F80A07
:100AEE007808F1007708F000080080300A128A11A9
:100AFE0068240A128A1166300A128A1101240A1217
:100B0E008A111A3083120313B6005E30B5006D30B1
:100B1E00B400B40B902DB50B902DB60B902D972DD8
:100B2E00A8300A128A1168240A128A1132300A1267
:100B3E008A1101240A128A117F3083120313B60020
:100B4E00D430B5003130B400B40BAB2DB50BAB2D9A
:100B5E00B60BAB2D7F3083120313B600D430B50025
:100B6E003130B400B40BB92DB50BB92DB60BB92D70
:100B7E000A128A11AF230A128A1180300A128A11C0
:100B8E0068240A128A114E300A128A1101240A129E
:100B9E008A11A8300A128A1168240A128A11123098
:100BAE000A128A1101240A128A111A3083120313AF
:100BBE00B6005E30B5006D30B400B40BE42DB50B4D
:100BCE00E42DB60BE42DEB2D1A3083120313B60071
:100BDE005E30B5006D30B400B40BF32DB50BF32DB4
:100BEE00B60BF32DFA2D08002C30F0000130F10079
:100BFE000A128A1199230A128A1130300A128A11A6
:100C0E0084230A128A112C30F0000130F1000A12EE
:100C1E008A1199230A128A1130300A128A118423FA
:100C2E000A128A112C30F0000130F1000A128A11DA
:100C3E0099230A128A1130300A128A1184230A1259
:100C4E008A112C30F0000130F1000A128A1199231A
:100C5E000A128A1120300A128A1184230A128A116A
:100C6E002C30F0000130F1000A128A1199230A1279
:100C7E008A110C300A128A1168240A128A112C3039
:100C8E00F0000130F1000A128A1199230A128A111A
:100C9E0004300A128A1168240A128A112C30F000CC
:100CAE000130F1000A128A1199230A128A11853035
:100CBE000A128A1168240A128A112C30F0000130AF
:100CCE00F1000A128A1199230A128A1106300A12A9
:100CDE008A1168240A128A112C30F0000130F100BA
:100CEE000A128A1199230A128A1101300A128A11E4
:100CFE0068240A128A112C30F0000130F1000A1219
:100D0E008A1199230A128A1108000A128A1167237E
:100D1E000A128A11153083120313B9004B30B80032
:100D2E00BD30B700B70B992EB80B992EB90B992E73
:100D3E00A02E0A128A11C8230A128A110A128A11C7
:100D4E00E2230A128A11831203133303031DB02EFA
:100D5E00B12EC32F0A128A1126240A128A11831267
:100D6E000313B7003708B0000A128A1126240A129C
:100D7E008A1183120313B7003708AF000A128A11C3
:100D8E0026240A128A1183120313B7003708B20001
:100D9E000A128A1126240A128A1183120313B7002B
:100DAE003708B1000A128A1126240A128A118312F8
:100DBE000313B7003708AC0030082F07B700B8018F
:100DCE00B80D32083707B900003003180130380764
:100DDE00BA0031083907BB000030031801303A075A
:100DEE00BC00FF303B05BD0000303C05BE002C08AA
:100DFE00BF00C0013E084006031D072F3D083F06F9
:100E0E00031D0A2F0B2FBC2F3208B7003708AE0078
:100E1E003008B7003708AD0080300A128A116824F6
:100E2E000A128A117A300A128A1101240A128A11C0
:100E3E000A30F9000030FA000A30F0000030F100FC
:100E4E00831203132E08B700B8013708F2003808D2
:100E5E00F3000A128A1115250A128A117108FC0074
:100E6E007008FB000A128A11BA240A128A11790834
:100E7E00303E0A128A1175230A128A110A30F900BD
:100E8E000030FA00831203132E08B700B80137089A
:100E9E00FB003808FC000A128A11BA240A128A11C1
:100EAE007908303E0A128A1175230A128A11DF3030
:100EBE000A128A1175230A128A1181300A128A11B6
:100ECE0001240A128A11A8300A128A1168240A1201
:100EDE008A115B300A128A1101240A128A110A3011
:100EEE00F9000030FA000A30F0000030F1008312F1
:100EFE0003132D08B700B8013708F2003808F300C5
:100F0E000A128A1115250A128A117108FC0070083E
:100F1E00FB000A128A11BA240A128A117908303E8D
:100F2E000A128A1175230A128A110A30F90000304A
:100F3E00FA00831203132D08B700B8013708FB001F
:100F4E003808FC000A128A11BA240A128A1179088A
:100F5E00303E0A128A1175230A128A1186300A123D
:100F6E008A1101240A128A11E02F22300A128A11E4
:100F7E0001240A128A11E02F0A128A11AF230A12D3
:100F8E008A1180300A128A1168240A128A1171306D
:100F9E000A128A1101240A128A11A8300A128A1121
:100FAE0068240A128A1141300A128A1101240A1287
:100FBE008A111A3083120313B9005E30B8006D30F7
:100FCE00B700B70BE82FB80BE82FB90BE82FEF2FB0
:100FDE00912E0A128A110028831320308400343097
:100FEE000A128A115F230A128A1183010A128A11C8
:020FFE008C2E37
:02400E00723FFF
:00000001FF
