:020000040000FA
:060000000A128A11DA2F3A
:10000A00FF30F0070318F10AFF30F107700A031DE9
:10001A001228710A031D12281328052808008312C2
:10002A00031354088039D5005508DE005408D5005A
:10003A005507D6005608E500D31F24282528262868
:10004A006514650803192A282B283B28650A031D0D
:10005A002F28302838280030D4000030D300003050
:10006A00D2000030D100D317D40143280030D40085
:10007A000030D3000030D2000030D100500880395F
:10008A00D5005508DE065008D5005507D600560893
:10009A00E600CF1F51285228532866146608031910
:1000AA00572858286828660A031D5C285D28652891
:1000BA000030D0000030CF000030CE000030CD003C
:1000CA00CF17D00170280030D0000030CF000030A8
:1000DA00CE000030CD0050084F044E044D04031DDD
:1000EA007728782891280030D4000030D3000030D7
:1000FA00D2000030D1008030D3047F30D4045E08AF
:10010A00D5005508D4045408D0005308CF0052082B
:10011A00CE005108CD00F0296508031D95289628C0
:10012A009F280030D0000030CF000030CE000030D1
:10013A00CD00F0296508D500D6015608D800660812
:10014A005502D700031CD80357087F3EDF00580822
:10015A000318013E003EE0005408DD005308DC00AD
:10016A005208DB005108DA000030D4000030D30016
:10017A000030D2000030D1000030E4000030E3004B
:10018A000030E2000030E100E60115296608031993
:10019A00CF28D028F0280130D5000310DA0DDB0D66
:1001AA00DC0DDD0DD50BD2280130D5000310D10DA1
:1001BA00D20DD30DD40DD50BDB28E41FE528E62894
:1001CA00E72851140130D5000310E10DE20DE30DCB
:1001DA00E40DD50BE92850085D02031DFE284F08DF
:1001EA005C02031DFE284E085B02031DFE284D0813
:1001FA005A02031C01290229112964174D08DA023F
:10020A004E08031C4E0FDB024F08031C4F0FDC0283
:10021A005008031C500FDD020130D5005508E607CF
:10022A001A306602031C1A291B29CB285D085C04B4
:10023A005B045A04031922292329422961144229F9
:10024A000130D5000310D10DD20DD30DD40DD50B2D
:10025A002729E41F31293229332951140130D500C5
:10026A000310E10DE20DE30DE40DD50B3529FF3046
:10027A00DF070318E00AFF30E007D31F45294629A4
:10028A002529E601E41F4A294B296729FF30610520
:10029A00D500FF306205D600FF306305D7007F30F6
:1002AA006405D800580857045604550403195E29F2
:1002BA005F296229E601E60A6729511C6529662930
:1002CA0067295F29660803196B296C299D29013062
:1002DA00D107003003180130D2070030031801306B
:1002EA00D307003003180130D407541C7D297E2916
:1002FA009D295108D5005208D6005308D700540842
:10030A00D8000130D900580DD80CD70CD60CD50C12
:10031A00D90B88295808D4005708D3005608D200A8
:10032A005508D1000130DF070318E00A0030E00762
:10033A006008803AFF0080307F02031DA629FF3043
:10034A005F02031CA929AA29B829FF3083120313C3
:10035A00DF000030E0000030D4000030D30000306D
:10036A00D2000030D100831203136008803AFF00E4
:10037A0080307F02031DC32901305F020318C6299A
:10038A00C729D42983120313DF01E0010030D40006
:10039A000030D3000030D2000030D100DE018312D9
:1003AA0003135F08D5005508E500651CDD29DE2921
:1003BA00E029D317E4297F30D5005508D30565080D
:1003CA00D5000310550CD6005608D4005E08D50097
:1003DA005508D40488280800831603132308803993
:1003EA00A8002808B0002308A8002807A90029089F
:1003FA00B200A21F012A022A032A32143208031960
:10040A00072A082A182A320A031D0C2A0D2A152A35
:10041A000030A3000030A2000030A1000030A0008C
:10042A00A217A301202A0030A3000030A200003046
:10043A00A1000030A00027088039A8002808B100D0
:10044A003108300603192A2A2B2A2C2A30172708A2
:10045A00A8002807A9002908B100A61F352A362AAC
:10046A00372A3114310803193B2A3C2A4C2A310A0B
:10047A00031D402A412A492A0030A7000030A6005D
:10048A000030A5000030A400A617A701542A0030A6
:10049A00A7000030A6000030A5000030A4003208F2
:1004AA0031020318592A5A2A9E2A301F5D2A5E2AC7
:1004BA00622A8030A8002808B0063208A800280856
:1004CA00B3003108A8002808B2003308A800280899
:1004DA00B1002008A8002808B3002408A8002808AA
:1004EA00A0003308A8002808A4002108A8002808AA
:1004FA00B3002508A8002808A1003308A800280886
:10050A00A5002208A8002808B3002608A800280881
:10051A00A2003308A8002808A6002308A800280873
:10052A00B3002708A8002808A3003308A800280851
:10053A00A700B3013108A800A9012908AB003208B5
:10054A002802AA00031CAB032B08803AFF00803064
:10055A007F02031DB22A1A302A02031CB52AB62AC0
:10056A00F32A831603132308220421042004031DFB
:10057A00BF2AC12A0130C22A0030A8002808B300C5
:10058A000030A3000030A2000030A1000030A0001B
:10059A003108A8002808B200FB2A331CD52AD62A1B
:1005AA00DF2A3308A8000310280C0138A9002908FB
:1005BA00B300E12A0310B30C201CE42AE52AE62A38
:1005CA00B3170130A800230DA30CA20CA10CA00C98
:1005DA00A80BE82A0130A8002808B20783160313DB
:1005EA0031083202031CFA2AFB2AD22A301BFE2ABD
:1005FA00FF2A4A2B3208031D032B042B0D2B003034
:10060A00A3000030A2000030A1000030A000782C26
:10061A002408A007250803110318013E0319162B05
:10062A00A107260803110318013E03191D2BA2076F
:10063A00270803110318013E0319242BA307231CBF
:10064A00272B282BFE2B331C2B2B2C2B352B33083B
:10065A00A8000310280C0138A9002908B300372B79
:10066A000310B30C201C3A2B3B2B3C2BB317013045
:10067A00A800230DA30CA20CA10CA00CA80B3E2BC6
:10068A000130A8002808B207FE2B2308803AFF0091
:10069A002708803A7F02031D5C2B26082202031DCD
:1006AA005C2B25082102031D5C2B24082002031859
:1006BA005F2B602BB82BFF30A800FF30A900FF305A
:1006CA00AA00FF30AB002408AC002508AD002608BC
:1006DA00AE002708AF002008AC022108031C210F36
:1006EA00772B782BAD022208031C220F7D2B7E2B41
:1006FA00AE022308031C230F832B842BAF022C0882
:10070A00A8072D0803182D0F8B2B8C2BA9072E0851
:10071A0003182E0F912B922BAA072F0803182F0AC2
:10072A00AB072B08A3002A08A2002908A100280861
:10073A00A0008030A8002808B006B309B30A33081D
:10074A00031DA82BA92BC62B0130A00700300318C4
:10075A000130A107003003180130A2070030031846
:10076A000130A307C62B2408A0022508031C250F65
:10077A00A1022608031C260FA2022708031C270F22
:10078A00A3022308220421042004031DCD2BCE2B0F
:10079A00FA2B3308031DD22BD32BFA2B0030A300DC
:1007AA000030A2000030A1000030A000782C0130F7
:1007BA00A8000310A00DA10DA20DA30DA80BDE2BFE
:1007CA00B31FE82BE92BEA2B2014331CED2BEE2B5D
:1007DA00F12B0314B30DF32B0310B30D32080319D5
:1007EA00F72BF82BFA2B0130B202A21FFD2BFE2B9E
:1007FA00DC2BB101B31F022C032C112C33087F39D7
:10080A000319082C092C0C2CB101B10A112C201C3B
:10081A000F2C102C112C092C31080319152C162C0D
:10082A004A2C0130A007003003180130A10700301C
:10083A0003180130A207003003180130A307231C54
:10084A00272C282C4A2C2008A8002108A9002208B5
:10085A00AA002308AB000130AC002B0DAB0CAA0C8C
:10086A00A90CA80CAC0B322C2B08A3002A08A20056
:10087A002908A1002808A000320A0319452C462C91
:10088A004A2C0130A8002808B207320A03194E2C54
:10089A004F2C542C3208031D532C542C622C00303C
:1008AA00A3000030A2000030A1000030A0003208EE
:1008BA00031D602C612C622CB001321C652C662C45
:1008CA00682CA2176C2C7F30A8002808A2053208D1
:1008DA00A8000310280CA9002908A300B01F762C31
:1008EA00772C782CA3170800831203133608803953
:1008FA00BB003B08C0003608BB003B07BC003C08F5
:10090A00C600B51F892C8A2C8B2C4614460803195D
:10091A008F2C902C9F2C460A031D942C952C9D2CD1
:10092A000030B6000030B5000030B4000030B3002B
:10093A00B517A72C0030B6000030B5000030B4005F
:10094A000030B3003A088039BB003B08C0063A08B9
:10095A00BB003B07BC003C08C100B91FB52CB62C34
:10096A00B72C411441080319BB2CBC2CCB2C410ACF
:10097A00031DC02CC12CC92C0030BA000030B900AC
:10098A000030B8000030B700B917D32C0030BA00D5
:10099A000030B9000030B8000030B7004108031930
:1009AA00D72CD82CDD2C4608031DDC2CDD2CE62C9C
:1009BA000030B6000030B5000030B4000030B3009B
:1009CA00D92F3308BB003B08F00039080A168A15EC
:1009DA004A250A128A11710883120313CC0070087F
:1009EA00CB004B08BB00BC01BD01BE013E08C500DF
:1009FA003D08C4003C08C3003B08C2004C08BB00C9
:100A0A00BC01BD01BE013E08CA003D08C9003C0840
:100A1A00C8003B08C7003408BB003B08F000380890
:100A2A000A168A154A250A128A11710883120313B3
:100A3A00CC007008CB004B08BB00BC01BD01BE0155
:100A4A003B08C2073C0803110318013E03192E2D67
:100A5A00C3073D0803110318013E0319352DC407C6
:100A6A003E0803110318013E03193C2DC5074C0823
:100A7A00BB00BC01BD01BE013B08C7073C0803110E
:100A8A000318013E03194A2DC8073D08031103182C
:100A9A00013E0319512DC9073E0803110318013EEF
:100AAA000319582DCA073508BB003B08F000370860
:100ABA000A168A154A250A128A1171088312031323
:100ACA00CC007008CB004B08BB00BC01BD01BE01C5
:100ADA003B08C2073C0803110318013E0319762D8F
:100AEA00C3073D0803110318013E03197D2DC407EE
:100AFA003E0803110318013E0319842DC5074C084B
:100B0A00BB00BC01BD01BE013B08C7073C0803117D
:100B1A000318013E0319922DC8073D080311031853
:100B2A00013E0319992DC9073E0803110318013E16
:100B3A000319A02DCA070830BB000310C20DC30D4C
:100B4A00C40DC50DBB0BA22D3408BB003B08F00039
:100B5A0037080A168A154A250A128A117108831259
:100B6A000313CC007008CB004B08BB004C08BC0038
:100B7A00BD01BE013B08C2073C0803110318013E30
:100B8A000319C82DC3073D0803110318013E0319B1
:100B9A00CF2DC4073E0803110318013E0319D62DB1
:100BAA00C5073308BB003B08F00038080A168A1547
:100BBA004A250A128A11710883120313CC0070089D
:100BCA00CB004B08BB004C08BC00BD01BE013B0872
:100BDA00C2073C0803110318013E0319F52DC30788
:100BEA003D0803110318013E0319FC2DC4073E08F2
:100BFA0003110318013E0319032EC5070830BB0071
:100C0A000310C20DC30DC40DC50DBB0B052E330851
:100C1A00BB003B08F00037080A168A154A250A1253
:100C2A008A11710883120313CC007008CB004B0899
:100C3A00BB004C08BC00BD01BE013B08C2073C0812
:100C4A0003110318013E03192B2EC3073D08031194
:100C5A000318013E0319322EC4073E080311031874
:100C6A00013E0319392EC5073408BB003B08F000C2
:100C7A0039080A168A154A250A128A117108831236
:100C8A000313CC007008CB004B08BB004C08BC0017
:100C9A00BD01BE013B08C7073C0803110318013E0A
:100CAA000319582EC8073D0803110318013E0319FA
:100CBA005F2EC9073E0803110318013E0319662E69
:100CCA00CA073508BB003B08F00038080A168A151F
:100CDA004A250A128A11710883120313CC0070087C
:100CEA00CB004B08BB004C08BC00BD01BE013B0851
:100CFA00C7073C0803110318013E0319852EC807CC
:100D0A003D0803110318013E03198C2EC9073E083A
:100D1A0003110318013E0319932ECA073508BB00B5
:100D2A003B08F00039080A168A154A250A128A1160
:100D3A00710883120313CC007008CB004B08BB0068
:100D4A004C08BC00BD01BE0108300310BB0DBC0D30
:100D5A00BD0DBE0DFF3E031DAA2E3B08C7073C086A
:100D6A0003110318013E0319BB2EC8073D080311DE
:100D7A000318013E0319C22EC9073E0803110318BE
:100D8A00013E0319C92ECA074208BB004308BC002A
:100D9A004408BD004508BE0018300310BE0CBD0C47
:100DAA00BC0CBB0CFF3E031DD22E3B08C7073C08F8
:100DBA0003110318013E0319E32EC8073D08031166
:100DCA000318013E0319EA2EC9073E080311031846
:100DDA00013E0319F12ECA070830BB000310C20DE9
:100DEA00C30DC40DC50DBB0BF32E46084107BB004E
:100DFA00BC01BC0D3B08823ECB003C080318013EF7
:100E0A00FF3ECC00252F0130BB000310C70DC80DD3
:100E1A00C90DCA0DBB0B0A2FC51F142F152F162F6C
:100E2A0047140130BB000310C20DC30DC40DC50D1C
:100E3A00BB0B182FFF30CB070318CC0AFF30CC07A7
:100E4A00C91F282F292F082FC101C51F2D2F2E2F6B
:100E5A004A2FFF304205BB00FF304305BC00FF307C
:100E6A004405BD007F304505BE003E083D043C04F4
:100E7A003B040319412F422F452FC101C10A4A2FB2
:100E8A00471C482F492F4A2F422F410803194E2F3A
:100E9A004F2F802F0130C707003003180130C807D1
:100EAA00003003180130C907003003180130CA079F
:100EBA004A1C602F612F802F4708BB004808BC00DE
:100ECA004908BD004A08BE000130BF003E0DBE0CF5
:100EDA00BD0CBC0CBB0CBF0B6B2F3E08CA003D08F7
:100EEA00C9003C08C8003B08C7000130CB070318FB
:100EFA00CC0A0030CC074C08803AFF0080307F02D1
:100F0A00031D892FFF304B02031C8C2F8D2F982F26
:100F1A007F3083120313CA008030C9000030C80032
:100F2A000030C700CD2F831203134C08803AFF000C
:100F3A0080307F02031DA32F01304B020318A62F16
:100F4A00A72FB32F003083120313CA000030C90041
:100F5A000030C8000030C700C001CD2F8312031330
:100F6A004B08BB003B08C600FF30C705FF30C80569
:100F7A007F30C9050030CA05461CC42FC52FC62FAD
:100F8A00C9174608BB0003103B0CBC003C08CA004A
:100F9A004008BB003B08CA044A08B6004908B50025
:100FAA004808B4004708B30008008317DA30FD0088
:100FBA000830FE000130FF00CE3084000A168A1580
:100FCA009A240A128A1183160317DA01DB01DC015B
:100FDA00DD01DE01DF01E0011030840024300A1651
:100FEA008A1575240A128A1183160313EE018301E6
:060FFA000A128A15062907
:1010020033343334133440349A34993499343E347B
:101012008534EB34D134BE34003083160313BD0063
:101022000030BC000030BB000030BA00B801B9018A
:101032000030F200F3000A168A1571250A128A1589
:10104200730883120313E8007208E7000A168A1570
:10105200BB260A128A15831203136A088316031326
:10106200A30083120313690883160313A2008312D9
:101072000313680883160313A1008312031367087E
:1010820083160313A0003D08A7003C08A6003B08F6
:10109200A5003A08A4000A128A11F1210A128A153F
:1010A200831603132308BD002208BC002108BB00DD
:1010B2002008BA000D3083120313EF00AF30EE00A8
:1010C200B530ED00ED0B6328EE0B6328EF0B6328C0
:1010D2006A28013083160313B8070318B90A0030CF
:1010E200B9073908803AFF0080307F02031D7B2850
:1010F20032303802031C7E287F281928423083129E
:101102000313D0004830CF000030CE000030CD00B5
:10111200831603133D0883120313D40083160313AB
:101122003C0883120313D300831603133B08831274
:101132000313D200831603133A0883120313D10058
:101142000A128A1114200A128A15831203135008F4
:1011520083160313BD00831203134F088316031370
:10116200BC00831203134E0883160313BB008312C1
:1011720003134D0883160313BA004130831203137D
:10118200D0001D30CF004730CE00AE30CD008316E8
:1011920003133D0883120313D400831603133C0880
:1011A20083120313D300831603133B088312031322
:1011B200D200831603133A0883120313D1000A12D2
:1011C2008A1114200A128A158312031350088316F7
:1011D2000313BD00831203134F0883160313BC00CD
:1011E200831203134E0883160313BB0083120313E7
:1011F2004D0883160313BA003D08B7003C08B60039
:101202003B08B5003A08B40008000A168A15A9245A
:101212000A128A150A168A15E8240A128A158030DB
:101222000A168A1569260A128A1591300A168A1533
:1012320025250A128A150A128A150D200A128A1504
:1012420083160313370883160317DD00831603136F
:10125200360883160317DC0083160313350883163A
:101262000317DB0083160313340883160317DA000F
:1012720080300A168A1569260A128A1581300A16E2
:101282008A1525250A128A1580300A168A156926BA
:101292000A128A15831603175D0883160313D300F7
:1012A200831603175C0883160313D20083160317F1
:1012B2005B0883160313D100831603175A0883169B
:1012C2000313D0000A168A114C210A128A158316BA
:1012D2000313510883160317BE0083160313500825
:1012E20083160317BD000A168A151E270A128A15CD
:1012F200E1300A168A1525250A128A152730831627
:101302000317C5000D30C4002530C300C30B872965
:10131200C40B8729C50B87298E29831203138812D0
:1013220083120313881A96299729482A80300A16AD
:101332008A1569260A128A1570300A168A15252519
:101342000A128A15A8300A168A1569260A128A15FF
:10135200C0300A168A1525250A128A150A168A111C
:10136200FB220A128A158316031337088316031702
:10137200C90083160313360883160317C8008316A1
:101382000313350883160317C700831603133408A3
:1013920083160317C6005D0883120313D000831659
:1013A20003175C0883120313CF00831603175B082D
:1013B20083120313CE00831603175A0883120313F2
:1013C200CD0083160317490883120313D400831632
:1013D2000317480883120313D30083160317470821
:1013E20083120313D20083160317460883120313D2
:1013F200D1000A128A1114200A128A1583120313C9
:10140200500883160317CD00831203134F08831667
:101412000317CC00831203134E0883160317CB0065
:10142200831203134D0883160317CA004D08AF0039
:101432004C08AE004B08AD004A08AC00CE30C300E9
:101442004308B0000A168A11ED260A128A1583167D
:1014520003172D08BE002C08BD000A168A151E2788
:101462000A128A15273083160317C5000D30C400EF
:101472002530C300C30B3B2AC40B3B2AC50B3B2AB6
:10148200422A0A168A15E8240A128A1591298030FE
:101492000A168A1569260A128A154D300A168A1505
:1014A20025250A128A1591290A128A110028831603
:1014B20003134708F3004608F2004508F100440808
:1014C200F0000030F7000030F6000030F500003088
:1014D200F4000A168A1159220A128A150318722A6E
:1014E200732A842A213083160317DE000030DF00BE
:1014F200003083160313C7000030C6000030C50059
:101502000030C400AD2B8316031347088312031364
:10151200A30083160313460883120313A200831643
:101522000313450883120313A1008316031344080F
:1015320083120313A0000030A7000030A600003081
:10154200A5000030A4000A168A1519260A128A1567
:10155200031CAC2AAD2ABE2A223083160317DE00F2
:101562000030DF00003083160313C7000030C600CE
:101572000030C5000030C400AD2BBF30831603130A
:10158200A3008030A2000030A1000030A000403053
:1015920083120313B6000030B5000030B4000030EF
:1015A200B3006E30ED006D08B000831603134708D8
:1015B20083120313AF008316031346088312031327
:1015C200AE0083160313450883120313AD0083167E
:1015D2000313440883120313AC000A168A11F02085
:1015E2000A128A15831203132F08BA002E08B900B3
:1015F2002D08B8002C08B7000A128A1179240A12A1
:101602008A1583120313360883160313A700831265
:101612000313350883160313A60083120313340839
:1016220083160313A50083120313330883160313CF
:10163200A4000A128A11F1210A128A1583160313D1
:101642002308C7002208C6002108C5002008C400DC
:10165200FF3083120313EE070318EF0AFF30EF0780
:10166200831603134708B7004608B6004508B500BD
:101672004408B400293083120313ED006D08831669
:101682000313B8000830B9000030BA000A168A11F4
:101692006E240A128A15831603133708C700360808
:1016A200C6003508C5003408C4004708A300460830
:1016B200A2004508A1004408A0003F308312031392
:1016C200B6003130B5007230B4001830B3006E0885
:1016D200F0006F08F1000030F11BFF30F200F30060
:1016E20001300A168A11B4230A128A15730883126A
:1016F2000313BA007208B9007108B8007008B70085
:101702000A128A1179240A128A15831203133608DF
:1017120083160313A70083120313350883160313DA
:10172200A60083120313340883160313A500831241
:101732000313330883160313A4000A128A11F1213A
:101742000A128A15831603132308C7002208C6004B
:101752002108C5002008C400080083160317A7014A
:101762001A0883120313A30083160317190883129E
:101772000313A20083160317180883120313A10090
:1017820083160317170883120313A0000030A70063
:101792000030A6000030A5000030A4000A168A1509
:1017A20019260A128A15031CD72BD82B042C0030B9
:1017B200F3000030F2000030F1000030F000831638
:1017C20003171E08F7001D08F6001C08F5001B0889
:1017D200F4000A168A1159220A128A15031CF22BE6
:1017E200F32BF92B213083160317DE000030DF00C4
:1017F2000030831603179A000030990000309800D9
:1018020000309700C22D831603171E08831203139C
:10181200A300831603171D0883120313A200831665
:1018220003171C0883120313A100831603171B0856
:1018320083120313A0000030A7000030A60000307E
:10184200A5000030A4000A168A1519260A128A1564
:10185200031C2C2C2D2C382C3F30831603179A0096
:10186200803099000030980000309700C22D831616
:1018720003171A08F3001908F2001808F1001708F4
:10188200F0000030F7000030F6000030F5000030C4
:10189200F4000A168A1159220A128A150318522CC8
:1018A200532CF22C831603171E0883160313D3003E
:1018B200831603171D0883160313D200831603171A
:1018C2001C0883160313D100831603171B08831603
:1018D2000313D0000A168A114C210A128A158316A4
:1018E2000313530883160317AB008316031352081E
:1018F20083160317AA0083160313510883160317CE
:10190200A90083160313500883160317A8002B0897
:10191200F3002A08F2002908F1002808F00000303C
:101922000A168A11B4230A128A1573088312031342
:10193200A3007208A2007108A1007008A00083161B
:1019420003171E0883120313A700831603171D082B
:1019520083120313A600831603171C0883120313B2
:10196200A500831603171B0883120313A4000A168B
:101972008A1519260A128A150318C02CC12CD02CDC
:10198200213083160317DE000030DF0000309A009A
:10199200003099000030980000309700C22D831665
:1019A20003172808013983160313EB006B0883160B
:1019B2000317A7001A08F3001908F2001808F1002B
:1019C2001708F0000A168A157D240A128A15730870
:1019D200831603179A00720899007108980070081C
:1019E2009700831603171A0883160313C70083167A
:1019F2000317190883160313C60083160317180862
:101A020083160313C50083160317170883160313DF
:101A1200C4000A128A1558220A128A158316031361
:101A2200470883160317A20083160313460883167A
:101A32000317A10083160313450883160317A0009A
:101A4200831603134408831603179F001E0883128C
:101A52000313B600831603171D0883120313B50080
:101A6200831603171C0883120313B400831603178B
:101A72001B0883120313B300831603172208831271
:101A82000313BA0083160317210883120313B90044
:101A920083160317200883120313B8008316031753
:101AA2001F0883120313B7000A128A1179240A123B
:101AB2008A1583120313360883160317A6008312AE
:101AC2000313350883160317A50083120313340882
:101AD20083160317A4008312031333088316031714
:101AE200A300260883160313E900831603172508AB
:101AF20083160313E80083160317240883160313BF
:101B0200E70083160317230883160313E6000A125D
:101B12008A15C3250A128A158316031369088316C8
:101B220003179A0083160313680883160317990094
:101B3200831603136708831603179800831603138B
:101B4200660883160317970027080319A92DAA2DE3
:101B5200C22D1A08F3001908F2001808F10017083C
:101B6200F0000A168A157D240A128A157308831654
:101B720003179A007208990071089800700897007C
:101B8200C22D080083160313690883120313A300EE
:101B920083160313680883120313A2008316031328
:101BA200670883120313A1008316031366088312C6
:101BB2000313A0000030A7000030A6000030A500EB
:101BC2000030A4000A168A1519260A128A15031C67
:101BD200EB2DEC2DF72D3F3083160313E9008030F7
:101BE200E8000030E7000030E600FF2F4430F30049
:101BF2003130F2007230F1001830F0008316031316
:101C02006908F7006808F6006708F5006608F4003E
:101C12000A168A1159220A128A150318112E122E37
:101C2200232E223083160317DE000030DF007F30C0
:101C320083160313E9007F30E800FF30E700FF302E
:101C4200E600FF2F831603136908F3006808F20009
:101C52006708F1006608F000C430F7003A30F60079
:101C62004830F5008730F4000A168A1159220A1208
:101C72008A1503183D2E3E2E4F2E2230831603174F
:101C8200DE000030DF00003083160313E90000306D
:101C9200E8000030E7000030E600FF2F8316031350
:101CA2006908F3006808F2006708F1006608F000AE
:101CB2000030F7000030F6000030F5000030F4008C
:101CC2000A168A1159220A128A15031C692E6B2ED2
:101CD20001306C2E003083160313EA006A08831663
:101CE2000317960016080319772E782E912E831665
:101CF20003136908F3006808F2006708F100660838
:101D0200F0000A168A157D240A128A1573088316B2
:101D12000313E9007208E8007108E7007008E600A2
:101D22003F3083120313B600B830B500AA30B400B6
:101D32003B30B30083160313690883120313BA00FE
:101D420083160313680883120313B900831603135F
:101D5200670883120313B8008316031366088312FD
:101D62000313B7000A128A1179240A128A15831200
:101D72000313360883160313E9008312031335088D
:101D820083160313E8008312031334088316031324
:101D9200E70083120313330883160313E60069086E
:101DA200DE006808DD006708DC006608DB000A1652
:101DB2008A1138250A128A15831603135E088316C0
:101DC20003179300831603135D088316031792000B
:101DD200831603135C0883160317910083160313FB
:101DE2005B08831603179000130883160313D300AE
:101DF20083160317120883160313D20083160317E0
:101E0200110883160313D1008316031710088316D3
:101E12000313D0000A168A114C210A128A1583165E
:101E220003135108831603179500831603135008F2
:101E32008316031794001408F0001508F10000300F
:101E4200F11BFF30F200F30001300A168A11B423AD
:101E52000A128A15730883160313CB007208CA008C
:101E62007108C9007008C8006908CF006808CE0070
:101E72006708CD006608CC000A168A1501250A12E9
:101E82008A15831603134B08E9004A08E80049083B
:101E9200E7004808E6006908B7006808B600670866
:101EA200B5006608B4000130EA006A08B8000930DB
:101EB200B9000030BA000A168A116E240A128A1575
:101EC200831603133708C7003608C6003508C50055
:101ED2003408C40083160317150883160313C900B8
:101EE20083160317140883160313C8000A168A11EF
:101EF20009260A128A15831603134708E9004608C1
:101F0200E8004508E7004408E600831603171608B0
:101F120003198C2F8D2FFF2F831603136908831249
:101F22000313A30083160313680883120313A2008A
:101F320083160313670883120313A1008316031386
:101F4200660883120313A0007F30A7007F30A6002B
:101F5200FF30A500FF30A4000A168A1519260A12BE
:101F62008A15031CB52FB62FC12F00308316031319
:101F7200E9000030E8000030E7000030E600FF2F03
:101F820083160313690883120313D0008316031305
:101F9200680883120313CF008316031367088312A2
:101FA2000313CE0083160313660883120313CD00B6
:101FB2003F30D4008030D3000030D2000030D10056
:101FC2000A128A1114200A128A1583120313500866
:101FD20083160313E900831203134F0883160313B6
:101FE200E800831203134E0883160313E7008312DB
:101FF20003134D0883160313E600FF2F0800103069
:102002008A000408840A82070034003400348034D1
:102012003F341834723431343F34F034FD34753483
:102022003E344734583463343D34583495341D3487
:102032003C348234C434AE343A34A8347834213453
:102042003934EF34933480343734A0349234A734A3
:1020520035344634563415343434003400340034C4
:102062000034C434FF347F343F348034EF34FF34DF
:10207200BE349034E134A9343E34EC3482347634C4
:10208200BE348234AD342B343E340E343C34C3344B
:10209200BD348734D13413343D3441347834D334AD
:1020A200BB3447346134733420346E346F34743447
:1020B2002034703472346534733465346E3474345D
:1020C200203420340034203420342034203420348E
:1020D200203420342034203420342034203420345E
:1020E20020342034203400344734613473342034B3
:1020F2006934733420347034723465347334653423
:102102006E34743420342034003444346F346E34EA
:1021120065342134203420342034203420342034D7
:1021220020342034203420340034433461346C347D
:102132006934623472346134743469346E346734AD
:102142002E342E342E342E340034773469347434E1
:1021520068342034503449344334313436344634CC
:1021620038343734373441340034633469347234A8
:1021720063347534693474342034443469346734D4
:102182006534733474340034473461347334203426
:10219200703470346D3420343D342034003457347C
:1021A20065346C3463346F346D3465342034743484
:1021B2006F3400344D345134363420345334653462
:1021C2006E3473346F347234003420344B34203420
:0A21D2004F3468346D347334003468
:1021E000831203132F08A3002E08A2002D08A100BC
:1021F0002C08A0000030A7000030A6000030A50089
:102200000030A4000A168A1519260A168A11031C22
:102210000A290B291C298312031330088400831315
:102220008001840A80010030AF000030AE00003031
:10223000AD000030AC004B29831203132F087F3907
:10224000B100B2010310B10DB20D300884003108A5
:1022500083138000840A320880002E0D2E0D013970
:10226000B100B2013008840031088004840A3208C9
:1022700080043008840082308007840F000803182F
:10228000000AFF00FF307F07800084032F08803999
:102290003F38AF00AE130800031083160313520D2E
:1022A000530DD4005408DA005A08031D582959293F
:1022B00062290030D3000030D2000030D10000305D
:1022C000D000C7295008D4005108D5005208D600C4
:1022D0005308D7001F300310D70CD60CD50CD40CE4
:1022E000FF3E031D6B295408D8005808D900D217A7
:1022F000FF30D005FF30D105FF30D2050030D305C7
:102300009630DA02DA1F85298629A0295A08803AF0
:10231000973E03188C298D298E29592901300310E5
:10232000D30CD20CD10CD00CFF3E031D8F290130F1
:10233000D4005408DA07031D9E299F298E29B72946
:1023400020305A02031CA529A629B2295929013097
:10235000D4000310D00DD10DD20DD30DD40BA9296B
:102360000130DA025A08031DB629B729A7295908EE
:102370000319BB29BC29C729D009D109D209D3091E
:10238000D00A0319D10A0319D20A0319D30A080083
:102390002C30F0000130F1000A168A15D2240A16FA
:1023A0008A1130300A168A15BD240A168A112C307B
:1023B000F0000130F1000A168A15D2240A168A119B
:1023C00030300A168A15BD240A168A112C30F00006
:1023D0000130F1000A168A15D2240A168A1130300B
:1023E0000A168A15BD240A168A112C30F000013015
:1023F000F1000A168A15D2240A168A1120300A160C
:102400008A15BD240A168A112C30F0000130F10023
:102410000A168A15D2240A168A110C300A168A1551
:1024200069260A168A112C30F0000130F1000A16D4
:102430008A15D2240A168A1104300A168A156926CA
:102440000A168A112C30F0000130F1000A168A15A4
:10245000D2240A168A1185300A168A1569260A16A8
:102460008A112C30F0000130F1000A168A15D224AE
:102470000A168A1106300A168A1569260A168A1162
:102480002C30F0000130F1000A168A15D2240A1609
:102490008A1101300A168A1569260A168A112C300B
:1024A000F0000130F1000A168A15D2240A168A11AA
:1024B000080000307005F80000307105F900803028
:1024C0007205FA007F307305FB007B087A047904FB
:1024D0007804031D6C2A6D2A752A0030F300003041
:1024E000F2000030F1000030F00000307405F80018
:1024F00000307505F90080307605FA007F307705E9
:10250000FB007B087A0479047804031D882A892A51
:10251000912A0030F7000030F6000030F50000305E
:10252000F400F31F942A952AB92A0030F8000030ED
:10253000F9000030FA008030FB007008F8027108E2
:10254000031C710FA42AA52AF9027208031C720F3A
:10255000AA2AAB2AFA027308031C730FB02AB12A05
:10256000FB027B08F3007A08F2007908F100780892
:10257000F000F71FBC2ABD2AE12A0030F800003025
:10258000F9000030FA008030FB007408F80275088A
:10259000031C750FCC2ACD2AF9027608031C760F8E
:1025A000D22AD32AFA027708031C770FD82AD92A0D
:1025B000FB027B08F7007A08F6007908F500780836
:1025C000F4008030F3068030F70677087302031DAD
:1025D000F32A76087202031DF32A75087102031D9F
:1025E000F32A740870020318F62AF72AF92A03104E
:1025F000FA2A03140800003083160313BD000030CC
:10260000BC000030BB000030BA00B801B901003096
:10261000F200F3000A168A1571250A168A1173084A
:1026200083120313E8007208E7000A168A15BB2616
:102630000A168A11831203136A0883160313A30070
:1026400083120313690883160313A2008312031372
:10265000680883160313A100831203136708831607
:102660000313A0003D08A7003C08A6003B08A500F6
:102670003A08A4000A128A11F1210A168A11831657
:1026800003132308BD002208BC002108BB0020085A
:10269000BA00023083120313EF004530EE00A93078
:1026A000ED00ED0B512BEE0B512BEF0B512B0130AD
:1026B00083160313B8070318B90A0030B90739089D
:1026C000803AFF0080307F02031D682B05303802FE
:1026D000031C6B2B6C2B072B403083120313D00091
:1026E000A030CF000030CE000030CD0083160313A1
:1026F0003D0883120313D400831603133C0883128E
:102700000313D300831603133B0883120313D20071
:10271000831603133A0883120313D1000A128A1195
:1027200014200A168A118312031350088316031308
:10273000BD00831203134F0883160313BC008312DA
:1027400003134E0883160313BB00831203134D08B3
:1027500083160313BA003D08B7003C08B6003B08D7
:10276000B5003A08B4000800F80078080319B92B3E
:10277000BA2BCE2BF31FBD2BBE2BCE2B7009FA002C
:102780007109FB007209FC007309FD00FA0A0319C4
:10279000FB0A0319FC0A0319FD0AD62B7308FD0076
:1027A0007208FC007108FB007008FA0073087204DC
:1027B00071047004031DDD2BDE2BE72B0030F300CA
:1027C0000030F2000030F1000030F0006D2C963047
:1027D000F4007408F900F92B0130F4007408F907CB
:1027E00001300310FD0CFC0CFB0CFA0CFF3E031D2A
:1027F000F12BFE307D05031DFE2BFF2BEC2B1B2C3C
:102800000130F4007408F9070130FA0700300318AA
:102810000130FB07003003180130FC0700300318BB
:102820000130FD0701300310FD0CFC0CFB0CFA0C11
:10283000FF3E031D132CFF307D05031D202C212C92
:10284000002C2D2C0130F9020130F4000310FA0D98
:10285000FB0DFC0DFD0DF40B262CFC1B302C312C3C
:10286000372C023079020318362C372C222C791899
:102870003A2C3B2C432CFF30FA05FF30FB057F3010
:10288000FC05FF30FD050310F90C7908F400F50193
:10289000F601F70118300310F40DF50DF60DF70DE4
:1028A000FF3E031D4B2C7408FA047508FB047608E0
:1028B000FC047708FD04780803195F2C602C652C54
:1028C000F31F632C642C652CFD177D08F3007C0836
:1028D000F2007B08F1007A08F00008008316031369
:1028E0003908BB0001300310BB0DFF3E031D732CE4
:1028F00003103B0D380784000A168A1100200A16BF
:102900008A11BC000A168A1100200A168A11BD001D
:102910000A168A1100200A168A11BE000A168A11A8
:1029200000200A168A11BF003F08C3003E08C200FB
:102930003D08C1003C08C000292DFF30B90703182D
:10294000BA0AFF30BA073908BB0001300310BB0DCB
:10295000FF3E031DA62C03103B0D380784000A160A
:102960008A1100200A168A11BC000A168A1100205A
:102970000A168A11BD000A168A1100200A168A1149
:10298000BE000A168A1100200A168A11BF003F08ED
:10299000A3003E08A2003D08A1003C08A000430897
:1029A00083120313B6008316031342088312031322
:1029B000B50083160313410883120313B400831672
:1029C0000313400883120313B3008316031337085D
:1029D00083120313BA0083160313360883120313FA
:1029E000B90083160313350883120313B800831646
:1029F0000313340883120313B7000A128A117924CF
:102A00000A168A1183120313360883160313A700CC
:102A100083120313350883160313A60083120313CE
:102A2000340883160313A500831203133308831697
:102A30000313A4000A128A11F1210A168A118316BF
:102A400003132308C3002208C2002108C100200884
:102A5000C00039083A04031D2E2D2F2D9D2C43084C
:102A6000B7004208B6004108B5004008B4000800AD
:102A7000831603135E0883120313AF008316031338
:102A80005D0883120313AE00831603135C088312E0
:102A90000313AD00831603135B0883120313AC000A
:102AA000E43083160313DF005F0883120313B000C2
:102AB0000A168A11F0200A168A1183160313E51FDD
:102AC000622D632D922D5E08F3005D08F2005C0814
:102AD000F1005B08F0000030F7000030F600003035
:102AE000F5000030F4000A168A1159220A168A11DC
:102AF00003187B2D7C2D872DBF3083160313DE003A
:102B00008030DD000030DC000030DB00082E0030BB
:102B100083160313DE000030DD000030DC000030DF
:102B2000DB00082E003065021D3003196402031C0F
:102B30009A2D9B2D9C2D082E5E08D3005D08D20097
:102B40005C08D1005B08D0000A168A114C210A16D5
:102B50008A11831603135308F3005208F200510838
:102B6000F1005008F00001300A168A11B4230A1649
:102B70008A11730883160313E3007208E2007108D8
:102B8000E1007008E0005E08F3005D08F2005C08F8
:102B9000F1005B08F0006308F7006208F6006108C6
:102BA000F5006008F4000A168A1159220A168A11E3
:102BB0000318DB2DDC2DFE2DBF3083160313A3007D
:102BC0008030A2000030A1000030A0006308A70000
:102BD0006208A6006108A5006008A4000A128A1114
:102BE000F1210A168A11831603132308DE00220836
:102BF000DD002108DC002008DB00082E831603130B
:102C00006308DE006208DD006108DC006008DB00AC
:102C1000080083160313470883120313A3008316C7
:102C20000313460883120313A200831603134508F7
:102C300083120313A10083160313440883120313A2
:102C4000A0000030A7000030A6000030A500003032
:102C5000A4000A168A1519260A168A11031C312E99
:102C6000322E3D2E003083160313C7000030C600FD
:102C70000030C5000030C400EC2E83160313470853
:102C80007F3983120313ED00EE010310ED0DEE0DFD
:102C90006D0883160313C8070318C90A83120313A8
:102CA0006E0883160313C907460D460D01398312BA
:102CB0000313ED00EE016D0883160313C807031814
:102CC000C90A831203136E0883160313C907C91FA9
:102CD0006A2E6B2E7C2E223083160317DE00003006
:102CE000DF00003083160313C7000030C600003039
:102CF000C5000030C400EC2E4908803AFF00813046
:102D00007F02031D852E00304802031C882E892E69
:102D1000C02E223083160317DE000030DF0083163A
:102D200003134708F3004608F2004508F100440881
:102D3000F0000030F7000030F6000030F500003001
:102D4000F4000A168A1159220A168A110318A92EAC
:102D5000AA2EB52EFF3083160313C7007F30C6009E
:102D6000FF30C500FF30C400EC2E7F308316031304
:102D7000C7007F30C600FF30C500FF30C400EC2E16
:102D800083160313490883120313EE0083160313FB
:102D9000480883120313ED006E0DEE0CED0C831644
:102DA00003134708831203136D0680396D068316DB
:102DB0000313C7004808013983120313ED00ED0C1B
:102DC000ED0C831603134608831203136D067F3937
:102DD0006D0683160313C6000800831603172F0819
:102DE00083160313C700831603172E0883160313D5
:102DF000C600831603172D0883160313C500831618
:102E000003172C0883160313C4000A128A155822CC
:102E10000A168A11831603134708CF004608CE000E
:102E20004508CD004408CC00831603173008043E43
:102E300084008317000883160313C800840A00085F
:102E4000C900840A0008CA00840A0008CB000A16D8
:102E50008A1501250A168A11831603134B0883125B
:102E60000313D400831603134A0883120313D300F9
:102E700083160313490883120313D2008316031326
:102E8000480883120313D100831603173008083E45
:102E900084008317000883120313CD00840A0008FE
:102EA000CE00840A0008CF00840A0008D0000A126D
:102EB0008A1114200A168A118312031350088316EC
:102EC0000317B400831203134F0883160317B300CC
:102ED000831203134E0883160317B20083120313E1
:102EE0004D0883160317B100340883160313A70097
:102EF00083160317330883160313A60083160317DC
:102F0000320883160313A5008316031731088316AE
:102F10000313A400831603173008840083170008E6
:102F200083160313A000840A0008A100840A000885
:102F3000A200840A0008A3000A128A11F1210A16CD
:102F40008A1183160313230883160317B800831608
:102F50000313220883160317B700831603132108EF
:102F600083160317B600831603132008831603176E
:102F7000B50038089E0037089D0036089C003508CB
:102F80009B0041309A0020309900003098000030BA
:102F900097000A128A15AE230A168A1183160317A0
:102FA0001A08BC001908BB001808BA001708B900B5
:102FB0003C0883160313D300831603173B088316BC
:102FC0000313D200831603173A0883160313D100A4
:102FD00083160317390883160313D0000A168A11C3
:102FE0004C210A168A1183160313510883160317FE
:102FF000AD0083160313500883160317AC000800B6
:1038DA00831203139F018030831603139F0008008D
:1038EA0064008001840A0406031900340406762C55
:1038FA0073087204710470040319842C852C872CB4
:10390A008030F3060800F800831603136E1483123E
:10391A000313061478080A168A1569260A168A15E0
:10392A0008007E088A007F0882000A168A159624F3
:10393A000A168A158000840A04087D0603190034D1
:10394A00FF0A0319FE0A9A2C8316031386018816A6
:10395A000A168A11C8210A168A150A168A156D24AA
:10396A000A168A150A168A158E270A168A15080053
:10397A00F4008312031306108610740886000615D5
:10398A002C30F0000130F1000A168A15D2240A16EA
:10399A008A158312031306110800F201F301F201DA
:1039AA00F301DD2C0130F2070318F30A0030F307A4
:1039BA0071087302031DE32C70087202031CE62CC3
:1039CA00E72CD72C080080300A168A1569260A16B1
:1039DA008A155F300A168A1525250A168A15A8300F
:1039EA000A168A1569260A168A155F300A168A1572
:1039FA0025250A168A150800803083160313CB067C
:103A0A004F08A3004E08A2004D08A1004C08A000D0
:103A1A004B08A7004A08A6004908A5004808A400C0
:103A2A000A128A11F1210A168A158316031323082A
:103A3A00CB002208CA002108C9002008C8000800D3
:103A4A00FB00F901FA013C2D79087B0784000A166C
:103A5A008A1100200A168A150A168A1588240A1657
:103A6A008A150130F9070318FA0A0030FA077908AB
:103A7A007B0784000A168A1100200A168A15003A62
:103A8A00031D482D492D292D0800F800F401F501E0
:103A9A007008F200F3017208F6007308F700781C48
:103AAA00572D582D5E2D7608F4070318F50A770866
:103ABA00F50701300310F60DF70DFF3E031D5F2DCC
:103ACA000310F80C7808031D6B2D6C2D542D750806
:103ADA00F1007408F00008007308803AFF00803093
:103AEA007F02031D7A2D03307202031C7D2D7F2D68
:103AFA000130802D00300138831203139F00E83013
:103B0A00F0000330F1000A128A1105200A168A15FC
:103B1A00831203131F151F19932D942D902D1E0820
:103B2A00F300831603131E08F200080070087104DC
:103B3A000319A02DA12DD02DF501F50AAF2D0130C5
:103B4A000310F00DF10DFF3E031DA52D0130F40009
:103B5A007408F507F11FB22DB32DA42D7108730255
:103B6A00031DB92D70087202031CBC2DBD2DC32D77
:103B7A007008F2027108031CF303F3020130031008
:103B8A00F10CF00CFF3E031DC42D0130F502031D9C
:103B9A00CF2DD02DB32D7308F1007208F000080064
:103BAA00F501F601700871040319DC2DDD2D142EC0
:103BBA00F701F70AEB2D01300310F00DF10DFF3E6E
:103BCA00031DE12D0130F4007408F707F11FEE2DF3
:103BDA00EF2DE02D01300310F50DF60DFF3E031D0C
:103BEA00F02D71087302031DFC2D70087202031C6C
:103BFA00FF2D002E072E7008F2027108031CF30332
:103C0A00F302751401300310F10CF00CFF3E031D92
:103C1A00082E0130F702031D132E142EEF2D7608FD
:103C2A00F1007508F0000800003083120313200524
:103C3A00A80000302105A90080302205AA007F30A3
:103C4A002305AB002B082A0429042804031D2E2E61
:103C5A002F2E372E0030A3000030A2000030A10022
:103C6A000030A00000302405A80000302505A90076
:103C7A0080302605AA007F302705AB002B082A04CE
:103C8A0029042804031D4A2E4B2E532E0030A70068
:103C9A000030A6000030A5000030A4002708230643
:103CAA00031D612E26082206031D612E2508210602
:103CBA00031D612E240820060319642E652E672E23
:103CCA000310682E03140800F600831603136E1CF3
:103CDA006F2E702E722E6E10752E8312031306101D
:103CEA00831286107608F4007408F700F030F400A6
:103CFA007408F7050F30F400740886057708F40095
:103D0A007408860406152C30F0000130F1000A16FA
:103D1A008A15D2240A168A15831203130611760805
:103D2A00F40003300310F40DFF3E031D972E031019
:103D3A00740DF5007508F700F030F4007408F70503
:103D4A000F30F400740886057708F40074088604B6
:103D5A0006152C30F0000130F1000A168A15D2241B
:103D6A000A168A1583120313061108008312031315
:103D7A006708F0006808F1000030F11BFF30F2001C
:103D8A00F30001300A168A11B4230A168A15730839
:103D9A0083120313D0007208CF007108CE00700896
:103DAA00CD004130B6002030B5000030B4000030FC
:103DBA00B300FF30EB000330EC0067086B02F00041
:103DCA006808031C680A6C02F100F201F11BF20395
:103DDA007208F30001300A168A11B4230A168A15EA
:103DEA00730883120313BA007208B9007108B80085
:103DFA007008B7000A128A1179240A168A158312E2
:103E0A0003133608D4003508D3003408D200330827
:103E1A00D1000A128A1114200A168A158312031372
:103E2A005008EA004F08E9004E08E8004D08E7008C
:103E3A00080083160317BF01C0015A2F0A30F00089
:103E4A000030F1003E08F3003D08F2000A168A1518
:103E5A009B250A168A15831603173F088316031330
:103E6A00EC006C07103E8400700883178000840AF7
:103E7A00710880000A30F0000030F1008316031741
:103E8A003E08F3003D08F2000A168A15D5250A16DF
:103E9A008A15710883160317BE007008BD00013029
:103EAA00BF070318C00A0030C0073D083E04031DBF
:103EBA005F2F602F232FFF30BF070318C00AFF3080
:103ECA00C0074008C2003F08C100C21F6D2F6E2FF5
:103EDA006F2F8D2F410883160313EC006C07103ED9
:103EEA00840083170008303EED006D08831603171F
:103EFA00E00060080A168A1588240A168A15FF3017
:103F0A0083160317C1070318C20AFF30C2076A2FB4
:103F1A00080080300A168A1569260A168A15CB30D7
:103F2A000A168A1525250A168A15A8300A168A1528
:103F3A0069260A168A15B1300A168A1525250A161F
:103F4A008A151A3083120313A2005E30A1006D3065
:103F5A00A000A00BAE2FA10BAE2FA20BAE2FB52F38
:103F6A001A3083120313A2005E30A1006D30A00044
:103F7A00A00BBD2FA10BBD2FA20BBD2FC42F0A165C
:103F8A008A15E8240A168A1580300A168A156926BF
:103F9A000A168A15D6300A168A1525250A168A158A
:103FAA00A8300A168A1569260A168A15A1300A1631
:103FBA008A1525250A168A151A3083120313A200B8
:103FCA005E30A1006D30A000A00BE92FA10BE92FF4
:103FDA00A20BE92FF02F1A3083120313A2005E30CE
:103FEA00A1006D30A000A00BF82FA10BF82FA20B97
:063FFA00F82FFF2F080064
:02400E00723FFF
:00000001FF
